:1000000011308A005B290000FF00030E8301A1006C
:100010000A08A0008A010408A2007708A300780853
:10002000A4007908A5007A08A60003170D08031399
:10003000A70003170F080313A80003170C080313E6
:10004000A90003170E080313AA00831383128B1D44
:100050002B280B1856288C308400801E31288C1ACF
:1000600059288B1E35280B195C2822088400230888
:10007000F7002408F8002508F9002608FA002708E8
:1000800003178D000313280803178F000313290893
:1000900003178C0003132A0803178E00031320088C
:1000A0008A00210E8300FF0E7F0E09008A110A12BA
:1000B000A9298A110A120A2A8A150A12A52980304A
:1000C000831C672883160317CA068312031383163B
:1000D0000317CF01D0014608CE004A08CE064508D6
:1000E00003195629CD00F700490803195F29CD02ED
:1000F0000319FB28031CB9284A08D300D3174B085F
:10010000D2004C08D100D0010310D30CD20CD10C7A
:10011000D00CCD0B8328CE1F90284F1473294F107D
:100120004D104F16C8308400831788294F12CE1BFC
:10013000A3284D1CAE28D30CD20CD10CD00CF70A3E
:1001400003196E29AE28D31BB1280310D00DD10D91
:10015000D20DD30DF70303196E29A3284F171B29BE
:100160004F134608CE00CE1FB728D3176729D313E5
:1001700067294908CD00F7004508CD024608D3009D
:10018000D3174708D2004808D100D0010310D30C80
:10019000D20CD10CD00CCD0BC528CE1FD228CF1439
:1001A0007329CF104D10CF16CC30840083178829C7
:1001B000CF12CE1BE5284D1CF028D30CD20CD10C4D
:1001C000D00CF70A03196E29F028D31BF32803106B
:1001D000D00DD10DD20DD30DF70303196E29E528EB
:1001E000CF171B29CF134A08CE00CE1FF928D317EB
:1001F0006729D31367294A08D300D3174B08D200C5
:100200004C08D100CE1F0829D3134F1573294F1165
:10021000D0014D10C830840083178829CE1B3129A6
:100220004608CE004D1C1B29D30CD20CD10CD00C8F
:10023000F70A03196E29D01F2C29D10A031D2C2976
:10024000D20A031D2C29D30A031D2C29D30CD20C4E
:10025000D10CF70A03196E294F1BB028CF1BF228C7
:1002600050298030D306D31F392973294A08CE007C
:1002700046294608CE00D308031D4629D208031D8F
:100280004629D108031D4629F7016729D31B5029A8
:100290000310D00DD10DD20DD30DF70B46296E29C9
:1002A000CE1F5429D3176729D31367294908F700AC
:1002B0004A08D3004B08D2004C08D10067294508F2
:1002C000F7004608D3004708D2004808D100530879
:1002D000F8005208F9005108FA00A629F701F801C0
:1002E000F901FA01A629D001D109D209D309D0090F
:1002F000D00A031D8129D10A031D8129D20A0319BD
:10030000D30A4F188F28CF18D1284F19072936291B
:100310000008D107031C9229D20A031D9229D30A8F
:1003200003194D1484030008D207031C9A29D30A29
:1003300003194D1484030008801F803AD307031863
:100340004D144F1A9628CF1AD8280E29831203135A
:1003500008000608F700031730087706F80077084A
:10036000B00078080F3983160313E9006908023CCE
:100370000318DF29831027080317C8000313260872
:100380000317C700031325080317C6000313240827
:100390000317C500CD30CC00CC30CB004C30CA00A8
:1003A0007A30C900831203135F207A088316A700EE
:1003B0007908A6007808A5007708A400052A690B2B
:1003C000052A831427080317C800031326080317F8
:1003D000C700031325080317C600031324080317D7
:1003E000C500CD30CC00CC30CB004C30CA007A30C8
:1003F000C900831203135F207A088316A7007908C7
:10040000A6007808A5007708A40083120B108A11B3
:100410000A1235288C1E0A2A1A088316031796001A
:100420001608233C031D212A83129E0114301E0747
:100430008400831783161608800083129E0A442ABC
:10044000831616080A3C031D342A143083121E0733
:100450008400831783161608800001300313EF0011
:1004600083120317442A8316143083121E07840054
:10047000831783161608800083121E08083C031891
:10048000432A9E01442A9E0A03138C128A110A12DF
:1004900035280830F80000008711AC112C088316AD
:1004A0008700000003179F0D831203130712031C1C
:1004B0005F2A2C162C0883168700632A83122C12BD
:1004C0002C088316870000008312AC152C088316B5
:1004D00087008312871D6A2AF80B4B2A00008711B8
:1004E000AC112C0883168700000083122C162C08F0
:1004F00083168700000000008312AC152C088316B9
:1005000087008312871D822AF8010000071A7814D9
:100510008711AC112C0883168700831207122C1246
:100520002C088316870083120800083083160317EF
:10053000A0007708A100831203132C162C08831641
:10054000870000008312AC152C08831687008312E5
:10055000871DA82A071A0314071E0310F80D0000B0
:10056000AC112C088316870083128711831603179A
:10057000A00B9B2A831203132C162C0883168700CA
:100580000000831207128316031721080319CF2ACC
:10059000831203132C122C08831687000317000004
:1005A00083120313AC152C08831687008312871D52
:1005B000D72A00008711AC112C0883168700000091
:1005C000831207122C122C0883168700831208004E
:1005D000831603179C019B019E019D018312031347
:1005E0002C162C088316870000008312AC152C08EB
:1005F000831687000000831207122C122C08831622
:100600008700000083128711AC112C088316870025
:10061000D03003179F008312031349228316031758
:100620001A089F008312031349222C162C088316E4
:10063000870000008312AC152C0883168700000089
:100640008312871D212B07122C122C08831687007A
:10065000000083128711AC112C0883168700D1305B
:1006600003179F008312031349220130F7009522DC
:10067000831603179C0178089B00F701831203136C
:100680009522831603179E0178089D008312031399
:100690002C122C088316870000008312AC152C083E
:1006A000831687008312871D532B0000572B0000F1
:1006B0002C162C0883168700000003179F011F08C3
:1006C0001D04F7001B081E04FA007708F8007A08DA
:1006D000F9008312031308008E30F7008316031706
:1006E0001F08F8001E08F900FA019F1F7C2BF8096B
:1006F000F909F90A0319F80AF808031D892B790882
:10070000F800F9010830F702F808031D892BF701FA
:10071000922B0310F81B902BF90DF80DF703892B82
:100720009F1FF81383120313080083160317420850
:10073000C9004608C906C91FA22B03110310C21B1A
:100740000314D52B4208C9004508CA004108CA0253
:100750000319B02BC91FD52B0308013A8300D52BF1
:100760004608CA004208CA020319BC2BC91FD52B70
:100770000308013A8300D52B4708CA004308CA0280
:100780000319C82BC91FD52B0308013A8300D52BA9
:100790004808CA004408CA020319D42BC91FD52B24
:1007A0000308013A8300D52B0310831203130800BA
:1007B00083160317450803199F2CD1004908031914
:1007C0009F2CD102031CE92B7F30D10703189F2CEB
:1007D000EF2B8130D102031C9F2C03199F2C510851
:1007E000F700F801F901FA01D0014608CF00CF1750
:1007F0004708CE004808CD001930D1004C08CD0282
:100800000318122C0130CE020318122CCF02031849
:10081000122CD0020318122CD00ACF0ACE0A4C0890
:10082000CD07442C4B08CE0203182D2C0130CF02EB
:1008300003182D2CD00203182D2CD00ACF0A4B08F8
:10084000CE074C08CD07031C442CCE0A031D442CB4
:10085000CF0A031D442CD00A442C4A088038CF020A
:100860000318432C0130D0020318432CD00A4A0845
:100870008038CF074B08CE07031C212CCF0A031D5D
:10088000212CD00A212C7A14D10B472C522C031086
:10089000CD0DCE0DCF0DD00D0310FA0DF90DF80DC5
:1008A000D20DFE2B521C5A2C0310F80CF90CFA0C2A
:1008B000D20C5D2CF70303199F2CD21B862C03103E
:1008C000CD0DCE0DCF0DD00D4C08CD020318722CDE
:1008D0000130CE020318722CCF020318722CD00202
:1008E000031C952C4B08CE0203187D2C0130CF023F
:1008F00003187D2CD002031C952C4A088038CF02A7
:100900000318862C0130D002031C952CFA0A031D13
:10091000952CF90A031D952CF80A031D952CF70A4E
:1009200003199F2CF80CF90CFA0C4608D1004A0860
:10093000D106D11F9D2CF817A32CF813A32CF70177
:10094000F801F901FA018312031308008316031753
:1009500045080319182DCD0049080319182DCD0796
:100960000318B92C7F30CD02031C182D0319182D44
:10097000BD2C8130CD070318182D4D08F700F80164
:10098000F901FA014608D100D1174708D0004808FC
:10099000CF001830CD00CE014F1CE62C4C08FA07D2
:1009A000031CD82CF90A031DD82CF80A0319CE17FA
:1009B0004B08F907031CDF2CF80A0319CE174A0865
:1009C000C700C7174708F8070318CE17CE0DF80C55
:1009D000F90CFA0CD10CD00CCF0C0310CD0BCB2C96
:1009E0000130F7070318182DF81BFD2CD10DFA0D57
:1009F000F90DF80DF7030319182DD11F0E2DFA0A62
:100A0000031D0E2DF90A031D0E2DF80A031D0E2DD0
:100A1000F80CF90CFA0CF70A0319182D4608CE0049
:100A20004A08CE06CE1F162DF8171C2DF8131C2DC4
:100A3000F701F801F901FA01831203130800831684
:100A400003174010C0103308B7003208B600310851
:100A5000B5003008B4003308C4003208C3003108C0
:100A6000C2003008C100C801C701C601C501831218
:100A700003139523031C442D8316031740143508D4
:100A8000803AB5008312031383160317C401C30110
:100A9000C2017F30C1003708C8003608C7003508DA
:100AA000C6003408C500831203139523031C772D59
:100AB00083160317C801C701C6017F30C500370878
:100AC000CC003608CB003508CA003408C9008312B0
:100AD0000313D8237A0883160317B7007908B600E2
:100AE0007808B5007708B400C014831203130A30E5
:100AF00083160317C8008930C7003430C6007C3025
:100B0000C5003708CC003608CB003508CA003408C9
:100B1000C90083120313A6247A0883160317C4009E
:100B20007908C3007808C2007708C1004408C800EB
:100B30004308C7004208C6004108C5003708CC007A
:100B40003608CB003508CA003408C90083120313E5
:100B5000A6247A0883160317C4007908C30078080E
:100B6000C2007708C10083104408C8004308C700CA
:100B70004208C6004108C5007C30CC007930CB006B
:100B80003530CA008130C900831203135F207A0810
:100B900083160317BB007908BA007808B9007708F4
:100BA000B8003B08C8003A08C7003908C600380832
:100BB000C5003708CC003608CB003508CA00340819
:100BC000C90083120313A6247A0883160317C400EE
:100BD0007908C3007808C2007708C1004408C8003B
:100BE0004308C7004208C6004108C5003708CC00CA
:100BF0003608CB003508CA003408C9008312031335
:100C0000A6247A0883160317C4007908C30078085D
:100C1000C2007708C10083104408C8004308C70019
:100C20004208C6004108C5003F30CC000230CB006E
:100C30003330CA008330C900831203135F207A085F
:100C400083160317BB007908BA007808B900770843
:100C5000B8003B08C8003A08C7003908C600380881
:100C6000C5003708CC003608CB003508CA00340868
:100C7000C90083120313A6247A0883160317C4003D
:100C80007908C3007808C2007708C1004408C8008A
:100C90004308C7004208C6004108C5003708CC0019
:100CA0003608CB003508CA003408C9008312031384
:100CB000A6247A0883160317C4007908C3007808AD
:100CC000C2007708C10083104408C8004308C70069
:100CD0004208C6004108C5003330CC008C30CB0040
:100CE0001E30CA008330C900831203135F207A08C4
:100CF00083160317BB007908BA007808B900770893
:100D0000B800C801C701C6017F30C5003708CC0054
:100D10003608CB003508CA003408C9008312031313
:100D2000A6247A0883160317C4007908C30078083C
:100D3000C2007708C1004408C8004308C700420841
:100D4000C6004108C5003708CC003608CB0035087E
:100D5000CA003408C90083120313A6247A08831634
:100D60000317C4007908C3007808C2007708C100DF
:100D700083104408C8004308C7004208C600410861
:100D8000C5001B30CC00E430CB003530CA008230C7
:100D9000C900831203135F207A0883160317BF006C
:100DA0007908BE007808BD007708BC003F08C8007D
:100DB0003E08C7003D08C6003C08C5003708CC0007
:100DC0003608CB003508CA003408C9008312031363
:100DD000A6247A0883160317C4007908C30078088C
:100DE000C2007708C1004408C8004308C700420891
:100DF000C6004108C5003708CC003608CB003508CE
:100E0000CA003408C90083120313A6247A08831683
:100E10000317C4007908C3007808C2007708C1002E
:100E200083104408C8004308C7004208C6004108B0
:100E3000C500A430CC00DB30CB006730CA00833063
:100E4000C900831203135F207A0883160317BF00BB
:100E50007908BE007808BD007708BC003F08C800CC
:100E60003E08C7003D08C6003C08C5003708CC0056
:100E70003608CB003508CA003408C90083120313B2
:100E8000A6247A0883160317C4007908C3007808DB
:100E9000C2007708C1004408C8004308C7004208E0
:100EA000C6004108C5003708CC003608CB0035081D
:100EB000CA003408C90083120313A6247A088316D3
:100EC0000317C4007908C3007808C2007708C1007E
:100ED00083104408C8004308C7004208C600410800
:100EE000C5003330CC008C30CB001E30CA008330BC
:100EF000C900831203135F207A0883160317BF000B
:100F00007908BE007808BD007708BC003708C80023
:100F10003608C7003508C6003408C5003B08CC00B9
:100F20003A08CB003908CA003808C90083120313F5
:100F3000A6247A0883160317C4007908C30078082A
:100F4000C2007708C1004408C8004308C70042082F
:100F5000C6004108C5003F08CC003E08CB003D0854
:100F6000CA003C08C90083120313D8237A088316E9
:100F70000317BB007908BA007808B9007708B800F1
:100F8000C01CE02F8314DB30C8000F30C70049308D
:100F9000C6007F30C5003B08CC003A08CB003908BA
:100FA000CA003808C900831203135F207A08831629
:100FB0000317BB007908BA007808B9007708B800B1
:100FC000401CE52F3908803AB9003808F700390885
:100FD000F8003A08F9003B08FA00831203130800EE
:0E0FE000E436F6346E34683468346834000049
:10100000831603172E10AF012508C4002408C3005F
:101010002308C2002208C100C801C701C601C501DA
:101020008A118312031395238A1503181928031DA7
:101030003428831603172908C4002808C30027088A
:10104000C2002608C100C801C701C601C5018A1136
:101050008312031395238A1503183028031D3228A1
:101060000330332804304C28831603172908C400A2
:101070002808C3002708C2002608C100C801C7010C
:10108000C601C5018A118312031395238A15031C17
:101090004B2802304C28013083160317AF00250877
:1010A000C4002408C3002308C2002208C100C801EC
:1010B000C701C601C5018A118312031395238A153E
:1010C000031C6A28831603172E142308803AA300F2
:1010D00083120313831603172908C4002808C300CA
:1010E0002708C2002608C100C801C701C601C50102
:1010F0008A118312031395238A15031C86288316ED
:1011000003172708803AA7008312031383160317D7
:101110002908C4002808C3002708C2002608C10007
:10112000C801C701C601C5018A11831203139523A3
:101130008A15031DCA28831603172508C40024082E
:10114000C3002308C2002208C100C801C701C601AC
:10115000C5018A118312031395238A150319C9281F
:10116000831603172E1CBE287F30F700C930F80005
:101170000F30F900DB30FA009A29C7287F30F700DA
:101180004930F8000F30F900DB30FA009A29831259
:1011900003139829831603172508C8002408C700DD
:1011A0002308C6002208C5002908CC002808CB0067
:1011B0002708CA002608C9008A1183120313D823FE
:1011C0008A157A0883160317AD007908AC007808F1
:1011D000AB007708AA0001302F02FC3E03189A29C1
:1011E000043E831203139D29831603172D08B300B1
:1011F0002C08B2002B08B1002A08B0008A11831213
:1012000003131F258A15831603179A299A29831217
:101210000313831603172D08B3002C08B2002B0804
:10122000B1002A08B0008A11831203131F258A1502
:1012300083160317B1010408B0003110831B311469
:101240008314DB30C8000F30C7004930C60080303F
:10125000C5007A08CC007908CB007808CA00770866
:10126000C9008A11831203135F208A15831603179E
:10127000300884008313311883179A299A2983121E
:101280000313831603172D08B3002C08B2002B0894
:10129000B1002A08B0008A11831203131F258A1592
:1012A0007A0883160317B3007908B2007808B100F2
:1012B0007708B000B5010408B4003510831B35145D
:1012C00083143308C8003208C7003108C60030084C
:1012D000C500DB30CC000F30CB004930CA00803075
:1012E000C9008A11831203135F208A15831603171E
:1012F000340884008313351883179A299A29831296
:101300000313831603172D08B3002C08B2002B0813
:10131000B1002A08B0008A11831203131F258A1511
:101320008030F806831603179A299A29831203132B
:10133000831603178312031308000A148A100A1174
:101340008207F4280929412981290130E3003B3033
:10135000831603179A008A1183120313E8228A1551
:1013600079088316CA007808C9003D3003179A002F
:101370008A1183120313E8228A1579088316CC0098
:101380007808CB003F3003179A008A1183120313A9
:10139000E8228A1579088316CE007808CD004330FC
:1013A00003179A008A1183120313E8228A15790819
:1013B0008316D0007808CF00453003179A008A11B1
:1013C00083120313E8228A1579088316D20078085D
:1013D000D100473003179A008A1183120313E822C1
:1013E0008A1579088316D4007808D3004C080317AF
:1013F0009F0003134B0803179E008A1183120313E7
:101400006C238A157A08831603179D0079089C00BF
:1014100078089B0077089A0003134E0803179F0073
:1014200003134D0803179E008A11831203136C23C4
:101430008A157A0883160317A1007908A000780896
:101440009F0077089E001D08A5001C08A4001B082B
:10145000A3001A08A2002108A9002008A8001F085C
:10146000A7001E08A6008312031300207A08831623
:1014700003179D0079089C0078089B0077089A0064
:101480009F0104089E001F10831B1F1483101D085A
:10149000C8001C08C7001B08C6001A08C500DB30BE
:1014A000CC000F30CB004930CA008030C9008A110F
:1014B000831203135F208A15831603171E08840006
:1014C00083131F1883177A089D0079089C007808F9
:1014D0009B0077089A001D08C8001C08C7001B085D
:1014E000C6001A08C500CC01CB013430CA008630D2
:1014F000C9008A1183120313A6248A157A08831659
:1015000003179D0079089C0078089B0077089A00D3
:101510001D08C8001C08C7001B08C6001A08C50023
:10152000DB30CC000F30CB004930CA008030C9001E
:101530008A1183120313D8238A157A088316D800D8
:101540007908D7007808D6007708D5005008031727
:101550009F0003134F0803179E008A118312031381
:101560006C238A1583107A0883160317C80079083C
:10157000C7007808C6007708C500831213088316D1
:10158000CC00831212088316CB0083121108831635
:10159000CA00831210088316C9008A11831203132C
:1015A0005F208A157A08831603179D0079089C002E
:1015B00078089B0077089A001D08C8001C08C7001F
:1015C0001B08C6001A08C500CC01CB010330CA00B5
:1015D0008630C9008A1183120313D8238A157A082A
:1015E0008316031799007908980078089700770800
:1015F00096000313500803179F0003134F080317A7
:101600009E008A11831203136C238A15831083169C
:1016100041080317C800031340080317C70003134A
:101620003F080317C60003133E080317C5007A08D6
:10163000CC007908CB007808CA007708C9008A1165
:10164000831203135F208A157A088316C100790874
:10165000C0007808BF007708BE00E70A0319E80A4F
:1016600003171908C8001808C7001708C60016088D
:10167000C500CC01CB012030CA008230C9008A11DC
:1016800083120313A6248A157A08831603179D0074
:1016900079089C0078089B0077089A001D08C8000C
:1016A0001C08C7001B08C6001A08C500CC01CB01E6
:1016B0007A30CA008830C9008A1183120313D823F4
:1016C0008A15831083165C080317C80003135B0890
:1016D0000317C70003135A080317C600031359085A
:1016E0000317C5007A08CC007908CB007808CA0037
:1016F0007708C9008A11831203135F208A157A08BC
:101700008316DC007908DB007808DA007708D90056
:101710000A300317C800D730C7002330C60079301D
:10172000C500031358080317CC0003135708031709
:10173000CB00031356080317CA00031355080317F9
:10174000C9008A1183120313A6248A157A08831606
:1017500003179D0079089C0078089B0077089A0081
:101760004830C800E130C7007A30C6007E30C5007E
:1017700003135C080317CC0003135B080317CB00AB
:1017800003135A080317CA00031359080317C900A3
:101790008A1183120313A6248A1583108316031754
:1017A0001D08C8001C08C7001B08C6001A08C50091
:1017B0007A08CC007908CB007808CA007708C900FD
:1017C0008A11831203135F208A157A088316E400B6
:1017D0007908E3007808E2007708E1006408AF00C8
:1017E0006308AE006208AD006108AC0027308312C8
:1017F00081000B118A110A123528201E2012253370
:101800002410A41266122012253324102410251748
:101810003233241024102517323320122012A01244
:101820002E1966102410201F20002C162C08831659
:10183000870000008312AC152C0883168700000077
:10184000831207122C122C088316870000008312C3
:101850008711AC112C08831687008312AB018B1BF8
:10186000AB178B13D030831603179F008A11831296
:10187000031349228A15AB1B8B17AB018B1BAB17CC
:101880008B1303173B0883169F008A1183120313DF
:1018900049228A15AB1B8B17AB018B1BAB178B1324
:1018A00003173C0883169F008A11831203134922F1
:1018B0008A15AB1B8B172C122C088316870000008F
:1018C0008312AC152C08831687008312871D662CA3
:1018D00000006A2C00002C162C08831687000000DC
:1018E000831208003B308400831700080319862CFC
:1018F0000730F800F701F70B7B2CF80B7A2C2A3015
:10190000F700F70B812C842C800B782C08006B30AF
:101910000317BB008030BC000313152405300317E8
:10192000BB00031372246B300317BB00BC0103130D
:10193000152419300317BB000730BC00031315240E
:101940001A300317BB00BC01031315241B30031707
:10195000BB00BC01031315241C300317BB00BC01E2
:10196000031315246A300317BB00BC0103131524AD
:101970006B300317BB000130BC00031315240A3081
:101980000317BB00031372248A110A16012A3C3084
:101990008400831700080319DB2C0730F800F701D7
:1019A000F70BD02CF80BCF2C2A30F700F70BD62CE6
:1019B000D92C800BCD2C08000B080317BB00031398
:1019C0008B13831603178C170C140000000083126E
:1019D000BB1FED2C03138B1703170C087F3903195A
:1019E0002C2DBB000D08BC000F08BD003B080313E5
:1019F0000C1EF82C990003173C088D003D088F0041
:101A000003130B080317BE0003138B13831603176E
:101A10008C170C14000000008312BE1F122D03133C
:101A20008B1703170C0D0E0D7F3903192C2DBB00DE
:101A30000D08BC000F08BD003B0803130C1E1E2D33
:101A4000990003173C088D003D088F008D0A03198B
:101A50008F0A0313DC2C031703138A110A16C82BF1
:101A60008E30F70003174608F8004508F900FA0120
:101A7000F808031D452D7908F800F9010830F70230
:101A8000F808031D452DF7014D2D0310F81B4C2DB3
:101A9000F90DF80DF703452DF81303130800013075
:101AA0008316B8008312AB018B1BAB178B13031784
:101AB0003E088316C40083123D088316C3008312B8
:101AC0003C088316C20083123B088316C100C8017C
:101AD000C701C601C5018A118312031395238A1514
:101AE000AB1B8B17031CA52D02308316B800831483
:101AF0008312AB018B1BAB178B1303173E088316A6
:101B0000C80083123D088316C70083123C08831661
:101B1000C60083123B088316C500CC01CB01703090
:101B2000CA008330C9008A11831203135F208A150B
:101B3000AB1B8B177A080317BE007908BD00780825
:101B4000BC007708BB00D02D03138310AB018B1BA7
:101B5000AB178B1303173E088316C80083123D088A
:101B60008316C70083123C088316C60083123B0805
:101B70008316C500CC01CB017030CA008330C90088
:101B80008A11831203135F208A15AB1B8B177A0807
:101B90000317BE007908BD007808BC007708BB00B9
:101BA0000313AB018B1BAB178B1383160317C401F5
:101BB000C3016630C2008630C10003132F0803172B
:101BC000C80003132E080317C70003132D080317BB
:101BD000C60003132C080317C5008A1183120313D0
:101BE00095238A15AB1B8B170318872E0319872E95
:101BF000AB018B1BAB178B1383162F080317C40085
:101C000003132E080317C30003132D080317C20084
:101C100003132C080317C100C801C7010230C60016
:101C20008630C5008A118312031395238A15AB1BD6
:101C30008B170318872E0319872E8314AB018B1B78
:101C4000AB178B1383162F080317C80003132E0836
:101C50000317C70003132D080317C60003132C082E
:101C60000317C500031327080317CC000313260826
:101C70000317CB00031325080317CA000313240816
:101C80000317C9008A11831203135F208A15AB1B47
:101C90008B177A080317C4007908C3007808C200BC
:101CA0007708C100F7004208F8004308F90044082B
:101CB000FA00F8137A08C4007908C3007808C20053
:101CC0007708C1000313AB018B1BAB178B130317F2
:101CD00044088316C400831243088316C30083128A
:101CE00042088316C200831241088316C100C8014E
:101CF000C701C6017E30C5008A11831203139523E4
:101D00008A15AB1B8B170318872E031D912E031703
:101D1000BE01BD01BC01BB01013083160313B80035
:101D2000831203173B08F7003C08F8003D08F90050
:101D30003E08FA00F8137A08C4007908C30078084E
:101D4000C2007708C1008E30F7004108F702420850
:101D5000F9004308F800F917F7080319BA2E031021
:101D6000F908031DB62EF8080319BA2EF90CF80C61
:101D7000F70BAF2EC21FC12EF809F909F80A031993
:101D8000F90A7808C0003B08F7003C08F8003D0855
:101D9000F9003E08FA00F8137A08C4007908C30075
:101DA0007808C2007708C1000313AB018B1BAB1787
:101DB0008B1383160317C401C3017A30C200863027
:101DC000C100831244088316C80083124308831697
:101DD000C700831242088316C60083124108831687
:101DE000C5008A118312031395238A15AB1B8B1729
:101DF000031CFF2EFA300317C0003E2F03130317F6
:101E00003B08F7003C08F8003D08F9003E08FA00DE
:101E1000F8133E08C4003D08C3007808C2003B0820
:101E2000C100C6013F08C50003133025AB018B1B61
:101E3000AB178B13031744088316C400831243089F
:101E40008316C300831242088316C200831241081E
:101E50008316C1007A08C8007908C7007808C60050
:101E60007708C5008A118312031395238A15AB1BCB
:101E70008B17031C3F2F03173F08C0000313831663
:101E8000390838020319682F8510831285148316C8
:101E9000851183128515FA3095009B00831638084A
:101EA000B9003808023C031D5E2F8510831285148B
:101EB0008316851183128515672F8316380B682FBB
:101EC0008510831285108316851183128511831660
:101ED000380B752F8312031740080313950003175F
:101EE000400803139B00862F83163808023C031D0D
:101EF000872F831203174008FA3CC1000313950093
:101F000003174008FA3CC10003139B008316831299
:101F100003174008F80003138A110A16A12C0B08B6
:101F20000317C80003138B13831603178C170C14A5
:101F3000000000008312C81FA02F03138B17031784
:101F40000318C82F0C087F39C8000D08C9000F08F6
:101F5000CA00480803130C1EAB2F99000317490849
:101F60008D004A088F0003130B080317CB000313DF
:101F70008B13831603178C170C14000000008312B8
:101F8000CB1FC52F03138B170317C70BC82FE32FC6
:101F90000C0D0E0D7F39C8000D08C9000F08CA00CE
:101FA000480803130C1ED22F9900031749088D000F
:101FB0004A088F008D0A03198F0A0310C70BE12FFF
:101FC000E32F03138F2F0313080010300317C300F0
:101FD000F701FA01C00CBF0C031CF42F4108F707EE
:101FE0000318FA0A4208FA07FA0CF70CF90CF80C75
:081FF000C30BEA2F03130800E4
:10200000831805285C3084008317F701F801F90173
:10201000FA010317DC01DD01DE01DF015B085A0470
:1020200059045804031944282030E0000310D40D4B
:10203000D50DD60DD70DDC0DDD0DDE0DDF0D5B08EA
:102040005F02031D2D285A085E02031D2D28590822
:102050005D02031D2D2858085C02031C3E28580809
:10206000DC025908031C590FDD025A08031C5A0FE1
:10207000DE025B08031C5B0FDF020314F70DF80D93
:10208000F90DFA0DE00B16285C088000840A5D0843
:102090008000840A5E088000840A5F0880000313C1
:1020A000080004080317CC004B08CE00031985284C
:1020B0000313AB018B1BAB178B1303174A08831653
:1020C000C800831249088316C70083124808831684
:1020D000C600831247088316C500CC01CB0120300F
:1020E000CA008230C9000A1283120313A6240A16FA
:1020F000AB1B8B177A080317CA007908C900780848
:10210000C8007708C700CE0B58284A08D7004908EE
:10211000D6004808D5004708D4005408B63CD4007F
:10212000FA015508D800D5170310D50CD60CD70CDA
:10213000FA0CF90CF80CF70CD40B9428D81FAB2828
:10214000F709F809F909FA09F70A0319F80A03194E
:10215000F90A0319FA0A7A08CA007908C900780846
:10216000C8007708C700CA1FC228CC03CC16C7090D
:10217000C809C909CA09C70A0319C80A0319C90A3B
:102180000319CA0A3B30D3009A30D200CA30D100BA
:10219000D0010A30CE004B080319CC0A8314473013
:1021A000840083174A08D7004908D6004808D5009C
:1021B0004708D4005308DB005208DA005108D90060
:1021C0005008D800031300207808F708031DFF28E3
:1021D00003174B0A4E02031DEF280313FF284C0878
:1021E000031902290F394E020319F82803183E2952
:1021F000CC1B3E294C1B02292030372903132030E9
:102200000317CC05CC1E1329CC124B08031DCC039D
:102210007708CC002D3003130C1E0C2999000317EE
:102220004C08F700CC014B084E02031D2429770807
:10223000CC002E3003130C1E1B29990003174C08E9
:10224000F7002030CC0500303030CC1E3729CC12BE
:102250004B08031DCC037708CC002D3003130C1E54
:102260002F29990003174C08F700CC013030F707ED
:10227000770803130C1E3A2999000317831053089B
:10228000D7005208D6005108D5005008D400DB0111
:10229000DA01D9010A30D800031300207A080317A5
:1022A000D3007908D2007808D1007708D000CE0B8F
:1022B000CE280313080003081F398300FF30AC0049
:1022C0001730B000B730AF005130AE007330AD0002
:1022D0001730B400B730B3005130B2007230B100E3
:1022E0006F30B8001230B7000330B6007630B5005A
:1022F000BC01BB01BA01B901C401C301C201C101E2
:10230000C801C701C601C501CC01CB01CA01C90181
:10231000D001CF01CE01CD01831603178711023002
:1023200003139900A2309800903083129800E201C4
:10233000E101B53090008E018F018E010C10E30198
:10234000E401E6011930E500E801E701EA01323075
:10235000E900CD308316A3004C30A2003030A1003C
:102360008630A0002308A7002208A6002108A500A7
:102370002008A4009A30AB009930AA001930A900B7
:102380007D30A8000130B800B900C101C0017A3029
:10239000BF008830BE00C201C801C701E801E701E3
:1023A000E901ED01EC01EB01EA010130EE008312DD
:1023B00003179E01A001A301B00183160908C039CB
:1023C000890003131F129F12003003178800831225
:1023D00087018801890183133030A4003630A500BD
:1023E0003030A600A7003730A8003030A900AA007E
:1023F0003830AB003030AC00AD010A128A1503133F
:10240000872C0A168A1101300317B1003530831664
:1024100003138600861283128612013083169500FC
:10242000811383120608F700031730087706F800B7
:102430007708B00003130B1083168C16C03083127C
:102440008B040030F80004389200FA3083169200B2
:102450008312AC102C0883168700831287100C306F
:102460009D002C112C0883168700831207110C3055
:10247000970083169B019C0101309D000108C03923
:1024800006388100273083128100AB018B1BAB170C
:102490008B133D30831603179A000A12831203131D
:1024A000E8220A16AB1B8B1779088316CC00780834
:1024B000CB008312AB018B1BAB178B133F30831602
:1024C00003179A000A1283120313E8220A16AB1BA1
:1024D0008B1779088316CE007808CD008312AB01E4
:1024E0008B1BAB178B1383164C0803179F0003132A
:1024F0004B0803179E000A12831203136C230A165B
:10250000AB1B8B177A080317BE007908BD0078084B
:10251000BC007708BB000313AB018B1BAB178B13FD
:1025200083164E0803179F0003134D0803179E00E0
:102530000A12831203136C230A16AB1B8B177A083B
:102540000317C2007908C1007808C0007708BF00EF
:102550000313AB018B1BAB178B1303173E088316BA
:10256000A50083123D088316A40083123C0883163D
:10257000A30083123B088316A2008312420883162D
:10258000A900831241088316A8008312400883160D
:10259000A70083123F088316A6000A128A15831229
:1025A000031300200A168A11AB1B8B177A08031736
:1025B000BE007908BD007808BC007708BB00C001E8
:1025C0000408BF004010831B401483100313AB01A9
:1025D0008B1BAB178B1303173E088316C80083129F
:1025E0003D088316C70083123C088316C600831279
:1025F0003B088316C500DB30CC000F30CB004930E0
:10260000CA008030C9000A12831203135F200A1621
:10261000AB1B8B1703173F088400831340188317E5
:102620007A08BE007908BD007808BC007708BB00B6
:102630000313AB018B1BAB178B1303173E088316D9
:10264000C80083123D088316C70083123C08831616
:10265000C60083123B088316C500CC01CB01343081
:10266000CA008630C9000A1283120313A6240A1670
:10267000AB1B8B177A080317BE007908BD007808DA
:10268000BC007708BB000313AB018B1BAB178B138C
:1026900003173E088316C80083123D088316C7003F
:1026A00083123C088316C60083123B088316C500BC
:1026B000DB30CC000F30CB004930CA008030C9007D
:1026C0000A1283120313D8230A16AB1B8B177A083E
:1026D0008316D8007908D7007808D6007708D50087
:1026E00058088312C000831657088312BF00831650
:1026F00056088312BE00831655088312BD00831648
:102700005808DC005708DB005608DA005508D900E5
:10271000023083120317BB00FA30BC000A128A157C
:102720000313C7240A168A110317BB0B8C2B003026
:10273000831603138500E601E50183120317B30135
:102740000A3003130C1EA22B990020300C1EA62B5E
:10275000990031300C1EAA2B990064300317BC007D
:102760000A128A150313C7240A168A1183168612C1
:1027700020308312860603171408643C031DCB2BFC
:10278000F0308D0007308F000A128A150313DC2CFD
:102790000A168A110317310B832C83160313E808DA
:1027A000031DD62B6708633C0318802CE801E70162
:1027B0006E080C3C0318122C83108312AB018B1B88
:1027C000AB178B1383166D080317C80003136C082F
:1027D0000317C70003136B080317C60003136A0827
:1027E0000317C500031341080317CC000313400867
:1027F0000317CB0003133F080317CA0003133E0857
:102800000317C9000A12831203135F200A16AB1BB9
:102810008B177A088316ED007908EC007808EB0036
:102820007708EA00EE0A6E08103C03187C2C83122D
:10283000AB018B1BAB178B1383160317C801C701A2
:102840008030C6007F30C50003136D080317CC002D
:1028500003136C080317CB0003136B080317CA009C
:1028600003136A080317C9000A1283120313A6246C
:102870000A16AB1B8B177A080317BE007908BD0038
:102880007808BC007708BB000313AB018B1BAB17A8
:102890008B1303173E088316C80083123D08831666
:1028A000C70083123C088316C60083123B088316B8
:1028B000C500CC01CB014830CA008730C9000A12DC
:1028C00083120313D8230A16AB1B8B177A0803173E
:1028D0009300790892007808910077089000831699
:1028E0000313ED01EC01EB01EA0183120317B101BF
:1028F00083160313E801E701C101C001BF01BE0156
:10290000EA2D831203178316031333088312031768
:10291000BE0083160313320883120317BD0083160B
:102920000313310883120317BC0083160313300806
:1029300083120317BB000A30BF000A128A15031363
:102940004F2D0A168A1178080317B800230BE82DBB
:10295000A301B9013908033C031CBA2C1430390710
:10296000840083170008633C031DB82C63309F006C
:10297000B90AAA2C1F08633C031DE82D031366083F
:102980000317C600031365080317C5000A128A154A
:10299000031330250A168A117A080317BE00790836
:1029A000BD007808BC007708BB0003136808031754
:1029B000C600031367080317C5000A128A1503131C
:1029C00030250A168A117A080317C2007908C10057
:1029D0007808C0007708BF0003136A080317C60011
:1029E000031369080317C5000A128A15031330255B
:1029F0000A168A117A080317C6007908C5007808F4
:102A0000C4007708C300FD308D000B308F00031029
:102A10000430C7000A128A1503138F270A168A1179
:102A20008930840003173E08CA003D08C9003C08ED
:102A3000C8003B08C7000230CB00031351202430EC
:102A40000C1E202D990020300C1E242D99002430BE
:102A50000C1E282D99008930840003174208CA00F3
:102A60004108C9004008C8003F08C7000230CB0039
:102A70000313512024300C1E3B2D990020300C1ED6
:102A80003F2D990024300C1E432D9900893084007D
:102A900003174608CA004508C9004408C80043088F
:102AA000C7000230CB0003135120053003178D00FF
:102AB0000C308F0003100430C7000A128A1503136C
:102AC0008F270A168A118930840083162F088312F3
:102AD0000317CA00831603132E0883120317C900B5
:102AE000831603132D0883120317C80083160313DC
:102AF0002C0883120317C7000230CB0003135120A8
:102B0000093003178D000C308F0003100430C7000C
:102B10000A128A1503138F270A168A118930840036
:102B20008316230883120317CA008316031322088F
:102B300083120317C9008316031321088312031796
:102B4000C80083160313200883120317C70002303E
:102B5000CB00031351200D3003178D000C308F0074
:102B600003100530C7000A128A1503138F270A16AF
:102B70008A118930840003171308CA001208C9009B
:102B80001108C8001008C7000230CB000313512001
:102B9000113003178D000C308F0003140630C7006E
:102BA0000A128A1503138F270A168A110317B30A0C
:102BB000A00130309F00BA013A08073C031CE82D01
:102BC00014303A078400831730308000BA0ADC2DB5
:102BD0008316031383120317BC012408BB00303093
:102BE0003B02F7003C08FA000030031C0130FA02F7
:102BF0007708BB007A08BC00C0016430BF003C0805
:102C0000C2003B08C1000A128A150313E5270A1601
:102C10008A1179080317BC007808BB00BE0125089B
:102C2000BD0030303D02F7003E08FA000030031CC2
:102C30000130FA027708BD007A08BE00C0010A30F0
:102C4000BF003E08C2003D08C1000A128A150313E6
:102C5000E5270A168A117908FA0078080317BB07D6
:102C600079080318790FBC07FA012608BB077A0810
:102C700003187A0FBC0730303B020313E50003173B
:102C80003C080313E6000030031C0130E602031782
:102C9000BC012708BB0030303B02F7003C08FA00BB
:102CA0000030031C0130FA027708BB007A08BC0030
:102CB000C0016430BF003C08C2003B08C1000A12DA
:102CC0008A150313E5270A168A1179080317BC0031
:102CD0007808BB00BE012808BD0030303D02F70077
:102CE0003E08FA000030031C0130FA027708BD00EC
:102CF0007A08BE00C0010A30BF003E08C2003D088D
:102D0000C1000A128A150313E5270A168A117908E9
:102D1000FA0078080317BB0779080318790FBC0776
:102D2000FA012908BB077A0803187A0FBC0730306C
:102D30003B020313E70003173C080313E8000030CD
:102D4000031C0130E8020317BC012A08BB00303025
:102D50003B02F7003C08FA000030031C0130FA0285
:102D60007708BB007A08BC00C0016430BF003C0893
:102D7000C2003B08C1000A128A150313E5270A1690
:102D80008A1179080317BC007808BB00BE012B0824
:102D9000BD0030303D02F7003E08FA000030031C51
:102DA0000130FA027708BD007A08BE00C0010A307F
:102DB000BF003E08C2003D08C1000A128A15031375
:102DC000E5270A168A117908FA0078080317BB0765
:102DD00079080318790FBC07FA012C08BB077A0899
:102DE00003187A0FBC0730303B020313E9000317C6
:102DF0003C080313EA000030031C0130EA02031709
:042E0000A02B6300A0
:04400E00E22FFF3F5F
:00000001FF
;PIC16F887
;CRC=E4DE  CREATED="15-Dec-18 18:57"
