:1000000010308A0000280000FF00030E8301A100C9
:100010000A08A0008A010408A2007708A300780853
:10002000A4007908A5007A08A600831383128C30F7
:100030008400801E1D288C1A2E2822088400230884
:10004000F7002408F8002508F9002608FA0020081F
:100050008A00210E8300FF0E7F0E09008A110A120A
:10006000312801308316D20083128C1E35281A08DD
:1000700083160317A0002008233C031D4E280313FA
:10008000D50110305507840083170317200880001E
:100090000313D50A0130D600722803172008403C0C
:1000A000031D6228103003135507840083170317BC
:1000B000200880000313560B60280130D100D601C0
:1000C0007228031710300313550784008317031792
:1000D00020088000031355081C3C03187128D50123
:1000E0007228D50A83128C128A110A121D28083030
:1000F000F80000008711A711270883168700000069
:1001000083120317BE0D03130712031C8D28271635
:100110002708831687009128831227122708831641
:10012000870000008312A715270883168700831213
:10013000871D9828F80B792800008711A711270838
:10014000831687000000831227162708831687006E
:10015000000000008312A71527088316870083126A
:10016000871DB028F8010000071A78148711A7111D
:100170002708831687008312071227122708831681
:1001800087008312080027162708831687000000BF
:100190008312A71527088316870000008312071211
:1001A0002712270883168700000083128711A711E2
:1001B000270883168700D03083120317BE0003136D
:1001C000772003173908BE000313772003173A0876
:1001D000BE0003137720271227088316870000002C
:1001E0008312A7152708831687008312871DF62818
:1001F0000000FA2800002716270883168700000051
:100200008312080039308400831700080319162967
:100210000730F800F701F70B0B29F80B0A292A30F1
:10022000F700F70B11291429800B082908006B30FF
:100230000317B9008030BA000313C3200530031739
:10024000B900031302216B300317B900BA0103137D
:10025000C32019300317B9000730BA000313C320B5
:100260001A300317B900BA010313C3201B30031758
:10027000B900BA010313C3201C300317B900BA0137
:100280000313C3206A300317B900BA010313C32054
:100290006B300317B9000130BA000313C3200A30D2
:1002A0000317B900031302218A110A169428083093
:1002B0000317BF007708C00003132716270883160B
:1002C000870000008312A715270883168700831272
:1002D000871D6829071A0314071E0310F80D000074
:1002E000A711270883168700831287110317BF0BF6
:1002F0005C29031327162708831687000000831242
:1003000007120317400803198C2903132712270823
:10031000831687008312031700000313A71527080D
:10032000831687008312871D932900008711A71168
:100330002708831687000000831207122712270858
:1003400083168700831208000317BB01BA01BD01A1
:10035000BC010313271627088316870000008312A9
:10036000A71527088316870000008312071227129B
:10037000270883168700000083128711A71127081A
:1003800083168700D03083120317BE000313772033
:1003900003173908BE000313772027162708831692
:1003A000870000008312A715270883168700000026
:1003B0008312871DD9290712271227088316870061
:1003C000000083128711A711270883168700D130F8
:1003D00083120317BE00031377200130F700572163
:1003E0000317BB017808BA00F7010313572103175D
:1003F000BD017808BC000313271227088316870065
:1004000000008312A7152708831687008312871D13
:10041000072A00000B2A00002716270883168700EA
:10042000000083120317BE013E083C04F7003A089F
:100430003D04FA007708F8007A08F9000313080071
:100440008E30F70003173E08F8003D08F900FA0166
:10045000BE1F2F2AF809F909F90A0319F80AF80842
:10046000031D3C2A7908F800F9010830F702F80862
:10047000031D3C2AF701452A0310F81B432AF90DF6
:10048000F80DF7033C2ABE1FF813031308000317E7
:100490006108E8006508E806E81F532A0311031005
:1004A000E11B0314862A6108E8006408E90060087B
:1004B000E9020319612AE81F862A0308013A83002A
:1004C000862A6508E9006108E90203196D2AE81F18
:1004D000862A0308013A8300862A6608E900620832
:1004E000E9020319792AE81F862A0308013A8300E2
:1004F000862A6708E9006308E9020319852AE81FCC
:10050000862A0308013A8300862A03100313080091
:100510000317640803197B2B831694008312680861
:1005200003197B2B83169402031C9D2A7F309407AA
:10053000031C9C2A83127B2BA72A81309402031868
:10054000A32A83127B2B031DA72A83127B2B14085B
:10055000F700F801F901FA01930183126508831687
:10056000920092178312660883169100831267081F
:10057000831690001930940083126B088316900242
:100580000318D42A013091020318D42A92020318C6
:10059000D42A93020318D42A930A920A910A831246
:1005A0006B0883169007122B83126A088316910238
:1005B0000318F52A013092020318F52A9302031852
:1005C000F52A930A920A83126A0883169107831206
:1005D0006B0883169007031C122B910A031D122B24
:1005E000920A031D122B930A122B8312690880387A
:1005F000831692020318112B013093020318112B5A
:10060000930A8312690880388316920783126A0856
:1006100083169107031CE72A920A031DE72A930A0F
:10062000E72A7A14940B152B202B0310900D910DB3
:10063000920D930D0310FA0DF90DF80D950DBC2ACE
:10064000151C282B0310F80CF90CFA0C950C2C2B0C
:10065000F70B2C2B83127B2B951B5B2B0310900D20
:10066000910D920D930D83126B088316900203185F
:10067000432B013091020318432B92020318432BA2
:100680009302031C6C2B83126A08831691020318D1
:10069000502B013092020318502B9302031C6C2B39
:1006A0008312690880388316920203185B2B01308D
:1006B0009302031C6C2BFA0A031D6C2BF90A031D11
:1006C0006C2BF80A031D6C2BF70A031D692B831290
:1006D0007B2BF80CF90CFA0C831265088316940036
:1006E0008312690883169406941F782BF817802BC1
:1006F000F813802B8312F701F801F901FA01831630
:10070000831203130800031764080319182C8316B7
:100710009000831268080319182C83169007031899
:100720009C2B7F3090020318972B8312182C031DEB
:100730009B2B8312182CA22B81309007031CA22B19
:100740008312182C1008F700F801F901FA0183123E
:100750006508831694009417831266088316930025
:100760008312670883169200183090009101121CC2
:10077000DC2B83126B08FA07031CC72BF90A031D35
:10078000C72BF80A031DC72B8316911783126A081B
:10079000F907031CD12BF80A031DD12B83169117DF
:1007A00083126908E600E6176608F807031CDB2BCE
:1007B0008316911783128316910DF80CF90CFA0C1D
:1007C000940C930C920C0310900BB62B0130F7078E
:1007D000031CEC2B8312182CF81BF62B940DFA0D2E
:1007E000F90DF80DF70BF62B8312182C941F092C1A
:1007F000FA0A031D092CF90A031D092CF80A031D26
:10080000092CF80CF90CFA0CF70A031D092C8312B9
:10081000182C8312650883169100831269088316C9
:100820009106911F152CF8171D2CF8131D2C8312FF
:10083000F701F801F901FA01831683120313080086
:100840008030831C262C0317E90603138316031735
:10085000920193018312650883169100831269083F
:10086000831691068312640803193E2D83169000A7
:10087000F7008312680803194D2D8316900203199F
:10088000D62C031C882C83126908831696009617B1
:1008900083126A088316950083126B0883169400EE
:1008A00093010310960C950C940C930C900B502C08
:1008B000911F5D2C1214662D121010101216673045
:1008C000840083177B2D1212911B702C101C7B2C23
:1008D000960C950C940C930CF70A0319612D7B2C44
:1008E000961B7E2C0310930D940D950D960DF7031A
:1008F0000319612D702C1217FE2C12138312650838
:1009000083169100911F862C96175A2D96135A2DF7
:100910008312680883169000F70083126408831618
:100920009002831265088316960096178312660854
:1009300083169500831267088316940093010310B1
:10094000960C950C940C930C900B9E2C911FAB2C39
:100950009214662D9210101092166B30840083173B
:100960007B2D9212911BBE2C101CC92C960C950C41
:10097000940C930CF70A0319612DC92C961BCC2CEF
:100980000310930D940D950D960DF7030319612D2A
:10099000BE2C9217FE2C92138312690883169100C5
:1009A000911FD42C96175A2D96135A2D831269082D
:1009B00083169600961783126A0883169500831291
:1009C0006B0883169400911FE92C96131215662D5F
:1009D0001211930110106730840083177B2D911B37
:1009E000142D8312650883169100101CFE2C960CA2
:1009F000950C940C930CF70A0319612D931F0F2D7E
:100A0000940A031D0F2D950A031D0F2D960A031D31
:100A10000F2D960C950C940CF70A0319612D121BDF
:100A20007D2C921BCB2C372D80309606961F1E2DC9
:100A3000662D83126908831691002D2D8312650897
:100A4000831691009608031D2D2D9508031D2D2D4D
:100A50009408031D2D2DF7015A2D961B372D0310D9
:100A6000930D940D950D960DF70B2D2D612D911F66
:100A70003B2D96175A2D96135A2D83126808F700AE
:100A800069088316960083126A08831695008312FC
:100A90006B08831694005A2D83126408F7006508CA
:100AA00083169600831266088316950083126708E2
:100AB000831694001608F8001508F9001408FA00C7
:100AC000992DF701F801F901FA01992D9301940983
:100AD000950996099309930A031D742D940A031D21
:100AE000742D950A0319960A12185C2C9218AA2CD8
:100AF0001219E82C192D00089407031C852D950A5E
:100B0000031D852D960A0319101484030008950708
:100B1000031C8D2D960A0319101484030008801FEE
:100B2000803A960703181014121A632C921AB12CEB
:100B3000EF2C83120313080003174D10CE01440855
:100B4000E3004308E2004208E1004108E000E70159
:100B5000E601E501E401031347220318B12D031D4B
:100B6000C82D03174808E3004708E2004608E100E3
:100B70004508E000E701E601E501E401031347222F
:100B80000318C42D031DC62D0330C72D0430DC2DE2
:100B900003174808E3004708E2004608E10045085B
:100BA000E000E701E601E501E40103134722031C2D
:100BB000DB2D0230DC2D01300317CE004408E300AA
:100BC0004308E2004208E1004108E000E701E601D5
:100BD000E501E40103134722031CF42D03174D1410
:100BE0004208803AC200031303174808E30047088D
:100BF000E2004608E1004508E000E701E601E50102
:100C0000E40103134722031C0A2E03174608803A07
:100C1000C600031303174808E3004708E20046082C
:100C2000E1004508E000E701E601E501E401031306
:100C30004722031D442E03174408E3004308E20043
:100C40004208E1004108E000E701E601E501E401B6
:100C5000031347220319432E03174D1C392E7F30EF
:100C6000F700C930F8000F30F900DB30FA00F52E3C
:100C7000422E7F30F7004930F8000F30F900DB30AA
:100C8000FA00F52E0313F42E03174408E700430877
:100C9000E6004208E5004108E4004808EB00470888
:100CA000EA004608E9004508E800031388227A08AC
:100CB0000317CC007908CB007808CA007708C90070
:100CC00001304E02FC3E0318F52E043E0313F72EAE
:100CD00003174C08D2004B08D1004A08D00049083D
:100CE000CF008A15031300208A110317F52EF52E65
:100CF000031303174C08D2004B08D1004A08D00058
:100D00004908CF008A15031300208A110317D00168
:100D10000408CF005010831B50148314DB30E7000D
:100D20000F30E6004930E5008030E4007A08EB003F
:100D30007908EA007808E9007708E800031320241E
:100D400003174F088400831350188317F52EF52ED0
:100D5000031303174C08D2004B08D1004A08D000F7
:100D60004908CF008A15031300208A117A08031757
:100D7000D2007908D1007808D0007708CF00D401DC
:100D80000408D3005410831B541483145208E70042
:100D90005108E6005008E5004F08E400DB30EB00A6
:100DA0000F30EA004930E9008030E80003132024C6
:100DB000031753088400831354188317F52EF52E58
:100DC000031303174C08D2004B08D1004A08D00087
:100DD0004908CF008A15031300208A118030F806D5
:100DE0000317F52EF52E03130317031308000A103B
:100DF0008A140A158207682E792EA92EE12E3A3020
:100E00008400831700080319132F0730F800F70137
:100E1000F70B082FF80B072F2A30F700F70B0E2FD0
:100E2000112F800B052F8A110A16B92983181B2F41
:100E30004E3084008317F701F801F901FA01031716
:100E4000CE01CF01D001D1014D084C044B044A041E
:100E500003195A2F2030D2000310C60DC70DC80D3C
:100E6000C90DCE0DCF0DD00DD10D4D085102031D72
:100E7000432F4C085002031D432F4B084F02031D04
:100E8000432F4A084E02031C542F4A08CE024B0837
:100E9000031C4B0FCF024C08031C4C0FD0024D0813
:100EA000031C4D0FD1020314F70DF80DF90DFA0DC7
:100EB000D20B2C2F4E088000840A4F088000840A31
:100EC00050088000840A5108800003130800103085
:100ED0000317C100F701FA01BE0CBD0C031C762FED
:100EE0003F08F7070318FA0A4008FA07FA0CF70C4C
:100EF000F90CF80CC10B6C2F031308008E30F700AF
:100F000003174E08F8004D08F900FA01F808031D10
:100F1000932F7908F800F9010830F702F808031D4B
:100F2000932FF7019B2F0310F81B9A2FF90DF80D43
:100F3000F703932FF813031308000B1DA22FDC0AED
:100F40000B11A72F01080B1DA82FDC0A0B1101089C
:100F5000F7005C08F800F80CF70CF80CF70CF80C2C
:0C0F6000F70CF80CF70C8A110A16082D8B
:1010000003175F10DF105208D6005108D5005008B2
:10101000D4004F08D3005208E3005108E200500802
:10102000E1004F08E000E701E601E501E4018A1173
:10103000031347228A15031C232803175F1454083F
:10104000803AD40003130317E301E201E1017F308A
:10105000E0005608E7005508E6005408E50053088C
:10106000E4008A11031347228A15031C542803172E
:10107000E701E601E5017F30E4005608EB00550882
:10108000EA005408E9005308E8008A110313882293
:101090008A157A080317D6007908D5007808D40095
:1010A0007708D300DF1403130A300317E7008930F1
:1010B000E6003430E5007C30E4005608EB005508CB
:1010C000EA005408E9005308E8008A110313832357
:1010D0008A157A080317E3007908E2007808E1002E
:1010E0007708E0006308E7006208E6006108E500B1
:1010F0006008E4005608EB005508EA005408E900CF
:101100005308E8008A11031383238A157A0803170A
:10111000E3007908E2007808E1007708E000831036
:101120006308E7006208E6006108E5006008E40083
:101130007C30EB007930EA003530E9008130E8009E
:101140008A11031320248A157A080317DA00790814
:10115000D9007808D8007708D7005A08E70059085E
:10116000E6005808E5005708E4005608EB0055086B
:10117000EA005408E9005308E8008A1103138323A6
:101180008A157A080317E3007908E2007808E1007D
:101190007708E0006308E7006208E6006108E50000
:1011A0006008E4005608EB005508EA005408E9001E
:1011B0005308E8008A11031383238A157A0803175A
:1011C000E3007908E2007808E1007708E000831086
:1011D0006308E7006208E6006108E5006008E400D3
:1011E0003F30EB000230EA003330E9008330E800A2
:1011F0008A11031320248A157A080317DA00790864
:10120000D9007808D8007708D7005A08E7005908AD
:10121000E6005808E5005708E4005608EB005508BA
:10122000EA005408E9005308E8008A1103138323F5
:101230008A157A080317E3007908E2007808E100CC
:101240007708E0006308E7006208E6006108E5004F
:101250006008E4005608EB005508EA005408E9006D
:101260005308E8008A11031383238A157A080317A9
:10127000E3007908E2007808E1007708E0008310D5
:101280006308E7006208E6006108E5006008E40022
:101290003330EB008C30EA001E30E9008330E80088
:1012A0008A11031320248A157A080317DA007908B3
:1012B000D9007808D8007708D700E701E601E501F2
:1012C0007F30E4005608EB005508EA005408E900B6
:1012D0005308E8008A11031383238A157A08031739
:1012E000E3007908E2007808E1007708E00063088D
:1012F000E7006208E6006108E5006008E4005608BF
:10130000EB005508EA005408E9005308E8008A1188
:10131000031383238A157A080317E3007908E20090
:101320007808E1007708E00083106308E7006208AE
:10133000E6006108E5006008E4001B30EB00E430E3
:10134000EA003530E9008230E8008A1103132024D6
:101350008A157A080317DE007908DD007808DC00BA
:101360007708DB005E08E7005D08E6005C08E50042
:101370005B08E4005608EB005508EA005408E90051
:101380005308E8008A11031383238A157A08031788
:10139000E3007908E2007808E1007708E0006308DC
:1013A000E7006208E6006108E5006008E40056080E
:1013B000EB005508EA005408E9005308E8008A11D8
:1013C000031383238A157A080317E3007908E200E0
:1013D0007808E1007708E00083106308E7006208FE
:1013E000E6006108E5006008E400A430EB00DB30B3
:1013F000EA006730E9008330E8008A1103132024F3
:101400008A157A080317DE007908DD007808DC0009
:101410007708DB005E08E7005D08E6005C08E50091
:101420005B08E4005608EB005508EA005408E900A0
:101430005308E8008A11031383238A157A080317D7
:10144000E3007908E2007808E1007708E00063082B
:10145000E7006208E6006108E5006008E40056085D
:10146000EB005508EA005408E9005308E8008A1127
:10147000031383238A157A080317E3007908E2002F
:101480007808E1007708E00083106308E70062084D
:10149000E6006108E5006008E4003330EB008C30C2
:1014A000EA001E30E9008330E8008A11031320248B
:1014B0008A157A080317DE007908DD007808DC0059
:1014C0007708DB005608E7005508E6005408E500F9
:1014D0005308E4005A08EB005908EA005808E900EC
:1014E0005708E8008A11031383238A157A08031723
:1014F000E3007908E2007808E1007708E00063087B
:10150000E7006208E6006108E5006008E4005E08A4
:10151000EB005D08EA005C08E9005B08E8008A115E
:10152000031388228A157A080317DA007908D9008C
:101530007808D8007708D700DF1CBC2A8314DB307A
:10154000E7000F30E6004930E5007F30E4005A083C
:10155000EB005908EA005808E9005708E8008A112A
:10156000031320248A157A080317DA007908D900B2
:101570007808D8007708D7005F1CC12A5808803A3D
:10158000D8005708F7005808F8005908F9005A0819
:10159000FA000313080004080317BE003D08C0004A
:1015A0000319EF2A3C08E7003B08E6003A08E5008B
:1015B0003908E400EB01EA012030E9008230E8005C
:1015C0008A11031383238A157A080317BC0079084C
:1015D000BB007808BA007708B900C00BD22A3C08D3
:1015E000C9003B08C8003A08C7003908C6004608C9
:1015F000B63CC600FA014708CA00C7170310C70C5B
:10160000C80CC90CFA0CF90CF80CF70CC60BFE2A26
:10161000CA1F152BF709F809F909FA09F70A03197E
:10162000F80A0319F90A0319FA0A7A08BC007908BA
:10163000BB007808BA007708B900BC1F2C2BBE038A
:10164000BE16B909BA09BB09BC09B90A0319BA0A15
:101650000319BB0A0319BC0A3B30C5009A30C40009
:10166000CA30C300C2010A30C0003D080319BE0AD7
:1016700083143930840083173C08C9003B08C80034
:101680003A08C7003908C6004508CD004408CC0018
:101690004308CB004208CA008A11031316278A1593
:1016A0007808F708031D6B2B03173D0A4002031D42
:1016B0005B2B03136B2B3E0803196E2B0F39400273
:1016C0000319642B0318AA2BBE1BAA2B3E1B6E2BDF
:1016D0002030A32B031320300317BE05BE1E7F2B23
:1016E000BE123D08031DBE037708BE002D30031354
:1016F0000C1E782B990003173E08F700BE013D0829
:101700004002031D902B7708BE002E3003130C1EE1
:10171000872B990003173E08F7002030BE050030E4
:101720003030BE1EA32BBE123D08031DBE0377083A
:10173000BE002D3003130C1E9B2B990003173E088F
:10174000F700BE013030F707770803130C1EA62BF5
:101750009900031783104508C9004408C8004308CE
:10176000C7004208C600CD01CC01CB010A30CA0037
:101770008A11031316278A157A080317C5007908FA
:10178000C4007808C3007708C200C00B382B0313CD
:1017900008000130F40003173C08E3003B08E200B6
:1017A0003A08E1003908E000E701E601E501E4015B
:1017B0008A11031347228A15031CFF2B0230F40001
:1017C000831403173C08E7003B08E6003A08E500ED
:1017D0003908E400EB01EA017030E9008330E800E9
:1017E0008A11031320248A157A080317BC0079088C
:1017F000BB007808BA007708B9001C2C03138310CB
:1018000003173C08E7003B08E6003A08E500390802
:10181000E400EB01EA017030E9008330E8008A114E
:10182000031320248A157A080317BC007908BB002B
:101830007808BA007708B900E301E2016630E100F8
:101840008630E0007E08E7007D08E6007C08E500C1
:101850007B08E4008A11031347228A1503189A2C87
:1018600003199A2C7E080317E3007D08E2007C0828
:10187000E1007B08E000E701E6010230E500863088
:10188000E4008A11031347228A1503189A2C0319BE
:101890009A2C83147E080317E7007D08E6007C0875
:1018A000E5007B08E40003136F080317EB00031344
:1018B0006E080317EA0003136D080317E90003130A
:1018C0006C080317E8008A11031320248A157A088C
:1018D0000317C3007908C2007808C1007708C00068
:1018E000F7004108F8004208F9004308FA00F8132D
:1018F0004308C3004208C2007808C1007708C0004E
:101900004308E3004208E2004108E1004008E0002B
:10191000E701E601E5017E30E4008A110313472266
:101920008A1503189A2C03199A2C0317BE08031D55
:10193000A12C03130317BC01BB01BA01B90101308B
:10194000F4003908F7003A08F8003B08F9003C08B1
:10195000FA00F8137A08C3007908C2007808C100B9
:101960007708C0008E30F7004008F7024108F90000
:101970004208F800F917F7080319C92C0310F908F1
:10198000031DC52CF8080319C92CF90CF80CF70B2A
:10199000BE2CC11FD02CF809F909F80A0319F90A5D
:1019A0007808BF003908F7003A08F8003B08F9004A
:1019B0003C08FA00F8137A08C3007908C2007808D6
:1019C000C1007708C000E301E2017A30E10086300F
:1019D000E0004308E7004208E6004108E50040084F
:1019E000E4008A11031347228A15031CFC2CFA30E9
:1019F0000317BF002F2D031303173908F7003A0808
:101A0000F8003B08F9003C08FA00F8133C08C30052
:101A10003B08C2007808C1003908C000CE013D086B
:101A2000CD008A1103137E278A1503174308E300AC
:101A30004208E2004108E1004008E0007A08E700BF
:101A40007908E6007808E5007708E4008A110313B6
:101A500047228A15031C302D03173D08BF000313CE
:101A6000750874020319582D831685108312851486
:101A70008316851183128515FA3095009B00740832
:101A8000F5007408023C031D4E2D83168510831249
:101A900085148316851183128515582D740B582DC6
:101AA0008316851083128510831685118312851184
:101AB000740B632D03173F080313950003173F08AA
:101AC00003139B00732D7408023C031D732D031731
:101AD0003F08FA3CC0000313950003173F08FA3C87
:101AE000C00003139B008A110A16022D83140317EA
:101AF0003C08E7003B08E6003A08E5003908E40046
:101B000003136F080317EB0003136E080317EA00B3
:101B100003136D080317E90003136C080317E800AB
:101B20008A11031320248A157A080317C000790844
:101B3000BF007808BE007708BD00031361080317D3
:101B4000CE00031360080317CD008A1103137E270C
:101B50008A157A080317E7007908E6007808E50097
:101B60007708E4004008EB003F08EA003E08E9007F
:101B70003D08E8008A11031383238A158310670840
:101B80000317E700031366080317E600031365084D
:101B90000317E500031364080317E4007A08EB0059
:101BA0007908EA007808E9007708E8008A11031349
:101BB00020248A157A08E7007908E6007808E5000D
:101BC0007708E4000317E301E2017A30E100863090
:101BD000E000031367080317E70003136608031701
:101BE000E600031365080317E500031364080317F1
:101BF000E4008A11031347228A15031C062EE7010D
:101C0000E6017A30E5008630E400232E67080317EA
:101C1000E300031366080317E200031365080317C4
:101C2000E100031364080317E000E701E601E501A2
:101C3000E4018A11031347228A15031C232EE701AE
:101C4000E601E501E401831403173C08E7003B08C3
:101C5000E6003A08E5003908E40083160313270874
:101C600083120317EB00831603132608831203174E
:101C7000EA0083160313250883120317E90083166D
:101C80000313240883120317E8008A110313202486
:101C90008A157A080317C4007908C3007808C200BF
:101CA0007708C1003C0883160313A70083120317AB
:101CB0003B0883160313A600831203173A08831602
:101CC0000313A50083120317390883160313A40016
:101CD00083125F080317CE0003135E080317CD00BD
:101CE0008A1103137E278A157A080317E7007908FB
:101CF000E6007808E5007708E4004008EB003F08BC
:101D0000EA003E08E9003D08E8008A110313832336
:101D10008A157A080317CC007908CB007808CA0026
:101D20007708C9004C08E7004B08E6004A08E500C0
:101D30004908E400EB01EA012030E9008230E800C4
:101D40008A11031388228A157A080317CC007908B0
:101D5000CB007808CA007708C90083104C08E70058
:101D60004B08E6004A08E5004908E400EB01EA01F7
:101D7000E901E8018A11031320248A157A08031760
:101D8000CC007908CB007808CA007708C900031393
:101D900063080317CE00031362080317CD008A11EE
:101DA00003137E278A157A080317E7007908E600EF
:101DB0007808E5007708E4004408EB004308EA00EF
:101DC0004208E9004108E8008A11031383238A15B9
:101DD0007A080317D0007908CF007808CE0077087A
:101DE000CD005008E7004F08E6004E08E5004D081A
:101DF000E400EB01EA017A30E9008830E8008A115A
:101E0000031388228A15831403174C08E7004B0834
:101E1000E6004A08E5004908E4007A08EB00790882
:101E2000EA007808E9007708E8008A110313202403
:101E30008A157A080317C8007908C7007808C60011
:101E40007708C500E301E2017A30E1008630E00066
:101E50004808E7004708E6004608E5004508E400B2
:101E60008A11031347228A15031C3F2F0317C80149
:101E7000C7017A30C6008630C5005B2F03130317F5
:101E80004808E3004708E2004608E1004508E00092
:101E9000E701E601FA30E5008630E4008A11031319
:101EA00047228A15031C5C2F0317C801C701FA30AB
:101EB000C6008630C500031303174508F70046081F
:101EC000F8004708F9004808FA0003138A110A16B7
:021ED0009E2F43
:1020000003081F398300FF30A7001730AB00B7303B
:10201000AA005130A9007330A8001730AF00B730C4
:10202000AE005130AD007230AC006F30B3001230F2
:10203000B2000330B1007630B000B701B601B5018F
:10204000B401BF01BE01BD01BC01C301C201C10198
:10205000C001C701C601C501C401CB01CA01C90144
:10206000C801831603178711023003139900A230A9
:102070009800903083129800DC0183160108C03963
:1020800007388100831281010B11DD01DF01193056
:10209000DE00E101E001E3013230E200CD30EB008F
:1020A0004C30EA003030E9008630E8006B08EF0081
:1020B0006A08EE006908ED006808EC009A30F30049
:1020C0009930F2001930F1007D30F0000130F40059
:1020D000F5008316AB01AA017A30A9008830A80068
:1020E000C701C601F601CB01CA01C901C80101300F
:1020F000CC00D101D201D401D301D501D8016F3078
:10210000D900DA0103170908C039890003131F1227
:102110009F1200300317880083128701880189010C
:1021200083130A12031317290A1601300317AE008E
:10213000353083160313860086128312861201300F
:1021400083169500811383120608F70083165A0838
:102150007706F8007708DA0083120B1083168C16C6
:10216000C03083128B040030F80004389200FA303B
:10217000831692008312A710270883168700831204
:1021800087100C309D0027112708831687008312C3
:1021900007110C30970083169B019C0101309D00B4
:1021A0003D3083120317B9000A120313A4210A1643
:1021B00079088316AF007808AE003F30831203170A
:1021C000B9000A120313A4210A1679088316B10074
:1021D0007808B0002F0883120317BE00831603137C
:1021E0002E0883120317BD000A12031320220A16B9
:1021F0007A080317BC007908BB007808BA00770892
:10220000B90083160313310883120317BE00831627
:102210000313300883120317BD000A120313202290
:102220000A167A080317C0007908BF007808BE00B4
:102230007708BD003C08C4003B08C3003A08C20050
:102240003908C1004008C8003F08C7003E08C60062
:102250003D08C5000A1203139C250A167A080317C5
:10226000BC007908BB007808BA007708B900BE0145
:102270000408BD003E10831B3E1483103C08E70099
:102280003B08E6003A08E5003908E400DB30EB00E3
:102290000F30EA004930E9008030E8000A120313E9
:1022A00020240A1603173D08840083133E18831761
:1022B0007A08BC007908BB007808BA007708B90032
:1022C0003C08E7003B08E6003A08E5003908E4006E
:1022D000EB01EA013430E9008630E8000A1203130A
:1022E00083230A167A080317BC007908BB00780814
:1022F000BA007708B9003C08E7003B08E6003A0856
:10230000E5003908E400DB30EB000F30EA0049302B
:10231000E9008030E8000A12031388220A167A08BE
:102320008316BB007908BA007808B9007708B800AE
:102330003B088312BB0083163A088312BA00831647
:1023400039088312B900831638088312B80083163F
:102350003B08BF003A08BE003908BD003808BC0081
:10236000023083120317B900FA30BA000A120313BD
:10237000FF2E0A160317B90BB42900308316031376
:102380008500831203172E0B792A83160313850108
:102390008312850195019B018316C708031DD4296B
:1023A0004608633C0318762AC701C6014C080C3C5A
:1023B0000318162A83104B0883120317E7008316AD
:1023C00003134A0883120317E60083160313490810
:1023D00083120317E50083160313480883120317BB
:1023E000E400831603132B0883120317EB008316F4
:1023F00003132A0883120317EA008316031329081C
:1024000083120317E90083160313280883120317A6
:10241000E8000A12031320240A167A088316CB0058
:102420007908CA007808C9007708C800CC0A4C08A7
:10243000163C0318722A83120317E701E601803065
:10244000E5007F30E400831603134B088312031763
:10245000EB00831603134A0883120317EA0083165E
:102460000313490883120317E9008316031348086E
:1024700083120317E8000A12031383230A167A084B
:102480000317BC007908BB007808BA007708B900C8
:102490003C08E7003B08E6003A08E5003908E4009C
:1024A000EB01EA017A30E9008830E8000A120313F0
:1024B00088220A167A088316D0007908CF00780897
:1024C000CE007708CD00CB01CA01C901C801831233
:1024D0000317AE0183160313C701C60186128312C8
:1024E00086168316AB01AA01A901A801052D831246
:1024F000031783160313510BD92C86122030831235
:1025000086060C1E812A99003C300C1E852A9900F3
:1025100024300C1E892A9900893084007E08031714
:10252000BC007D08BB007C08BA007B08B900023003
:10253000BD000A128A150313CB220A168A11243011
:102540000C1EA02A990024300C1EA42A9900893060
:1025500084006F080317BC0003136E080317BB0049
:1025600003136D080317BA0003136C080317B900AF
:102570000230BD000A128A150313CB220A168A11F3
:1025800024300C1EC12A990024300C1EC52A990043
:10259000893084008316500883120317BC00831609
:1025A00003134F0883120317BB00831603134E084F
:1025B00083120317BA00831603134D0883120317FF
:1025C000B9000230BD000A128A150313CB220A1685
:1025D0008A1124300C1EEA2A99003E300C1EEE2A85
:1025E000990020300C1EF22A99000317BA01160830
:1025F000B90030303902F7003A08FA000030031C05
:102600000130FA027708B9007A08BA00BE016430D6
:10261000BD003A08C0003908BF000A12031367273B
:102620000A1679080317BA007808B900BC01170820
:10263000BB0030303B02F7003C08FA000030031CBE
:102640000130FA027708BB007A08BC00BE010A30EC
:10265000BD003C08C0003B08BF000A1203136727F7
:102660000A167908FA0078080317B90779080318D9
:10267000790FBA07FA011808B9077A0803187A0F10
:10268000BA07303039020313DE0003173A08031388
:10269000DF000030031C0130DF020317BA01190804
:1026A000B90030303902F7003A08FA000030031C54
:1026B0000130FA027708B9007A08BA00BE01643026
:1026C000BD003A08C0003908BF000A12031367278B
:1026D0000A1679080317BA007808B900BC011A086D
:1026E000BB0030303B02F7003C08FA000030031C0E
:1026F0000130FA027708BB007A08BC00BE010A303C
:10270000BD003C08C0003B08BF000A120313672746
:102710000A167908FA0078080317B9077908031828
:10272000790FBA07FA011B08B9077A0803187A0F5C
:10273000BA07303039020313E00003173A080313D5
:10274000E1000030031C0130E1020317BA011C084C
:10275000B90030303902F7003A08FA000030031CA3
:102760000130FA027708B9007A08BA00BE01643075
:10277000BD003A08C0003908BF000A1203136727DA
:102780000A1679080317BA007808B900BC011D08B9
:10279000BB0030303B02F7003C08FA000030031C5D
:1027A0000130FA027708BB007A08BC00BE010A308B
:1027B000BD003C08C0003B08BF000A120313672796
:1027C0000A167908FA0078080317B9077908031878
:1027D000790FBA07FA011E08B9077A0803187A0FA9
:1027E000BA07303039020313E20003173A08031323
:1027F000E3000030031C0130E3020317BA011F0895
:10280000B90030303902F7003A08FA000030031CF2
:102810000130FA027708B9007A08BA002730BE0002
:102820001030BD003A08C0003908BF000A12031377
:1028300067270A1679080317BA007808B900BC019F
:102840002008BB0030303B02F7003C08FA000030A3
:10285000031C0130FA027708BB007A08BC00033081
:10286000BE00E830BD003C08C0003B08BF000A12B3
:10287000031367270A1678080317B907790803189E
:10288000790FBA07BC012108BB0030303B02F700CA
:102890003C08FA000030031C0130FA027708BB0044
:1028A0007A08BC00BE016430BD003C08C0003B0893
:1028B000BF000A12031367270A1678080317B9071F
:1028C00079080318790FBA07BC012208BB00303021
:1028D0003B02F7003C08FA000030031C0130FA020A
:1028E0007708BB007A08BC00BE010A30BD003C0876
:1028F000C0003B08BF000A12031367270A167908B5
:10290000FA0078080317B90779080318790FBA078E
:10291000FA012308B9077A0803187A0FBA0730308A
:102920003902F7003A08FA000030031C0130FA02BD
:102930007708CD007A08CE000A1203137E270A1604
:102940007A080317B3007908B2007808B100770855
:10295000B0003308E7003208E6003108E50030082F
:10296000E400EB01EA014830E9008530E8000A1292
:10297000031388220A167A08EF007908EE00780817
:10298000ED007708EC000317110883160313D90034
:1029900083120317B40134081D3C031CD62C1030DD
:1029A0003407840083178001B40ACB2C83160313E9
:1029B000D1015908303C031DE42C850183128501A7
:1029C00095019B01042D8316230883120317BC0075
:1029D00083160313220883120317BB008316031305
:1029E000210883120317BA008316031320088312E9
:1029F0000317B9000A30BD000130BE000A128A1563
:102A00000313C92B0A168A1183160A1283129D2FEB
:102A10000A1683165308770283120317B900BA0106
:102A2000831603135408031C540F172D1C2D8312F7
:102A30000317BA028316031383120317BA08031D80
:102A4000252D3908053C0318AB2F3B30B9000A127D
:102A50000313A4210A1679088316AD007808AC0088
:102A60003D3083120317B9000A120313A4210A167A
:102A700079088316AF007808AE003F308312031741
:102A8000B9000A120313A4210A1679088316B100AB
:102A90007808B000433083120317B9000A120313F9
:102AA000A4210A1679088316B3007808B2004530CD
:102AB00083120317B9000A120313A4210A16790816
:102AC0008316B5007808B400473083120317B900A5
:102AD0000A120313A4210A1679088316B70078088E
:102AE000B6002F0883120317BE00831603132E08A7
:102AF00083120317BD000A12031320220A167A0854
:102B00000317BC007908BB007808BA007708B90041
:102B100083160313310883120317BE0083160313B1
:102B2000300883120317BD000A12031320220A166D
:102B30007A080317C0007908BF007808BE0077083C
:102B4000BD003C08C4003B08C3003A08C200390875
:102B5000C1004008C8003F08C7003E08C6003D0845
:102B6000C5000A1203139C250A167A080317BC0035
:102B70007908BB007808BA007708B900BE010408DC
:102B8000BD003E10831B3E1483103C08E7003B0849
:102B9000E6003A08E5003908E400DB30EB000F30CE
:102BA000EA004930E9008030E8000A1203132024CB
:102BB0000A1603173D08840083133E1883177A080A
:102BC000BC007908BB007808BA007708B9003C0857
:102BD000E7003B08E6003A08E5003908E400EB01AD
:102BE000EA013430E9008630E8000A120313832337
:102BF0000A167A080317BC007908BB007808BA00E7
:102C00007708B9003C08E7003B08E6003A08E50011
:102C10003908E400DB30EB000F30EA004930E9000E
:102C20008030E8000A12031388220A167A088316F5
:102C3000BB007908BA007808B9007708B8003308F3
:102C400083120317BE00831603133208831203177F
:102C5000BD000A12031320220A1683107A080317F4
:102C6000E7007908E6007808E5007708E4008316B5
:102C70000313500883120317EB00831603134F0846
:102C800083120317EA00831603134E0883120317F7
:102C9000E900831603134D0883120317E8000A1294
:102CA000031320240A167A080317BC007908BB0016
:102CB0007808BA007708B9003C08E7003B08E6004E
:102CC0003A08E5003908E400EB01EA010330E900C5
:102CD0008630E8000A12031388220A167A080317BE
:102CE000B8007908B7007808B6007708B5008316F1
:102CF0000313330883120317BE008316031332082D
:102D000083120317BD000A12031320220A16831030
:102D100083162B0883120317E700831603132A0870
:102D200083120317E600831603132908831203177F
:102D3000E50083160313280883120317E4007A08BA
:102D4000EB007908EA007808E9007708E8000A1241
:102D5000031320240A167A088316AB007908AA0008
:102D60007808A9007708A800C60A0319C70A8312C1
:102D700003173808E7003708E6003608E50035088D
:102D8000E400EB01EA014030E9008030E8000A127B
:102D9000031383230A167A080317BC007908BB00C3
:102DA0007808BA007708B9003C08E7003B08E6005D
:102DB0003A08E5003908E400EB01EA017A30E9005D
:102DC0008830E8000A12031388220A16831083163B
:102DD0003F0883120317E700831603133E0883128C
:102DE0000317E600831603133D0883120317E5005B
:102DF000831603133C0883120317E4007A08EB00E0
:102E00007908EA007808E9007708E8000A12031355
:102E100020240A167A088316BF007908BE007808B5
:102E2000BD007708BC000A3083120317E700D730D3
:102E3000E6002330E5007930E400831603133B08F5
:102E400083120317EB00831603133A088312031748
:102E5000EA0083160313390883120317E900831667
:102E60000313380883120317E8000A12031383239D
:102E70000A167A080317BC007908BB007808BA0064
:102E80007708B9004830E700E130E6007A30E50025
:102E90007E30E400831603133F0883120317EB0010
:102EA000831603133E0883120317EA0083160313E5
:102EB0003D0883120317E900831603133C088312AD
:102EC0000317E8000A12031383230A16831003175B
:102ED0003C08E7003B08E6003A08E5003908E40052
:102EE0007A08EB007908EA007808E9007708E8003A
:102EF0000A12031320240A167A088316C3007908DD
:102F0000C2007808C1007708C0004308FE004208EC
:102F1000FD004108FC004008FB00831203172E0B44
:102F2000922FAB2F7E08BC007D08BB007C08BA0046
:102F30007B08B9000A128A150313762D0A168A1126
:102F40007A088316A3007908A2007808A100770800
:0A2F5000A00083120317C3296300D9
:04400E00E22FFF3F5F
:00000001FF
;PIC16F887
;CRC=DFE6  CREATED="20-Dec-18 05:37"
