:1000000011308A0012290000FF00030E8301A100B5
:100010000A08A0008A010408A2007708A300780853
:10002000A4007908A5007A08A60003170D08031399
:10003000A70003170F080313A80003170C080313E6
:10004000A90003170E080313AA00831383128B1D44
:100050002B280B1856288C308400801E31288C1ACF
:1000600059288B1E35280B195C2822088400230888
:10007000F7002408F8002508F9002608FA002708E8
:1000800003178D000313280803178F000313290893
:1000900003178C0003132A0803178E00031320088C
:1000A0008A00210E8300FF0E7F0E09008A110A12BA
:1000B000A9298A110A120A2A8A150A12A52980304A
:1000C000831C672883160317C00683120313831645
:1000D0000317C501C6013C08C4004008C4063B081C
:1000E00003195629C300F7003F0803195F29C3020B
:1000F0000319FB28031CB9284008C900C917410887
:10010000C8004208C700C6010310C90CC80CC70CC0
:10011000C60CC30B8328C41F9028451473294510AF
:1001200043104516BE308400831788294512C41B2E
:10013000A328431CAE28C90CC80CC70CC60CF70A70
:1001400003196E29AE28C91BB1280310C60DC70DAF
:10015000C80DC90DF70303196E29A32845171B29DC
:1001600045133C08C400C41FB728C9176729C91321
:1001700067293F08C300F7003B08C3023C08C900D9
:10018000C9173D08C8003E08C700C6010310C90CC6
:10019000C80CC70CC60CC30BC528C41FD228C51475
:1001A0007329C5104310C516C230840083178829EF
:1001B000C512C41BE528431CF028C90CC80CC70C89
:1001C000C60CF70A03196E29F028C91BF32803107F
:1001D000C60DC70DC80DC90DF70303196E29E52813
:1001E000C5171B29C5134008C400C41FF928C91727
:1001F0006729C91367294008C900C9174108C80001
:100200004208C700C41F0829C913451573294511A1
:10021000C6014310BE30840083178829C41B3129CE
:100220003C08C400431C1B29C90CC80CC70CC60CD5
:10023000F70A03196E29C61F2C29C70A031D2C298A
:10024000C80A031D2C29C90A031D2C29C90CC80C76
:10025000C70CF70A03196E29451BB028C51BF228E5
:1002600050298030C906C91F392973294008C400A4
:1002700046293C08C400C908031D4629C808031DB7
:100280004629C708031D4629F7016729C91B5029BC
:100290000310C60DC70DC80DC90DF70B46296E29F1
:1002A000C41F5429C9176729C91367293F08F700D4
:1002B0004008C9004108C8004208C70067293B0838
:1002C000F7003C08C9003D08C8003E08C7004908BF
:1002D000F8004808F9004708FA00A629F701F801D4
:1002E000F901FA01A629C601C709C809C909C60941
:1002F000C60A031D8129C70A031D8129C80A0319DB
:10030000C90A45188F28C518D12845190729362943
:100310000008C707031C9229C80A031D9229C90AAD
:100320000319431484030008C807031C9A29C90A47
:100330000319431484030008801F803AC907031877
:100340004314451A9628C51AD8280E298312031378
:1003500008000608F700031721087706F800770859
:10036000A10078080F3983160313E9006908023CDD
:100370000318DF29831027080317BE00031326087C
:100380000317BD00031325080317BC00031324083B
:100390000317BB00CD30C200CC30C1004C30C000D0
:1003A0007A30BF00831203135F207A088316A700F8
:1003B0007908A6007808A5007708A400052A690B2B
:1003C000052A831427080317BE0003132608031702
:1003D000BD00031325080317BC00031324080317EB
:1003E000BB00CD30C200CC30C1004C30C0007A30F0
:1003F000BF00831203135F207A088316A7007908D1
:10040000A6007808A5007708A40083120B108A11B3
:100410000A1235288C1E0A2A1A088316EF00831246
:100420008C128A110A1235280830F8000000871152
:10043000AC112C088316870000000317950D83125A
:1004400003130712031C2A2A2C162C088316870074
:100450002E2A83122C122C08831687000000831288
:10046000AC152C08831687008312871D352AF80BDC
:10047000162A00008711AC112C0883168700000093
:1004800083122C162C0883168700000000008312AC
:10049000AC152C08831687008312871D4D2AF8019E
:1004A0000000071A78148711AC112C0883168700F6
:1004B000831207122C122C0883168700831208005F
:1004C00008308316031796007708970083120313EA
:1004D0002C162C088316870000008312AC152C08FC
:1004E000831687008312871D732A071A0314071EB9
:1004F0000310F80D0000AC112C088316870083123E
:10050000871183160317960B662A831203132C1682
:100510002C08831687000000831207128316031726
:10052000170803199A2A831203132C122C08831616
:1005300087000317000083120313AC152C088316E1
:1005400087008312871DA22A00008711AC112C0896
:10055000831687000000831207122C122C088316C2
:1005600087008312080083160317920191019401FA
:100570009301831203132C162C08831687000000A6
:100580008312AC152C088316870000008312071213
:100590002C122C0883168700000083128711AC11DF
:1005A0002C0883168700D03003179500831203139D
:1005B00014228316031710089500831203131422C4
:1005C0002C162C088316870000008312AC152C080B
:1005D0008316870000008312871DEC2A07122C1255
:1005E0002C0883168700000083128711AC112C0899
:1005F00083168700D130031795008312031314224A
:100600000130F700602283160317920178089100E9
:10061000F7018312031360228316031794017808ED
:100620009300831203132C122C08831687000000FA
:100630008312AC152C08831687008312871D1E2B8E
:100640000000222B00002C162C08831687000000C7
:100650000317950115081304F70011081404FA0094
:100660007708F8007A08F9008312031308008E3027
:10067000F700831603171508F8001408F900FA01AB
:10068000951F472BF809F909F90A0319F80AF80820
:10069000031D542B7908F800F9010830F702F80817
:1006A000031D542BF7015D2B0310F81B5B2BF90D79
:1006B000F80DF703542B951FF8138312031308004A
:1006C000831603173808BF003C08BF06BF1F6D2BF9
:1006D00003110310B81B0314A02B3808BF003B08FC
:1006E000C0003708C00203197B2BBF1FA02B0308D3
:1006F000013A8300A02B3C08C0003808C00203194F
:10070000872BBF1FA02B0308013A8300A02B3D08B5
:10071000C0003908C0020319932BBF1FA02B030888
:10072000013A8300A02B3E08C0003A08C00203191A
:100730009F2BBF1FA02B0308013A8300A02B03109F
:10074000831203130800831603173B0803196A2C4E
:10075000C7003F0803196A2CC702031CB42B7F3063
:10076000C70703186A2CBA2B8130C702031C6A2CF6
:1007700003196A2C4708F700F801F901FA01C601CC
:100780003C08C500C5173D08C4003E08C300193029
:10079000C7004208C3020318DD2B0130C40203184E
:1007A000DD2BC5020318DD2BC6020318DD2BC60A9C
:1007B000C50AC40A4208C3070F2C4108C402031823
:1007C000F82B0130C5020318F82BC6020318F82BCA
:1007D000C60AC50A4108C4074208C307031C0F2CF8
:1007E000C40A031D0F2CC50A031D0F2CC60A0F2CAB
:1007F00040088038C50203180E2C0130C6020318C9
:100800000E2CC60A40088038C5074108C407031CDF
:10081000EC2BC50A031DEC2BC60AEC2B7A14C70B74
:10082000122C1D2C0310C30DC40DC50DC60D0310D5
:10083000FA0DF90DF80DC80DC92B481C252C031015
:10084000F80CF90CFA0CC80C282CF70303196A2CC5
:10085000C81B512C0310C30DC40DC50DC60D420895
:10086000C30203183D2C0130C40203183D2CC502FD
:1008700003183D2CC602031C602C4108C402031857
:10088000482C0130C5020318482CC602031C602CFA
:1008900040088038C5020318512C0130C602031CE1
:1008A000602CFA0A031D602CF90A031D602CF80A5B
:1008B000031D602CF70A03196A2CF80CF90CFA0CCA
:1008C0003C08C7004008C706C71F682CF8176E2CE5
:1008D000F8136E2CF701F801F901FA0183120313E2
:1008E0000800831603173B080319E32CC3003F08D5
:1008F0000319E32CC3070318842C7F30C302031CA5
:10090000E32C0319E32C882C8130C3070318E32C54
:100910004308F700F801F901FA013C08C700C717BE
:100920003D08C6003E08C5001830C300C401451C80
:10093000B12C4208FA07031CA32CF90A031DA32CAF
:10094000F80A0319C4174108F907031CAA2CF80A6E
:100950000319C4174008BD00BD173D08F807031868
:10096000C417C40DF80CF90CFA0CC70CC60CC50C56
:100970000310C30B962C0130F7070318E32CF81B68
:10098000C82CC70DFA0DF90DF80DF7030319E32C68
:10099000C71FD92CFA0A031DD92CF90A031DD92C1B
:1009A000F80A031DD92CF80CF90CFA0CF70A0319F4
:1009B000E32C3C08C4004008C406C41FE12CF8170F
:1009C000E72CF813E72CF701F801F901FA0183127B
:1009D00003130800831603173610B6102908AD005C
:1009E0002808AC002708AB002608AA002908BA008E
:1009F0002808B9002708B8002608B700BE01BD01C5
:100A0000BC01BB01831203136023031C0F2D83164B
:100A1000031736142B08803AAB0083120313831696
:100A20000317BA01B901B8017F30B7002D08BE0025
:100A30002C08BD002B08BC002A08BB00831203133E
:100A40006023031C422D83160317BE01BD01BC01A8
:100A50007F30BB002D08C2002C08C1002B08C0004D
:100A60002A08BF0083120313A3237A0883160317EF
:100A7000AD007908AC007808AB007708AA00B6147E
:100A8000831203130A3083160317BE008930BD009A
:100A90003430BC007C30BB002D08C2002C08C100E3
:100AA0002B08C0002A08BF008312031371247A08A0
:100AB00083160317BA007908B9007808B8007708D8
:100AC000B7003A08BE003908BD003808BC00370836
:100AD000BB002D08C2002C08C1002B08C0002A084A
:100AE000BF008312031371247A0883160317BA0018
:100AF0007908B9007808B8007708B70083103A0879
:100B0000BE003908BD003808BC003708BB007C3087
:100B1000C2007930C1003530C0008130BF0083127F
:100B200003135F207A0883160317B1007908B00019
:100B30007808AF007708AE003108BE003008BD006D
:100B40002F08BC002E08BB002D08C2002C08C100D5
:100B50002B08C0002A08BF008312031371247A08EF
:100B600083160317BA007908B9007808B800770827
:100B7000B7003A08BE003908BD003808BC00370885
:100B8000BB002D08C2002C08C1002B08C0002A0899
:100B9000BF008312031371247A0883160317BA0067
:100BA0007908B9007808B8007708B70083103A08C8
:100BB000BE003908BD003808BC003708BB003F3014
:100BC000C2000230C1003330C0008330BF00831246
:100BD00003135F207A0883160317B1007908B00069
:100BE0007808AF007708AE003108BE003008BD00BD
:100BF0002F08BC002E08BB002D08C2002C08C10025
:100C00002B08C0002A08BF008312031371247A083E
:100C100083160317BA007908B9007808B800770876
:100C2000B7003A08BE003908BD003808BC003708D4
:100C3000BB002D08C2002C08C1002B08C0002A08E8
:100C4000BF008312031371247A0883160317BA00B6
:100C50007908B9007808B8007708B70083103A0817
:100C6000BE003908BD003808BC003708BB0033306F
:100C7000C2008C30C1001E30C0008330BF00831220
:100C800003135F207A0883160317B1007908B000B8
:100C90007808AF007708AE00BE01BD01BC017F300F
:100CA000BB002D08C2002C08C1002B08C0002A0878
:100CB000BF008312031371247A0883160317BA0046
:100CC0007908B9007808B8007708B7003A08BE007C
:100CD0003908BD003808BC003708BB002D08C20029
:100CE0002C08C1002B08C0002A08BF008312031380
:100CF00071247A0883160317BA007908B9007808B6
:100D0000B8007708B70083103A08BE003908BD0064
:100D10003808BC003708BB001B30C200E430C100FB
:100D20003530C0008230BF00831203135F207A0881
:100D300083160317B5007908B4007808B300770864
:100D4000B2003508BE003408BD003308BC003208CC
:100D5000BB002D08C2002C08C1002B08C0002A08C7
:100D6000BF008312031371247A0883160317BA0095
:100D70007908B9007808B8007708B7003A08BE00CB
:100D80003908BD003808BC003708BB002D08C20078
:100D90002C08C1002B08C0002A08BF0083120313CF
:100DA00071247A0883160317BA007908B900780805
:100DB000B8007708B70083103A08BE003908BD00B4
:100DC0003808BC003708BB00A430C200DB30C100CB
:100DD0006730C0008330BF00831203135F207A089E
:100DE00083160317B5007908B4007808B3007708B4
:100DF000B2003508BE003408BD003308BC0032081C
:100E0000BB002D08C2002C08C1002B08C0002A0816
:100E1000BF008312031371247A0883160317BA00E4
:100E20007908B9007808B8007708B7003A08BE001A
:100E30003908BD003808BC003708BB002D08C200C7
:100E40002C08C1002B08C0002A08BF00831203131E
:100E500071247A0883160317BA007908B900780854
:100E6000B8007708B70083103A08BE003908BD0003
:100E70003808BC003708BB003330C2008C30C100DA
:100E80001E30C0008330BF00831203135F207A0836
:100E900083160317B5007908B4007808B300770803
:100EA000B2002D08BE002C08BD002B08BC002A088B
:100EB000BB003108C2003008C1002F08C0002E0856
:100EC000BF008312031371247A0883160317BA0034
:100ED0007908B9007808B8007708B7003A08BE006A
:100EE0003908BD003808BC003708BB003508C2000F
:100EF0003408C1003308C0003208BF008312031356
:100F0000A3237A0883160317B1007908B000780884
:100F1000AF007708AE00B61CAB2F8314DB30BE00E9
:100F20000F30BD004930BC007F30BB003108C2002B
:100F30003008C1002F08C0002E08BF008312031321
:100F40005F207A0883160317B1007908B00078088B
:100F5000AF007708AE00361CB02F2F08803AAF00E4
:100F60002E08F7002F08F8003008F9003108FA00C1
:100F7000831203130800201E201225332410A4120C
:100F80006612201225332410241025173233241022
:100F900024102517323320122012A0122E196610A9
:100FA0002410201F20002A30840083170008031912
:100FB000E72F0730F800F701F70BDC2FF80BDB2FDA
:100FC0002A30F700F70BE22FE52F800BD92F08000E
:100FD0002B308400831700080319FC2F0730F8001A
:100FE000F701F70BF12FF80BF02F2A30F700F70B72
:0E0FF000F72FFA2F800BEE2F8A110A16472BCF
:10100000831603172410A5011B08BA001A08B9009B
:101010001908B8001808B700BE01BD01BC01BB012A
:101020008A118312031360238A1503181928031DDC
:101030003428831603171F08BA001E08B9001D08BC
:10104000B8001C08B700BE01BD01BC01BB018A117C
:101050008312031360238A1503183028031D3228D6
:101060000330332804304C28831603171F08BA00B6
:101070001E08B9001D08B8001C08B700BE01BD015C
:10108000BC01BB018A118312031360238A15031C60
:101090004B2802304C28013083160317A5001B088B
:1010A000BA001A08B9001908B8001808B700BE013C
:1010B000BD01BC01BB018A118312031360238A1591
:1010C000031C6A288316031724141908803A990010
:1010D00083120313831603171F08BA001E08B900F2
:1010E0001D08B8001C08B700BE01BD01BC01BB0152
:1010F0008A118312031360238A15031C8628831622
:1011000003171D08803A9D008312031383160317EB
:101110001F08BA001E08B9001D08B8001C08B70057
:10112000BE01BD01BC01BB018A1183120313602300
:101130008A15031DCA28831603171B08BA001A084C
:10114000B9001908B8001808B700BE01BD01BC01FC
:10115000BB018A118312031360238A150319C9285E
:1011600083160317241CBE287F30F700C930F8000F
:101170000F30F900DB30FA009A29C7287F30F700DA
:101180004930F8000F30F900DB30FA009A29831259
:1011900003139829831603171B08BE001A08BD0005
:1011A0001908BC001808BB001F08C2001E08C100B7
:1011B0001D08C0001C08BF008A1183120313A3235B
:1011C0008A157A0883160317A3007908A200780805
:1011D000A1007708A00001302502FC3E03189A29DF
:1011E000043E831203139D29831603172308A900C5
:1011F0002208A8002108A7002008A6008A1183124F
:101200000313EA248A15831603179A299A2983124D
:101210000313831603172308A9002208A800210836
:10122000A7002008A6008A1183120313EA248A1556
:1012300083160317A7010408A6002710831B271491
:101240008314DB30BE000F30BD004930BC0080305D
:10125000BB007A08C2007908C1007808C00077088E
:10126000BF008A11831203135F208A1583160317A8
:10127000260884008313271883179A299A29831232
:101280000313831603172308A9002208A8002108C6
:10129000A7002008A6008A1183120313EA248A15E6
:1012A0007A0883160317A9007908A8007808A70010
:1012B0007708A600AB010408AA002B10831B2B148F
:1012C00083142908BE002808BD002708BC00260892
:1012D000BB00DB30C2000F30C1004930C00080309D
:1012E000BF008A11831203135F208A158316031728
:1012F0002A08840083132B1883179A299A298312AA
:101300000313831603172308A9002208A800210845
:10131000A7002008A6008A1183120313EA248A1565
:101320008030F806831603179A299A29831203132B
:10133000831603178312031308000A148A100A1174
:101340008207F4280929412981290130E3003B3033
:101350008316031790008A1183120313B3228A1590
:1013600079088316CA007808C9003D300317900039
:101370008A1183120313B3228A1579088316CC00CD
:101380007808CB003F30031790008A1183120313B3
:10139000B3228A1579088316CE007808CD00433031
:1013A000031790008A1183120313B3228A15790858
:1013B0008316D0007808CF004530031790008A11BB
:1013C00083120313B3228A1579088316D200780892
:1013D000D1004730031790008A1183120313B32200
:1013E0008A1579088316D4007808D3004C080317AF
:1013F000950003134B08031794008A1183120313FB
:1014000037238A157A088316031793007908920008
:10141000780891007708900003134E080317950091
:1014200003134D08031794008A1183120313372303
:101430008A157A08831603179700790896007808AA
:1014400095007708940013089B0012089A00110871
:1014500099001008980017089F0016089E001508AC
:101460009D0014089C008312031300207A08831641
:10147000031793007908920078089100770890008C
:101480009501040894001510831B1514831013088C
:10149000BE001208BD001108BC001008BB00DB3004
:1014A000C2000F30C1004930C0008030BF008A1137
:1014B000831203135F208A15831603171408840010
:1014C0008313151883177A08930079089200780817
:1014D0009100770890001308BE001208BD001108A3
:1014E000BC001008BB00C201C1013430C00086300E
:1014F000BF008A118312031371248A157A08831698
:1015000003179300790892007808910077089000FB
:101510001308BE001208BD001108BC001008BB0073
:10152000DB30C2000F30C1004930C0008030BF0046
:101530008A1183120313A3238A157A088316D8000D
:101540007908D7007808D6007708D5005008031727
:10155000950003134F08031794008A118312031395
:1015600037238A1583107A0883160317BE0079087B
:10157000BD007808BC007708BB00831213088316EF
:10158000C200831212088316C10083121108831649
:10159000C000831210088316BF008A118312031340
:1015A0005F208A157A088316031793007908920042
:1015B00078089100770890001308BE001208BD005B
:1015C0001108BC001008BB00C201C1010330C000FB
:1015D0008630BF008A1183120313A3238A157A0869
:1015E0000317E8007908E7007808E6007708E500C7
:1015F0008316031350080317950003134F080317AE
:1016000094008A118312031337238A1583108316DB
:1016100041080317BE00031340080317BD0003135E
:101620003F080317BC0003133E080317BB007A08EA
:10163000C2007908C1007808C0007708BF008A118D
:10164000831203135F208A157A088316C100790874
:10165000C0007808BF007708BE00E70A0319E80A4F
:101660008312031768088316BE0083126708831667
:10167000BD00831266088316BC00831265088316BA
:10168000BB00C201C1012030C0008230BF008A11FE
:101690008312031371248A157A08831603179300A3
:1016A0007908920078089100770890001308BE002E
:1016B0001208BD001108BC001008BB00C201C10126
:1016C0007A30C0008830BF008A1183120313A3232D
:1016D0008A15831083165C080317BE0003135B088A
:1016E0000317BD0003135A080317BC00031359085E
:1016F0000317BB007A08C2007908C1007808C0004F
:101700007708BF008A11831203135F208A157A08B5
:101710008316DC007908DB007808DA007708D90046
:101720000A300317BE00D730BD002330BC0079302B
:10173000BB00031358080317C2000313570803170D
:10174000C100031356080317C000031355080317FD
:10175000BF008A118312031371248A157A08831635
:101760000317930079089200780891007708900099
:101770004830BE00E130BD007A30BC007E30BB0096
:1017800003135C080317C20003135B080317C100AF
:1017900003135A080317C000031359080317BF00A7
:1017A0008A118312031371248A1583108316031779
:1017B0001308BE001208BD001108BC001008BB00D1
:1017C0007A08C2007908C1007808C0007708BF0015
:1017D0008A11831203135F208A157A088316E400A6
:1017E0007908E3007808E2007708E1006408AF00B8
:1017F0006308AE006208AD006108AC0027308312B8
:1018000081000B118A110A1235282C162C08831618
:10181000870000008312AC152C0883168700000097
:10182000831207122C122C088316870000008312E3
:101830008711AC112C08831687008312AB018B1B18
:10184000AB178B13D0308316031795008A118312C0
:10185000031314228A15AB1B8B17AB018B1BAB1721
:101860008B1303172A08831695008A11831203131A
:1018700014228A15AB1B8B17AB018B1BAB178B1379
:1018800003172B08831695008A1183120313142261
:101890008A15AB1B8B172C122C08831687000000AF
:1018A0008312AC152C08831687008312871D562CD3
:1018B00000005A2C00002C162C088316870000000C
:1018C000831208006B300317AA008030AB000313AB
:1018D000052405300317AA008A110313D3278A159C
:1018E0006B300317AA00AB0103130524193003174B
:1018F000AA000730AB00031305241A300317AA000F
:10190000AB01031305241B300317AA00AB0103131B
:1019100005241C300317AA00AB01031305246A3009
:101920000317AA00AB01031305246B300317AA00A9
:101930000130AB00031305240A300317AA008A11F3
:101940000313D3278A158A110A16B6298E30F70099
:1019500003173508F8003408F900FA01F808031DE8
:10196000BB2C7908F800F9010830F702F808031DCC
:10197000BB2CF701C32C0310F81BC22CF90DF80D7A
:10198000F703BB2CF8130313080001308316B800CB
:101990008312AB018B1BAB178B1303172D08831618
:1019A000BA0083122C088316B90083122B08831601
:1019B000B80083122A088316B700BE01BD01BC011E
:1019C000BB018A118312031360238A15AB1B8B178B
:1019D000031C1B2D02308316B80083148312AB0145
:1019E0008B1BAB178B1303172D088316BE008312B6
:1019F0002C088316BD0083122B088316BC008312AB
:101A00002A088316BB00C201C1017030C0008330B8
:101A1000BF008A11831203135F208A15AB1B8B173B
:101A20007A080317AD007908AC007808AB00770896
:101A3000AA00462D03138310AB018B1BAB178B132E
:101A400003172D088316BE0083122C088316BD00D1
:101A500083122B088316BC0083122A088316BB004E
:101A6000C201C1017030C0008330BF008A118312EF
:101A700003135F208A15AB1B8B177A080317AD0081
:101A80007908AC007808AB007708AA000313AB0113
:101A90008B1BAB178B1383160317BA01B901663082
:101AA000B8008630B70003132F080317BE000313D6
:101AB0002E080317BD0003132D080317BC000313E2
:101AC0002C080317BB008A118312031360238A15A5
:101AD000AB1B8B170318FD2D0319FD2DAB018B1BC1
:101AE000AB178B1383162F080317BA0003132E08A6
:101AF0000317B90003132D080317B80003132C08AC
:101B00000317B700BE01BD010230BC008630BB0028
:101B10008A118312031360238A15AB1B8B170318DA
:101B2000FD2D0319FD2D8314AB018B1BAB178B13FC
:101B300083162F080317BE0003132E080317BD00DA
:101B400003132D080317BC0003132C080317BB0055
:101B5000031327080317C200031326080317C10045
:101B6000031325080317C000031324080317BF003D
:101B70008A11831203135F208A15AB1B8B177A0817
:101B80000317B3007908B2007808B1007708B000F5
:101B9000F7003108F8003208F9003308FA00F813AA
:101BA0007A08B3007908B2007808B1007708B0006D
:101BB0000313AB018B1BAB178B130317330883166F
:101BC000BA00831232088316B900831231088316D3
:101BD000B800831230088316B700BE01BD01BC01F6
:101BE0007E30BB008A118312031360238A15AB1B5E
:101BF0008B170318FD2D031D072E0317AD01AC0134
:101C0000AB01AA01013083160313B8008312031736
:101C10002A08F7002B08F8002C08F9002D08FA0014
:101C2000F8137A08B3007908B2007808B100770891
:101C3000B0008E30F7003008F7023108F9003208A2
:101C4000F800F917F7080319302E0310F908031DDF
:101C50002C2EF8080319302EF90CF80CF70B252E52
:101C6000B11F372EF809F909F80A0319F90A78089B
:101C7000AF002A08F7002B08F8002C08F9002D08FF
:101C8000FA00F8137A08B3007908B2007808B100B6
:101C90007708B0000313AB018B1BAB178B138316B4
:101CA0000317BA01B9017A30B8008630B700831241
:101CB00033088316BE00831232088316BD008312D8
:101CC00031088316BC00831230088316BB008A11CA
:101CD0008312031360238A15AB1B8B17031C752E0D
:101CE000FA300317AF00B42E031303172A08F700C6
:101CF0002B08F8002C08F9002D08FA00F8132D081D
:101D0000B3002C08B2007808B1002A08B000B50171
:101D10002E08B4000313A624AB018B1BAB178B1347
:101D2000031733088316BA00831232088316B900EA
:101D3000831231088316B800831230088316B70067
:101D40007A08BE007908BD007808BC007708BB009F
:101D50008A118312031360238A15AB1B8B17031C94
:101D6000B52E03172E08AF00031383163908380267
:101D70000319DE2E851083128514831685118312B4
:101D80008515FA3095009B0083163808B90038088D
:101D9000023C031DD42E85108312851483168511F1
:101DA00083128515DD2E8316380BDE2E85108312E7
:101DB000851083168511831285118316380BEB2E3F
:101DC000831203172F080313950003172F0803131B
:101DD0009B00FC2E83163808023C031DFD2E831247
:101DE00003172F08FA3CB0000313950003172F08C0
:101DF000FA3CB00003139B008316831203172F08CD
:101E0000F80003138A110A162E2C0B080317B700CB
:101E100003138B13831603178C170C140000000098
:101E20008312B71F162F03138B17031703183E2FA8
:101E30000C087F39B7000D08B8000F08B900370843
:101E400003130C1E212F9900031738088D00390841
:101E50008F0003130B080317BA0003138B138316A9
:101E600003178C170C14000000008312BA1F3B2FBD
:101E700003138B170317B60B3E2F592F0C0D0E0DA6
:101E80007F39B7000D08B8000F08B90037080313F1
:101E90000C1E482F9900031738088D0039088F0051
:101EA0008D0A03198F0A0310B60B572F592F0313EE
:101EB000052F031308008318602F4B30840083170D
:101EC000F701F801F901FA010317CB01CC01CD01AB
:101ED000CE014A0849044804470403199F2F2030C3
:101EE000CF000310C30DC40DC50DC60DCB0DCC0D19
:101EF000CD0DCE0D4A084E02031D882F49084D0214
:101F0000031D882F48084C02031D882F47084B02E9
:101F1000031C992F4708CB024808031C480FCC022A
:101F20004908031C490FCD024A08031C4A0FCE0280
:101F30000314F70DF80DF90DFA0DCF0B712F4B08A7
:101F40008000840A4C088000840A4D088000840ABE
:101F50004E0880000313080010300317B200F70189
:101F6000FA01AF0CAE0C031CBB2F3008F7070318A7
:101F7000FA0A3108FA07FA0CF70CF90CF80CB20B54
:061F8000B12F031308005D
:1020000004080317BB003A08BD0003193428031362
:10201000AB018B1BAB178B13031739088316BE005C
:10202000831238088316BD00831237088316BC005C
:10203000831236088316BB00C201C1012030C000E4
:102040008230BF000A128312031371240A16AB1BDD
:102050008B177A080317B9007908B8007808B70019
:102060007708B600BD0B07283908C6003808C50038
:102070003708C4003608C3004308B63CC300FA0161
:102080004408C700C4170310C40CC50CC60CFA0CD6
:10209000F90CF80CF70CC30B4328C71F5A28F70993
:1020A000F809F909FA09F70A0319F80A0319F90AEC
:1020B0000319FA0A7A08B9007908B8007808B70055
:1020C0007708B600B91F7128BB03BB16B609B7095C
:1020D000B809B909B60A0319B70A0319B80A0319E6
:1020E000B90A3B30C2009A30C100CA30C000BF01FB
:1020F0000A30BD003A080319BB0A83143630840045
:1021000083173908C6003808C5003708C4003608E8
:10211000C3004208CA004108C9004008C8003F087F
:10212000C7000A128A1503135B270A168A1178085A
:10213000F708031DB22803173A0A3D02031DA2281F
:102140000313B2283B080319B5280F393D020319C0
:10215000AB280318F128BB1BF1283B1BB528203006
:10216000EA28031320300317BB05BB1EC628BB1289
:102170003A08031DBB037708BB002D3003130C1E68
:10218000BF28990003173B08F700BB013A083D023E
:10219000031DD7287708BB002E3003130C1ECE2852
:1021A000990003173B08F7002030BB0500303030A2
:1021B000BB1EEA28BB123A08031DBB037708BB000D
:1021C0002D3003130C1EE228990003173B08F7007B
:1021D000BB013030F707770803130C1EED28990078
:1021E000031783104208C6004108C5004008C40018
:1021F0003F08C300CA01C901C8010A30C7000A125A
:102200008A1503135B270A168A117A080317C2007E
:102210007908C1007808C0007708BF00BD0B7D2891
:102220000313080003081F398300FF30AC00173088
:10223000B000B730AF005130AE007330AD00173092
:10224000B400B730B3005130B2007230B1006F301B
:10225000B8001230B7000330B6007630B500BC01CC
:10226000BB01BA01B901C401C301C201C101C80166
:10227000C701C601C501CC01CB01CA01C901D0010A
:10228000CF01CE01CD01831603178711023003134E
:102290009900A2309800903083129800E201E10189
:1022A000B53090008E018F018E010C10E301E40126
:1022B000E6011930E500E801E701EA013230E90002
:1022C000CD308316A3004C30A2003030A100863000
:1022D000A0002308A7002208A6002108A5002008C6
:1022E000A4009A30AB009930AA001930A9007D30C3
:1022F000A8000130B800B900C101C0017A30BF00A8
:102300008830BE00C201C801C701E801E701E90148
:10231000ED01EC01EB01EA010130EE00831203173D
:102320009401A10183160908C039890003131F1203
:102330009F120030031788008312870188018901EA
:102340008313303095003630960030309700980077
:102350003730990030309A009B0038309C00303084
:102360009D009E010A128A150313622C0A168A1117
:1023700001300317A200353083160313860086123E
:10238000831286120130831695008113831206088A
:10239000F700031721087706F8007708A100031358
:1023A0000B108B1683168C16C03083128B040030F2
:1023B000F80004389200FA30831692008312AC10B1
:1023C0002C0883168700831287100C309D002C1177
:1023D0002C0883168700831207110C309700831690
:1023E0009B019C0101309D000108C0390638810025
:1023F000273083128100AB018B1BAB178B133D3051
:102400008316031790000A1283120313B3220A16CD
:10241000AB1B8B1779088316CC007808CB0083128E
:10242000AB018B1BAB178B133F3083160317900048
:102430000A1283120313B3220A16AB1B8B177908F7
:102440008316CE007808CD008312AB018B1BAB172F
:102450008B1383164C080317950003134B080317BF
:1024600094000A128312031337230A16AB1B8B172F
:102470007A080317AD007908AC007808AB0077083C
:10248000AA000313AB018B1BAB178B1383164E08EB
:102490000317950003134D08031794000A128312C3
:1024A000031337230A16AB1B8B177A080317B100E7
:1024B0007908B0007808AF007708AE000313AB01CD
:1024C0008B1BAB178B1303172D0883169B008312EE
:1024D0002C0883169A0083122B0883169900831206
:1024E0002A08831698008312310883169F008312EE
:1024F000300883169E0083122F0883169D008312D6
:102500002E0883169C000A128A15831203130020DA
:102510000A168A11AB1B8B177A080317AD007908CE
:10252000AC007808AB007708AA00AF010408AE0041
:102530002F10831B2F1483100313AB018B1BAB17BE
:102540008B1303172D088316BE0083122C088316E5
:10255000BD0083122B088316BC0083122A08831641
:10256000BB00DB30C2000F30C1004930C0008030FA
:10257000BF000A12831203135F200A16AB1B8B17CE
:1025800003172E08840083132F1883177A08AD00D1
:102590007908AC007808AB007708AA000313AB01F8
:1025A0008B1BAB178B1303172D088316BE008312EA
:1025B0002C088316BD0083122B088316BC008312DF
:1025C0002A088316BB00C201C1013430C000863026
:1025D000BF000A128312031371240A16AB1B8B1758
:1025E0007A080317AD007908AC007808AB007708CB
:1025F000AA000313AB018B1BAB178B1303172D081A
:102600008316BE0083122C088316BD0083122B088C
:102610008316BC0083122A088316BB00DB30C2007D
:102620000F30C1004930C0008030BF000A12831251
:102630000313A3230A16AB1B8B177A088316D80043
:102640007908D7007808D6007708D5005808831293
:10265000C000831657088312BF00831656088312E2
:10266000BE00831655088312BD0083165808DC008F
:102670005708DB005608DA005508D90002308312EB
:102680000317AA00FA30AB000A120313E82F0A1648
:102690000317AA0B422B0030831603138500E601B3
:1026A000E50183120317A401220B102C83160313D8
:1026B000E808031D5F2B6708633C03180D2CE80135
:1026C000E7016E080C3C03189B2B83108312AB01AF
:1026D0008B1BAB178B1383166D080317BE000313F8
:1026E0006C080317BD0003136B080317BC0003132A
:1026F0006A080317BB00031341080317C200031342
:1027000040080317C10003133F080317C000031359
:102710003E080317BF000A12831203135F200A1634
:10272000AB1B8B177A088316ED007908EC0078084C
:10273000EB007708EA00EE0A6E08163C0318092C35
:102740008312AB018B1BAB178B1383160317BE01D0
:10275000BD018030BC007F30BB0003136D08031740
:10276000C20003136C080317C10003136B0803179F
:10277000C00003136A080317BF000A128312031371
:1027800071240A16AB1B8B177A080317AD00790862
:10279000AC007808AB007708AA000313AB018B1BD1
:1027A000AB178B1303172D088316BE0083122C085A
:1027B0008316BD0083122B088316BC0083122A08DF
:1027C0008316BB00C201C1017A30C0008830BF004F
:1027D0000A1283120313A3230A16AB1B8B177A0862
:1027E0000317930079089200780891007708900009
:1027F00083160313ED01EC01EB01EA0183120317C9
:10280000A20183160313E801E701861283128616DC
:102810008316C101C001BF01BE015F2D83120317E2
:1028200083160313330883120317AD0083160313B3
:10283000320883120317AC00831603133108831286
:102840000317AB0083160313300883120317AA0083
:102850000A30AE000A128A150313C52C0A168A1113
:1028600078080317A900831603136F08633C031D40
:102870005F2D831266080317B5000313650803175D
:10288000B4000A128A150313A6240A168A117A08BC
:102890000317AD007908AC007808AB007708AA00F0
:1028A000031368080317B500031367080317B40080
:1028B0000A128A150313A6240A168A117A08031726
:1028C000B1007908B0007808AF007708AE000313B4
:1028D0006A080317B500031369080317B4000A1246
:1028E0008A150313A6240A168A117A080317B5005D
:1028F0007908B4007808B3007708B200BB308D00C7
:1029000007308F0003100430B6000A128A15031333
:1029100005270A168A118930840003172D08B9008B
:102920002C08B8002B08B7002A08B6000230BA00FD
:102930000313002024300C1E9B2C990020300C1E09
:102940009F2C990024300C1EA32C99008930840000
:1029500003173108B9003008B8002F08B7002E0857
:10296000B6000230BA000313002024300C1EB62C2F
:10297000990020300C1EBA2C990024300C1EBE2C5D
:1029800099008930840003173508B9003408B8006D
:102990003308B7003208B6000230BA000313002033
:1029A000C33003178D0007308F0003100430B600CA
:1029B0000A128A15031305270A168A118930840022
:1029C00083162F0883120317B900831603132E08EA
:1029D00083120317B800831603132D0883120317FD
:1029E000B700831603132C0883120317B6000230B6
:1029F000BA0003130020C73003178D0007308F0083
:102A000003100430B6000A128A15031305270A16AC
:102A10008A11893084008316230883120317B900B2
:102A200083160313220883120317B80083160313B7
:102A3000210883120317B70083160313200883129B
:102A40000317B6000230BA0003130020CB3003177F
:102A50008D0007308F0003100530B6000A128A156A
:102A6000031305270A168A118930840003171308F7
:102A7000B9001208B8001108B7001008B6000230FB
:102A8000BA0003130020CF3003178D0007308F00EA
:102A900003140630B6000A128A15031305270A1616
:102AA0008A110317A40A8316031386122030831297
:102AB000860603179401303083160313EF00831248
:102AC0000317AB011508AA0030302A02F7002B08C3
:102AD000FA000030031C0130FA027708AA007A08D5
:102AE000AB00AF016430AE002B08B1002A08B00083
:102AF0000A128A150313AC270A168A1179080317DC
:102B0000AB007808AA00AD011608AC0030302C02EA
:102B1000F7002D08FA000030031C0130FA02770894
:102B2000AC007A08AD00AF010A30AE002D08B1004C
:102B30002C08B0000A128A150313AC270A168A1152
:102B40007908FA0078080317AA0779080318790F9B
:102B5000AB07FA011708AA077A0803187A0FAB0720
:102B600030302A020313E50003172B080313E60095
:102B70000030031C0130E6020317AB011808AA005D
:102B800030302A02F7002B08FA000030031C013015
:102B9000FA027708AA007A08AB00AF016430AE00F1
:102BA0002B08B1002A08B0000A128A150313AC27BB
:102BB0000A168A1179080317AB007808AA00AD013C
:102BC0001908AC0030302C02F7002D08FA00003054
:102BD000031C0130FA027708AC007A08AD00AF019F
:102BE0000A30AE002D08B1002C08B0000A128A1578
:102BF0000313AC270A168A117908FA00780803171C
:102C0000AA0779080318790FAB07FA011A08AA076F
:102C10007A0803187A0FAB0730302A020313E70053
:102C200003172B080313E8000030031C0130E802EF
:102C30000317AB011B08AA0030302A02F7002B084B
:102C4000FA000030031C0130FA027708AA007A0863
:102C5000AB00AF016430AE002B08B1002A08B00011
:102C60000A128A150313AC270A168A11790803176A
:102C7000AB007808AA00AD011C08AC0030302C0273
:102C8000F7002D08FA000030031C0130FA02770823
:102C9000AC007A08AD00AF010A30AE002D08B100DB
:102CA0002C08B0000A128A150313AC270A168A11E1
:102CB0007908FA0078080317AA0779080318790F2A
:102CC000AB07FA011D08AA077A0803187A0FAB07A9
:102CD00030302A020313E90003172B080313EA001C
:0E2CE0000030031C0130EA020317542B63007E
:04400E00E22FFF3F5F
:00000001FF
;PIC16F887
;CRC=0ABD  CREATED="14-Dec-18 16:13"
