:1000000010308A0000280000FF00030E8301A100C9
:100010000A08A0008A010408A2007708A300780853
:10002000A4007908A5007A08A60003170D08031399
:10003000A70003170F080313A80003170C080313E6
:10004000A90003170E080313AA00831383128B1D44
:100050002B280B1852288C308400801E31288C1AD3
:100060005528220884002308F7002408F8002508F2
:10007000F9002608FA00270803178D000313280843
:1000800003178F000313290803178C0003132A0892
:1000900003178E00031320088A00210E8300FF0E31
:1000A0007F0E09008A110A12A2298A110A12F52963
:1000B0008030831C602883160317A906831203135C
:1000C00083160317AE01AF012508AD002908AD0660
:1000D000240803194F29AC00F700280803195829F0
:1000E000AC020319F428031CB2282908B200B21785
:1000F0002A08B1002B08B000AF010310B20CB10CFC
:10010000B00CAF0CAC0B7C28AD1F89282E146C29C9
:100110002E102C102E16A7308400831781292E1242
:10012000AD1B9C282C1CA728B20CB10CB00CAF0C3A
:10013000F70A03196729A728B21BAA280310AF0DD5
:10014000B00DB10DB20DF703031967299C282E17C6
:1001500014292E132508AD00AD1FB028B217602951
:10016000B21360292808AC00F7002408AC02250867
:10017000B200B2172608B1002708B000AF01031083
:10018000B20CB10CB00CAF0CAC0BBE28AD1FCB2821
:10019000AE146C29AE102C10AE16AB308400831751
:1001A0008129AE12AD1BDE282C1CE928B20CB10C43
:1001B000B00CAF0CF70A03196729E928B21BEC2829
:1001C0000310AF0DB00DB10DB20DF7030319672980
:1001D000DE28AE171429AE132908AD00AD1FF22892
:1001E000B2176029B21360292908B200B2172A0891
:1001F000B1002B08B000AD1F0129B2132E156C29D8
:100200002E11AF012C10A730840083178129AD1B5C
:100210002A292508AD002C1C1429B20CB10CB00CF5
:10022000AF0CF70A03196729AF1F2529B00A031D70
:100230002529B10A031D2529B20A031D2529B20C5F
:10024000B10CB00CF70A031967292E1BA928AE1BA5
:10025000EB2849298030B206B21F32296C292908BF
:10026000AD003F292508AD00B208031D3F29B108A4
:10027000031D3F29B008031D3F29F7016029B21B68
:1002800049290310AF0DB00DB10DB20DF70B3F2989
:100290006729AD1F4D29B2176029B21360292808BC
:1002A000F7002908B2002A08B1002B08B000602925
:1002B0002408F7002508B2002608B1002708B0007E
:1002C0003208F8003108F9003008FA009F29F701D8
:1002D000F801F901FA019F29AF01B009B109B2098A
:1002E000AF09AF0A031D7A29B00A031D7A29B10AA2
:1002F0000319B20A2E188828AE18CA282E19002908
:100300002F290008B007031C8B29B10A031D8B2974
:10031000B20A03192C1484030008B107031C9329A3
:10032000B20A03192C1484030008801F803AB20714
:1003300003182C142E1A8F28AE1AD12807298312DD
:10034000031308000608F70083165E087706F80016
:100350007708DE0078080F39CC004C08023C0318FF
:10036000D029831074080317A7007308A600720829
:10037000A5007108A400CD30AB00CC30AA004C30F1
:10038000A9007A30A8008312031358207A08F400D9
:100390007908F3007808F2007708F100EF29831656
:1003A0004C0BF029831474080317A7007308A600E8
:1003B0007208A5007108A400CD30AB00CC30AA00B3
:1003C0004C30A9007A30A8008312031358207A0811
:1003D000F4007908F3007808F2007708F10083163A
:1003E00083120B108A110A12312801308316D700AC
:1003F00083128C1EF9291A0883160317A4002408F7
:10040000233C031D122A0313DA0110305A0784001B
:1004100083170317240880000313DA0A0130DB0076
:10042000362A03172408403C031D262A10300313E4
:100430005A078400831703172408800003135B0BFB
:10044000242A0130D600DB01362A031710300313AB
:100450005A078400831703172408800003135A08DF
:10046000263C0318352ADA01362ADA0A83128C125E
:100470008A110A1231282005201E20122517323336
:100480002410A4122E1966122012251732332410BC
:100490003E1000000830F80000008711AC112C0855
:1004A00083168700000083120317C80D0313071279
:1004B000031C602A2C162C0883168700642A8312DA
:1004C0002C122C088316870000008312AC152C0810
:1004D000831687008312871D6B2AF80B4C2A0000B5
:1004E0008711AC112C0883168700000083122C168C
:1004F0002C0883168700000000008312AC152C081E
:10050000831687008312871D832AF8010000071ACB
:1005100078148711AC112C088316870083120712F8
:100520002C122C0883168700831208002C162C0826
:100530008316870000008312AC152C0883168700F1
:100540000000831207122C122C088316870000006B
:1005500083128711AC112C0883168700D0308312C8
:100560000317C80003134A2203174308C8000313E4
:100570004A2203174408C80003134A222C122C08ED
:100580008316870000008312AC152C0883168700A1
:100590008312871DC92A0000CD2A00002C162C08C2
:1005A00083168700000083120800433084008317FD
:1005B00000080319E92A0730F800F701F70BDE2AD3
:1005C000F80BDD2A2A30F700F70BE42AE72A800B24
:1005D000DB2A08006B300317C3008030C40003130C
:1005E000962205300317C3000313D5226B3003177F
:1005F000C300C4010313962219300317C300073048
:10060000C400031396221A300317C300C401031356
:1006100096221B300317C300C401031396221C301B
:100620000317C300C401031396226A300317C300E3
:10063000C401031396226B300317C3000130C400BA
:10064000031396220A300317C3000313D5228A111D
:100650000A16922808300317C9007708CA00031346
:100660002C162C088316870000008312AC152C086A
:10067000831687008312871D3B2B071A0314071E5E
:100680000310F80D0000AC112C08831687008312AC
:1006900087110317C90B2F2B03132C162C08831655
:1006A000870000008312071203174A0803195F2B03
:1006B00003132C122C0883168700831203170000E3
:1006C0000313AC152C08831687008312871D662B35
:1006D00000008711AC112C088316870000008312DC
:1006E00007122C122C0883168700831208000317A8
:1006F000C501C401C701C60103132C162C088316BB
:10070000870000008312AC152C08831687000000B8
:10071000831207122C122C08831687000000831204
:100720008711AC112C0883168700D0308312031771
:10073000C80003134A2203174308C80003134A22C0
:100740002C162C088316870000008312AC152C0889
:100750008316870000008312871DAC2B07122C1212
:100760002C0883168700000083128711AC112C0817
:1007700083168700D13083120317C80003134A225F
:100780000130F7002A230317C5017808C400F701D8
:1007900003132A230317C7017808C60003132C127A
:1007A0002C088316870000008312AC152C088316D2
:1007B00087008312871DDA2B0000DE2B00002C1629
:1007C0002C0883168700000083120317C80148080D
:1007D0004604F70044084704FA007708F8007A084E
:1007E000F900031308008E30F70003174808F800DB
:1007F0004708F900FA01C81F022CF809F909F90A9B
:100800000319F80AF808031D0F2C7908F800F901FC
:100810000830F702F808031D0F2CF701182C0310FD
:10082000F81B162CF90DF80DF7030F2CC81FF81341
:100830000313080003176B08EE00831611088312D8
:10084000EE06EE1F282C03110310EB1B0314632C80
:100850006B08EE00831610088312EF006A08EF029F
:100860000319382CEE1F632C0308013A8300632C14
:10087000831611088312EF006B08EF020319462C50
:10088000EE1F632C0308013A8300632C83161208C1
:100890008312EF006C08EF020319542CEE1F632C37
:1008A0000308013A8300632C831613088312EF00B8
:1008B0006D08EF020319622CEE1F632C0308013A46
:1008C0008300632C0310031308008316031710081A
:1008D00003192C2D9C00140803192C2D9C02031CB9
:1008E000762C7F309C0703182C2D7C2C81309C02A9
:1008F000031C2C2D03192C2D1C08F700F801F901FD
:10090000FA019B0111089A009A171208990013081E
:10091000980019309C001708980203189F2C01308A
:10092000990203189F2C9A0203189F2C9B0203180C
:100930009F2C9B0A9A0A990A17089807D12C160827
:1009400099020318BA2C01309A020318BA2C9B02A0
:100950000318BA2C9B0A9A0A1608990717089807D1
:10096000031CD12C990A031DD12C9A0A031DD12CEA
:100970009B0AD12C150880389A020318D02C01301C
:100980009B020318D02C9B0A150880389A0716087A
:100990009907031CAE2C9A0A031DAE2C9B0AAE2CA1
:1009A0007A149C0BD42CDF2C0310980D990D9A0D02
:1009B0009B0D0310FA0DF90DF80D9D0D8B2C1D1CD0
:1009C000E72C0310F80CF90CFA0C9D0CEA2CF70339
:1009D00003192C2D9D1B132D0310980D990D9A0DA5
:1009E0009B0D170898020318FF2C01309902031879
:1009F000FF2C9A020318FF2C9B02031C222D1608C1
:100A0000990203180A2D01309A0203180A2D9B023D
:100A1000031C222D150880389A020318132D01306B
:100A20009B02031C222DFA0A031D222DF90A031D25
:100A3000222DF80A031D222DF70A03192C2DF80C7C
:100A4000F90CFA0C11089C0015089C069C1F2A2D15
:100A5000F817302DF813302DF701F801F901FA01DC
:100A60008312031308008316031710080319A52D1A
:100A7000980014080319A52D98070318462D7F30F8
:100A80009802031CA52D0319A52D4A2D8130980726
:100A90000318A52D1808F700F801F901FA0111084B
:100AA0009C009C1712089B0013089A0018309800AD
:100AB00099011A1C732D1708FA07031C652DF90AF2
:100AC000031D652DF80A031999171608F907031C69
:100AD0006C2DF80A0319991715089200921712083D
:100AE000F80703189917990DF80CF90CFA0C9C0CDF
:100AF0009B0C9A0C0310980B582D0130F707031824
:100B0000A52DF81B8A2D9C0DFA0DF90DF80DF70394
:100B10000319A52D9C1F9B2DFA0A031D9B2DF90A75
:100B2000031D9B2DF80A031D9B2DF80CF90CFA0CE4
:100B3000F70A0319A52D1108990015089906991FA0
:100B4000A32DF817A92DF813A92DF701F801F90124
:100B5000FA0183120313080003175710D8014E0837
:100B6000ED004D08EC004C08EB004B08EA00831642
:100B70009301920191019001831203131A24031827
:100B8000C32D031DDC2D03175208ED005108EC00A6
:100B90005008EB004F08EA0083169301920191017F
:100BA0009001831203131A240318D82D031DDA2D84
:100BB0000330DB2D0430F22D03175208ED005108ED
:100BC000EC005008EB004F08EA00831693019201F5
:100BD00091019001831203131A24031CF12D02309A
:100BE000F22D01300317D8004E08ED004D08EC003F
:100BF0004C08EB004B08EA00831693019201910127
:100C00009001831203131A24031C0C2E031757148C
:100C10004C08803ACC00031303175208ED0051082A
:100C2000EC005008EB004F08EA0083169301920194
:100C300091019001831203131A24031C242E03171D
:100C40005008803AD000031303175208ED005108F2
:100C5000EC005008EB004F08EA0083169301920164
:100C600091019001831203131A24031D622E0317AE
:100C70004E08ED004D08EC004C08EB004B08EA0074
:100C800083169301920191019001831203131A2498
:100C90000319612E0317571C572E7F30F700C930F8
:100CA000F8000F30F900DB30FA003D2F602E7F3066
:100CB000F7004930F8000F30F900DB30FA003D2F23
:100CC00003133C2F03174E088316930083124D081D
:100CD0008316920083124C088316910083124B08EE
:100CE00083169000831252088316970083125108CE
:100CF00083169600831250088316950083124F08BE
:100D0000831694008312031365247A080317D60010
:100D10007908D5007808D4007708D300013058024C
:100D2000FC3E03183D2F043E03133F2F03175608C4
:100D3000DC005508DB005408DA005308D9008A1596
:100D4000031300208A1103173D2F3D2F03130317B0
:100D50005608DC005508DB005408DA005308D900B7
:100D60008A15031300208A110317DA010408D90039
:100D70005A10831B5A1483140313AB018B1BAB173C
:100D80008B13DB3083160317A7000F30A600493002
:100D9000A5008030A4007A08AB007908AA00780882
:100DA000A9007708A800831203135820AB1B8B17E8
:100DB00003175908840083135A1883173D2F3D2FBA
:100DC000031303175608DC005508DB005408DA004B
:100DD0005308D9008A15031300208A117A080317D3
:100DE000DC007908DB007808DA007708D900DE013A
:100DF0000408DD005E10831B5E1483140313AB0133
:100E00008B1BAB178B1303175C088316A700831289
:100E10005B088316A60083125A088316A500831266
:100E200059088316A400DB30AB000F30AA0049300C
:100E3000A9008030A800831203135820AB1B8B1726
:100E400003175D08840083135E1883173D2F3D2F21
:100E5000031303175608DC005508DB005408DA00BA
:100E60005308D9008A15031300208A118030F80630
:100E700003173D2F3D2F03130317031308000A1414
:100E80008A140A158207962EA72EE12E292F4430A8
:100E900084008317000803195B2F0730F800F7015F
:100EA000F70B502FF80B4F2F2A30F700F70B562F68
:100EB000592F800B4D2F8A110A16D729103003178E
:100EC000CB00F701FA01C80CC70C031C6D2F4908B1
:100ED000F7070318FA0A4A08FA07FA0CF70CF90C94
:100EE000F80CCB0B632F031308008E30F7000317A9
:100EF0004408F8004308F900FA01F808031D8A2F96
:100F00007908F800F9010830F702F808031D8A2F64
:100F1000F701922F0310F81B912FF90DF80DF7032D
:100F20008A2FF81303138A110A168F2B0B08031745
:100F3000C40003138B13831603178C170C140000C3
:100F400000008312C41FA72F03138B170317031866
:100F5000CF2F0C087F39C4000D08C5000F08C6004C
:100F6000440803130C1EB22F9900031745088D0087
:100F700046088F0003130B080317C70003138B13D6
:100F8000831603178C170C14000000008312C71F70
:100F9000CC2F03138B170317C30BCF2FEA2F0C0D86
:100FA0000E0D7F39C4000D08C5000F08C6004408A7
:100FB00003130C1ED92F9900031745088D0046080E
:100FC0008F008D0A03198F0A0310C30BE82FEA2F35
:080FD0000313962F0313080020
:1010000003176910E9105C08E0005B08DF005A086C
:10101000DE005908DD005C08ED005B08EC005A08B2
:10102000EB005908EA0083169301920191019001A7
:101030008A11831203131A248A15031C2528031707
:1010400069145E08803ADE0003130317ED01EC011A
:10105000EB017F30EA0060088316930083125F087B
:101060008316920083125E088316910083125D0836
:10107000831690008A11831203131A248A15031C05
:101080006828831603179301920191017F30900025
:10109000831260088316970083125F0883169600F8
:1010A00083125E088316950083125D0883169400F0
:1010B0008A118312031365248A157A080317E00046
:1010C0007908DF007808DE007708DD00E9140313F3
:1010D0000A30831603179300893092003430910050
:1010E0007C309000831260088316970083125F089B
:1010F0008316960083125E088316950083125D089E
:10110000831694008A118312031333258A157A08F3
:101110000317ED007908EC007808EB007708EA0087
:101120006D088316930083126C0883169200831255
:101130006B088316910083126A088316900083124D
:1011400060088316970083125F0883169600831247
:101150005E088316950083125D08831694008A1139
:101160008312031333258A157A080317ED007908D3
:10117000EC007808EB007708EA0083100313AB015A
:101180008B1BAB178B1303176D088316A7008312F5
:101190006C088316A60083126B088316A5008312C1
:1011A0006A088316A4007C30AB007930AA00353081
:1011B000A9008130A8008A118312031358208A15D0
:1011C000AB1B8B177A080317E4007908E300780853
:1011D000E2007708E1006408831693008312630835
:1011E00083169200831262088316910083126108AD
:1011F00083169000831260088316970083125F089D
:101200008316960083125E088316950083125D088C
:10121000831694008A118312031333258A157A08E2
:101220000317ED007908EC007808EB007708EA0076
:101230006D088316930083126C0883169200831244
:101240006B088316910083126A088316900083123C
:1012500060088316970083125F0883169600831236
:101260005E088316950083125D08831694008A1128
:101270008312031333258A157A080317ED007908C2
:10128000EC007808EB007708EA0083100313AB0149
:101290008B1BAB178B1303176D088316A7008312E4
:1012A0006C088316A60083126B088316A5008312B0
:1012B0006A088316A4003F30AB000230AA00333026
:1012C000A9008330A8008A118312031358208A15BD
:1012D000AB1B8B177A080317E4007908E300780842
:1012E000E2007708E1006408831693008312630824
:1012F000831692008312620883169100831261089C
:1013000083169000831260088316970083125F088B
:101310008316960083125E088316950083125D087B
:10132000831694008A118312031333258A157A08D1
:101330000317ED007908EC007808EB007708EA0065
:101340006D088316930083126C0883169200831233
:101350006B088316910083126A088316900083122B
:1013600060088316970083125F0883169600831225
:101370005E088316950083125D08831694008A1117
:101380008312031333258A157A080317ED007908B1
:10139000EC007808EB007708EA0083100313AB0138
:1013A0008B1BAB178B1303176D088316A7008312D3
:1013B0006C088316A60083126B088316A50083129F
:1013C0006A088316A4003330AB008C30AA001E30AC
:1013D000A9008330A8008A118312031358208A15AC
:1013E000AB1B8B177A080317E4007908E300780831
:1013F000E2007708E10083169301920191017F30AA
:101400009000831260088316970083125F0883168A
:10141000960083125E088316950083125D0883167A
:1014200094008A118312031333258A157A0803174F
:10143000ED007908EC007808EB007708EA006D0809
:101440008316930083126C088316920083126B0834
:101450008316910083126A08831690008312600835
:101460008316970083125F088316960083125E0826
:101470008316950083125D08831694008A118312E7
:10148000031333258A157A080317ED007908EC0059
:101490007808EB007708EA0083100313AB018B1B7D
:1014A000AB178B1303176D088316A70083126C0804
:1014B0008316A60083126B088316A50083126A08A0
:1014C0008316A4001B30AB00E430AA003530A9001D
:1014D0008230A8008A118312031358208A15AB1B8F
:1014E0008B177A080317E8007908E7007808E60008
:1014F0007708E5006808831693008312670883164F
:101500009200831266088316910083126508831681
:101510009000831260088316970083125F08831679
:10152000960083125E088316950083125D08831669
:1015300094008A118312031333258A157A0803173E
:10154000ED007908EC007808EB007708EA006D08F8
:101550008316930083126C088316920083126B0823
:101560008316910083126A08831690008312600824
:101570008316970083125F088316960083125E0815
:101580008316950083125D08831694008A118312D6
:10159000031333258A157A080317ED007908EC0048
:1015A0007808EB007708EA0083100313AB018B1B6C
:1015B000AB178B1303176D088316A70083126C08F3
:1015C0008316A60083126B088316A50083126A088F
:1015D0008316A400A430AB00DB30AA006730A9005A
:1015E0008330A8008A118312031358208A15AB1B7D
:1015F0008B177A080317E8007908E7007808E600F7
:101600007708E5006808831693008312670883163D
:101610009200831266088316910083126508831670
:101620009000831260088316970083125F08831668
:10163000960083125E088316950083125D08831658
:1016400094008A118312031333258A157A0803172D
:10165000ED007908EC007808EB007708EA006D08E7
:101660008316930083126C088316920083126B0812
:101670008316910083126A08831690008312600813
:101680008316970083125F088316960083125E0804
:101690008316950083125D08831694008A118312C5
:1016A000031333258A157A080317ED007908EC0037
:1016B0007808EB007708EA0083100313AB018B1B5B
:1016C000AB178B1303176D088316A70083126C08E2
:1016D0008316A60083126B088316A50083126A087E
:1016E0008316A4003330AB008C30AA001E30A90052
:1016F0008330A8008A118312031358208A15AB1B6C
:101700008B177A080317E8007908E7007808E600E5
:101710007708E50060088316930083125F0883163C
:10172000920083125E088316910083125D0883166F
:10173000900083126408831697008312630883164F
:10174000960083126208831695008312610883163F
:1017500094008A118312031333258A157A0803171C
:10176000ED007908EC007808EB007708EA006D08D6
:101770008316930083126C088316920083126B0801
:101780008316910083126A088316900083126808FA
:1017900083169700831267088316960083126608E3
:1017A0008316950083126508831694008A118312AC
:1017B000031365248A157A080317E4007908E30007
:1017C0007808E2007708E100E91C162C8314031363
:1017D000AB018B1BAB178B13DB3083160317A700F2
:1017E0000F30A6004930A5007F30A40083126408A2
:1017F0008316AB00831263088316AA008312620863
:101800008316A900831261088316A8008A11831227
:10181000031358208A15AB1B8B177A080317E400B3
:101820007908E3007808E2007708E100691C1B2CC6
:101830006208803AE2006108F7006208F800630875
:10184000F9006408FA000313080083182A2C5830A2
:1018500084008317F701F801F901FA010317D80191
:10186000D901DA01DB015708560455045404031961
:10187000692C2030DC000310D00DD10DD20DD30D1A
:10188000D80DD90DDA0DDB0D57085B02031D522C64
:1018900056085A02031D522C55085902031D522C9A
:1018A00054085802031C632C5408D8025508031C22
:1018B000550FD9025608031C560FDA025708031CAD
:1018C000570FDB020314F70DF80DF90DFA0DDC0BC1
:1018D0003B2C58088000840A59088000840A5A0862
:1018E0008000840A5B0880000313080004080317C3
:1018F000C8004708CA000319A22C460883169300A3
:1019000083124508831692008312440883169100BF
:1019100083124308831690009701960120309500AA
:10192000823094008A118312031333258A157A08B2
:101930000317C6007908C5007808C4007708C300FB
:10194000CA0B7D2C4608D3004508D2004408D100BC
:101950004308D0005008B63CD000FA015108D4002A
:10196000D1170310D10CD20CD30CFA0CF90CF80CD3
:10197000F70CD00BB12CD41FC82CF709F809F909C2
:10198000FA09F70A0319F80A0319F90A0319FA0AF6
:101990007A08C6007908C5007808C4007708C30033
:1019A000C61FDF2CC803C816C309C409C509C60968
:1019B000C30A0319C40A0319C50A0319C60A3B302E
:1019C000CF009A30CE00CA30CD00CC010A30CA0018
:1019D00047080319C80A8314433084008317460854
:1019E000D3004508D2004408D1004308D0004F0876
:1019F000D7004E08D6004D08D5004C08D40003137C
:101A000025247808F708031D1C2D0317470A4A02EE
:101A1000031D0C2D03131C2D480803191F2D0F390E
:101A20004A020319152D03185B2DC81B5B2D481B9B
:101A30001F2D2030542D031320300317C805C81E56
:101A4000302DC8124708031DC8037708C8002D3081
:101A500003130C1E292D990003174808F700C8012D
:101A600047084A02031D412D7708C8002E30031392
:101A70000C1E382D990003174808F7002030C805C0
:101A800000303030C81E542DC8124708031DC8034B
:101A90007708C8002D3003130C1E4C2D9900031736
:101AA0004808F700C8013030F707770803130C1E09
:101AB000572D9900031783104F08D3004E08D2000A
:101AC0004D08D1004C08D000D701D601D5010A300D
:101AD000D400031325247A080317CF007908CE0019
:101AE0007808CD007708CC00CA0BEB2C0313080054
:101AF0000B1D7D2DE10A0B11822D01080B1D832D7D
:101B0000E10A0B110108F7006108F800F80CF70C66
:0E1B1000F80CF70CF80CF70CF80CF70C0800AA
:1020000003081F398300FF30AC001730B000B73031
:10201000AF005130AE007330AD001730B400B730B0
:10202000B3005130B2007230B1006F30B8001230DE
:10203000B7000330B6007630B500BC01BB01BA0171
:10204000B901C401C301C201C101C801C701C60170
:10205000C501CC01CB01CA01C901D001CF01CE011C
:10206000CD01831603178711023003139900A230A4
:102070009800903083129800E10183160108C0395E
:1020800007388100831281010B11E201E40119304C
:10209000E300E601E501E8013230E700CD30F00071
:1020A0004C30EF003030EE008630ED007008F40068
:1020B0006F08F3006E08F2006D08F1009A30FE0020
:1020C0009930FD001930FC007D30FB000130F50037
:1020D000F6008316AF01AE017A30AD008830AC0057
:1020E000CB01CA01CC01D001CF01CE01CD0101301D
:1020F000D100D601D701D901D801DA01DD01DE0115
:1021000003170908C039890003131F129F120030FA
:1021100003178800831287018801890183130A123B
:102120000313EA2A0A1601300317B8003530831664
:1021300003138600861283128612013083169500DF
:10214000811383120608F70083165E087706F800ED
:102150007708DE0083120B1083168C16C0308312B2
:102160008B040030F80004389200FA308316920095
:102170008312AC102C0883168700831287100C3052
:102180009D002C112C0883168700831207110C3038
:10219000970083169B019C0101309D003D30831206
:1021A0000317C3000A12031377230A16790883164C
:1021B000B3007808B2003F3083120317C3000A123D
:1021C000031377230A1679088316B5007808B4003C
:1021D000330883120317C8008316031332088312CF
:1021E0000317C7000A120313F3230A167A0803170A
:1021F000C6007908C5007808C4007708C3008316B4
:102200000313350883120317C80083160313340819
:1022100083120317C7000A120313F3230A167A085E
:102220000317CA007908C9007808C8007708C700F2
:102230004608CE004508CD004408CC004308CB003A
:102240004A08D2004908D1004808D0004708CF000A
:102250000A120313AC250A167A080317C600790878
:10226000C5007808C4007708C300C8010408C70087
:102270004810831B481483100313AB018B1BAB174F
:102280008B13031746088316A7008312450883168D
:10229000A600831244088316A50083124308831600
:1022A000A400DB30AB000F30AA004930A900803019
:1022B000A8000A128312031358200A16AB1B8B17AF
:1022C0000317470884008313481883177A08C60049
:1022D0007908C5007808C4007708C300460883164B
:1022E00093008312450883169200831244088316D4
:1022F00091008312430883169000970196013430B1
:102300009500863094000A128312031333250A16AF
:102310007A080317C6007908C5007808C400770852
:10232000C300460883169300831245088316920063
:102330008312440883169100831243088316900089
:10234000DB3097000F3096004930950080309400C4
:102350000A128312031365240A167A088316BF0033
:102360007908BE007808BD007708BC003F088312DA
:10237000C00083163E088312BF0083163D088312F7
:10238000BE0083163C088312BD0083163F08C300BD
:102390003E08C2003D08C1003C08C0000230831264
:1023A0000317C300FA30C4000A120313472F0A169A
:1023B0000317C30BD2290030831603138500560B75
:1023C000522C86122030831286060317C401160889
:1023D000C30030304302F7004408FA000030031C09
:1023E0000130FA027708C3007A08C400C8016430DB
:1023F000C7004408CA004308C9000A1203135E2735
:102400000A1679080317C4007808C300C601170824
:10241000C50030304502F7004608FA000030031CC2
:102420000130FA027708C5007A08C600C8010A30F0
:10243000C7004608CA004508C9000A1203135E27F0
:102440000A167908FA0078080317C30779080318F1
:10245000790FC407FA011808C3077A0803187A0F1E
:10246000C407303043020313E30003174408031387
:10247000E4000030031C0130E4020317C401190812
:10248000C30030304302F7004408FA000030031C58
:102490000130FA027708C3007A08C400C80164302A
:1024A000C7004408CA004308C9000A1203135E2784
:1024B0000A1679080317C4007808C300C6011A0871
:1024C000C50030304502F7004608FA000030031C12
:1024D0000130FA027708C5007A08C600C8010A3040
:1024E000C7004608CA004508C9000A1203135E2740
:1024F0000A167908FA0078080317C3077908031841
:10250000790FC407FA011B08C3077A0803187A0F6A
:10251000C407303043020313E500031744080313D4
:10252000E6000030031C0130E6020317C4011C085A
:10253000C30030304302F7004408FA000030031CA7
:102540000130FA027708C3007A08C400C801643079
:10255000C7004408CA004308C9000A1203135E27D3
:102560000A1679080317C4007808C300C6011D08BD
:10257000C50030304502F7004608FA000030031C61
:102580000130FA027708C5007A08C600C8010A308F
:10259000C7004608CA004508C9000A1203135E278F
:1025A0000A167908FA0078080317C3077908031890
:1025B000790FC407FA011E08C3077A0803187A0FB7
:1025C000C407303043020313E70003174408031322
:1025D000E8000030031C0130E8020317C4011F08A3
:1025E000C30030304302F7004408FA000030031CF7
:1025F0000130FA027708C3007A08C4002730C80007
:102600001030C7004408CA004308C9000A12031367
:102610005E270A1679080317C4007808C300C601AC
:102620002008C50030304502F7004608FA000030A7
:10263000031C0130FA027708C5007A08C60003308F
:10264000C800E830C7004608CA004508C9000A1299
:1026500003135E270A1678080317C30779080318BF
:10266000790FC407C6012108C50030304502F700C4
:102670004608FA000030031C0130FA027708C50052
:102680007A08C600C8016430C7004608CA00450879
:10269000C9000A1203135E270A1678080317C30736
:1026A00079080318790FC407C6012208C500303025
:1026B0004502F7004608FA000030031C0130FA0218
:1026C0007708C5007A08C600C8010A30C700460866
:1026D000CA004508C9000A1203135E270A167908C2
:1026E000FA0078080317C30779080318790FC4079D
:1026F000FA012308C3077A0803187A0FC407303099
:102700004302F7004408FA000030031C0130FA02CB
:102710007708C3007A08C4000A120313752F0A163B
:102720007A080317BD007908BC007808BB00770859
:10273000BA003D088316930083123C08831692006A
:1027400083123B088316910083123A088316900087
:102750009701960148309500853094000A12831243
:10276000031365240A167A08F4007908F300780840
:10277000F2007708F1000317BE013E08273C031C56
:10278000C82B10303E07840083178001BE0ABD2B82
:1027900083160313D6013B30831203178D000230DA
:1027A0008F0003100630C3000A12031396270A167F
:1027B000893084008316230883120317C60083160A
:1027C0000313220883120317C5008316031321087D
:1027D00083120317C4008316031320088312031700
:1027E000C3000230C7000A128A15031376240A16A2
:1027F0008A1124300C1EFA2B990020300C1EFE2B5F
:10280000990024300C1E022C990089308400740831
:102810000317C6007308C5007208C4007108C3001E
:102820000230C7000A128A15031376240A168A1189
:1028300024300C1E192C990020300C1E1D2C9900E0
:1028400024300C1E212C99008930840083165508F1
:1028500083120317C6008316031354088312031749
:10286000C50083160313530883120317C40083168D
:102870000313520883120317C3000230C7000A1261
:102880008A15031376240A168A11473003178D0020
:1028900002308F0003100430C3000A12031396277E
:1028A0000A16831683120317380BF92C83160313A9
:1028B000CB08031D5F2C4A08633C0318F72CCB019F
:1028C000CA0151080C3C03189B2C83108312AB01E6
:1028D0008B1BAB178B13831650080317A70003132A
:1028E0004F080317A60003134E080317A500031390
:1028F0004D080317A40003132F080317AB0003139D
:102900002E080317AA0003132D080317A9000313A9
:102910002C080317A8000A128312031358200A1662
:10292000AB1B8B177A088316D0007908CF00780884
:10293000CE007708CD00D10A5108163C0318F32CBD
:10294000031793019201803091007F3090000313B0
:1029500050080317970003134F080317960003133B
:102960004E080317950003134D08031794000A122D
:102970008312031333250A167A080317C600790851
:10298000C5007808C4007708C30046088316930082
:10299000831245088316920083124408831691001F
:1029A0008312430883169000970196017A309500B0
:1029B000883094000A128312031365240A167A08D9
:1029C0008316D5007908D4007808D3007708D200A0
:1029D000D001CF01CE01CD0183120317B8018316B8
:1029E0000313CB01CA01AF01AE01AD01AC018312EB
:1029F00003170A128A15031378250A168A118316FB
:102A00005808770283120317C300C4018316031307
:102A10005908031C590F0D2D122D83120317C402E0
:102A20008316031383120317C408031D1B2D4308C9
:102A3000193C0318C92F0A128A15031378250A16A0
:102A40008A118316D9017708D8003B308312031707
:102A5000C3000A12031377230A1679088316B100FC
:102A60007808B0003D3083120317C3000A12031325
:102A700077230A1679088316B3007808B2003F302E
:102A800083120317C3000A12031377230A16790867
:102A90008316B5007808B400433083120317C300CF
:102AA0000A12031377230A1679088316B7007808E9
:102AB000B600453083120317C3000A1203137723AD
:102AC0000A1679088316B9007808B80047308312CF
:102AD0000317C3000A12031377230A167908831613
:102AE000BB007808BA00330883120317C8008316A6
:102AF0000313320883120317C7000A120313F323C8
:102B00000A167A080317C6007908C5007808C400B9
:102B10007708C30083160313350883120317C80010
:102B200083160313340883120317C7000A12031312
:102B3000F3230A167A080317CA007908C90078082F
:102B4000C8007708C7004608CE004508CD004408F5
:102B5000CC004308CB004A08D2004908D1004808FD
:102B6000D0004708CF000A120313AC250A167A08D2
:102B70000317C6007908C5007808C4007708C300A9
:102B8000C8010408C7004810831B481483100313AE
:102B9000AB018B1BAB178B13031746088316A700DB
:102BA000831245088316A600831244088316A500E5
:102BB000831243088316A400DB30AB000F30AA0059
:102BC0004930A9008030A8000A128312031358204C
:102BD0000A16AB1B8B17031747088400831348188A
:102BE00083177A08C6007908C5007808C4007708FA
:102BF000C30046088316930083124508831692008B
:102C000083124408831691008312430883169000B0
:102C10009701960134309500863094000A12831291
:102C2000031333250A167A080317C6007908C5006E
:102C30007808C4007708C3004608831693008312FF
:102C4000450883169200831244088316910083126C
:102C5000430883169000DB3097000F309600493010
:102C60009500803094000A128312031365240A161B
:102C70007A088316BF007908BE007808BD0077087F
:102C8000BC00370883120317C800831603133608E5
:102C900083120317C7000A120313F3230A168310C3
:102CA000AB018B1BAB178B137A0883160317A70096
:102CB0007908A6007808A5007708A4000313550832
:102CC0000317AB00031354080317AA000313530898
:102CD0000317A900031352080317A8000A1283124E
:102CE000031358200A16AB1B8B177A080317C6006C
:102CF0007908C5007808C4007708C3004608831621
:102D000093008312450883169200831244088316A9
:102D100091008312430883169000970196010330B7
:102D20009500863094000A128312031365240A1654
:102D30007A080317C2007908C1007808C000770834
:102D4000BF0083160313370883120317C8008316C6
:102D50000313360883120317C7000A120313F32361
:102D60000A168310AB018B1BAB178B1383162F082E
:102D70000317A70003132E080317A60003132D083B
:102D80000317A50003132C080317A4007A08AB004F
:102D90007908AA007808A9007708A8000A12831207
:102DA000031358200A16AB1B8B177A088316AF0043
:102DB0007908AE007808AD007708AC00CA0A03199C
:102DC000CB0A83120317420883169300831241082B
:102DD00083169200831240088316910083123F08E5
:102DE0008316900097019601203095008230940060
:102DF0000A128312031333250A167A080317C60032
:102E00007908C5007808C4007708C300460883160F
:102E10009300831245088316920083124408831698
:102E200091008312430883169000970196017A302F
:102E30009500883094000A128312031365240A1641
:102E40008310AB018B1BAB178B138316430803173F
:102E5000A700031342080317A60003134108031732
:102E6000A500031340080317A4007A08AB007908F3
:102E7000AA007808A9007708A8000A128312031391
:102E800058200A16AB1B8B177A088316C3007908E3
:102E9000C2007808C1007708C0000A300317930009
:102EA000D7309200233091007930900003133F080F
:102EB0000317970003133E080317960003133D08FA
:102EC0000317950003133C08031794000A1283129A
:102ED000031333250A167A080317C6007908C500BC
:102EE0007808C4007708C300483083169300E130A7
:102EF00092007A3091007E3090000313430803174C
:102F000097000313420803179600031341080317A1
:102F1000950003134008031794000A128312031349
:102F200033250A168310AB018B1BAB178B130317CA
:102F300046088316A700831245088316A60083124D
:102F400044088316A500831243088316A4007A0858
:102F5000AB007908AA007808A9007708A8000A122F
:102F60008312031358200A16AB1B8B177A0883169B
:102F7000C7007908C6007808C5007708C40047086C
:102F8000A3004608A2004508A1004408A00083123F
:0A2F9000031783160313DF29630003
:04400E00E22FFF3F5F
:00000001FF
;PIC16F887
;CRC=B351  CREATED="16-Dec-18 04:32"
