:1000000018308A0000280000FF00030E8301A100C1
:100010000A08A0008A010408A2007708A300780853
:10002000A4007908A5007A08A600831383128B1D0B
:100030001B280B1832288C308400801E21288C1A33
:100040003528220884002308F7002408F800250832
:10005000F9002608FA0020088A00210E8300FF0E0E
:100060007F0E09008A110A1282298A110A12ED29CB
:100070008030831C402883160317A10683120313C4
:1000800083160317A601A7011D08A5002108A506D0
:100090001C0803192F29A400F70020080319382988
:1000A000A4020319D428031C92282108AA00AA1725
:1000B0002208A9002308A800A7010310AA0CA90C74
:1000C000A80CA70CA40B5C28A51F692826144C2992
:1000D0002610241026169F308400831761292612CB
:1000E000A51B7C28241C8728AA0CA90CA80CA70CEB
:1000F000F70A031947298728AA1B8A280310A70D86
:10010000A80DA90DAA0DF703031947297C28261766
:10011000F42826131D08A500A51F9028AA1740291A
:10012000AA1340292008A400F7001C08A4021D08F7
:10013000AA00AA171E08A9001F08A800A7010310FB
:10014000AA0CA90CA80CA70CA40B9E28A51FAB28D1
:10015000A6144C29A6102410A616A33084008317D9
:100160006129A612A51BBE28241CC928AA0CA90C0B
:10017000A80CA70CF70A03194729C928AA1BCC28E1
:100180000310A70DA80DA90DAA0DF7030319472900
:10019000BE28A617F428A6132108A500A51FD2285B
:1001A000AA174029AA1340292108AA00AA17220841
:1001B000A9002308A800A51FE128AA1326154C2989
:1001C0002611A70124109F30840083176129A51BE5
:1001D0000A291D08A500241CF428AA0CA90CA80CA7
:1001E000A70CF70A03194729A71F0529A80A031D09
:1001F0000529A90A031D0529AA0A031D0529AA0C18
:10020000A90CA80CF70A03194729261B8928A61B45
:10021000CB2829298030AA06AA1F12294C29210897
:10022000A5001F291D08A500AA08031D1F29A9084C
:10023000031D1F29A808031D1F29F7014029AA1B18
:1002400029290310A70DA80DA90DAA0DF70B1F2929
:100250004729A51F2D29AA174029AA13402920089C
:10026000F7002108AA002208A9002308A8004029B5
:100270001C08F7001D08AA001E08A9001F08A800F6
:100280002A08F8002908F9002808FA007F29F70150
:10029000F801F901FA017F29A701A809A909AA090A
:1002A000A709A70A031D5A29A80A031D5A29A90A42
:1002B0000319AA0A26186828A618AA282619E028C9
:1002C0000F290008A807031C6B29A90A031D6B2925
:1002D000AA0A0319241484030008A907031C73291C
:1002E000AA0A0319241484030008801F803AAA076D
:1002F00003182414261A6F28A61AB128E728831297
:10030000031308000608F70083165B087706F80059
:100310007708DB0078080F39C8004808023C03184A
:10032000BC298310700803179F00831203136F0802
:10033000831603179E00831203136E088316031798
:100340009D00831203136D08831603179C00CD30A4
:10035000A300CC30A2004C30A1007A30A000831260
:10036000031338207A08F0007908EF007808EE00CF
:100370007708ED00E7298316480BE82983147008F5
:1003800003179F00831203136F08831603179E0041
:10039000831203136E08831603179D008312031341
:1003A0006D08831603179C00CD30A300CC30A2004B
:1003B0004C30A1007A30A0008312031338207A0851
:1003C000F0007908EF007808EE007708ED0083165A
:1003D00083120B108A110A12212801308316D300D0
:1003E00083128C1EF1291A08831603179C001C081F
:1003F000233C031D0A2A0313D6011030560784003C
:10040000831703171C0880000313D60A0130D70096
:100410002E2A03171C08403C031D1E2A103003130C
:1004200056078400831703171C0880000313570B1B
:100430001C2A0130D200D7012E2A031710300313D3
:1004400056078400831703171C08800003135608FF
:100450001C3C03182D2AD6012E2AD60A83128C1290
:100460008A110A1221280830F80000008711A8110B
:10047000280883168700000083120317BE0D03139C
:100480000712031C492A28162808831687004D2ABC
:100490008312281228088316870000008312A815EB
:1004A0002808831687008312871D542AF80B352AE3
:1004B00000008711A8112808831687000000831206
:1004C0002816280883168700000000008312A8154C
:1004D0002808831687008312871D6C2AF801000004
:1004E000071A78148711A811280883168700831229
:1004F000071228122808831687008312080028167E
:1005000028088316870000008312A8152808831680
:10051000870000008312071228122808831687001C
:10052000000083128711A811280883168700D03095
:1005300083120317BE000313332203173908BE00CA
:100540000313332203173A08BE0003133322281281
:1005500028088316870000008312A8152808831630
:1005600087008312871DB22A0000B62A00002816D1
:1005700028088316870000008312080039308400A1
:10058000831700080319D22A0730F800F701F70B88
:10059000C72AF80BC62A2A30F700F70BCD2AD02A33
:1005A000800BC42A08006B300317B9008030BA00F2
:1005B00003137F2205300317B9000313BE226B30EB
:1005C0000317B900BA0103137F2219300317B900CA
:1005D0000730BA0003137F221A300317B900BA019B
:1005E00003137F221B300317B900BA0103137F22C4
:1005F0001C300317B900BA0103137F226A300317B6
:10060000B900BA0103137F226B300317B900013020
:10061000BA0003137F220A300317B9000313BE2266
:100620008A150A16952808300317BF007708C000FE
:100630000313281628088316870000008312A815C4
:100640002808831687008312871D242B071A03149A
:10065000071E0310F80D0000A81128088316870054
:10066000831287110317BF0B182B031328162808B2
:10067000831687000000831207120317400803192E
:10068000482B0313281228088316870083120317A8
:1006900000000313A8152808831687008312871DFE
:1006A0004F2B00008711A81128088316870000002F
:1006B0008312071228122808831687008312080065
:1006C0000317BB01BA01BD01BC010313281628089A
:1006D0008316870000008312A81528088316870058
:1006E00000008312071228122808831687000000D2
:1006F00083128711A811280883168700D03083122F
:100700000317BE000313332203173908BE00031377
:100710003322281628088316870000008312A815A4
:1007200028088316870000008312871D952B071267
:100730002812280883168700000083128711A81149
:10074000280883168700D13083120317BE000313D5
:1007500033220130F70013230317BB017808BA00D6
:10076000F701031313230317BD017808BC0003131B
:10077000281228088316870000008312A81528086D
:10078000831687008312871DC32B0000C72B000030
:100790002816280883168700000083120317BE015D
:1007A0003E083C04F7003A083D04FA007708F800D8
:1007B0007A08F900031308008E30F70003173E088B
:1007C000F8003D08F900FA01BE1FEB2BF809F90902
:1007D000F90A0319F80AF808031DF82B7908F8003C
:1007E000F9010830F702F808031DF82BF701012C76
:1007F0000310F81BFF2BF90DF80DF703F82BBE1FA4
:10080000F8130313080003176108E8006508E806F9
:10081000E81F0F2C03110310E11B0314422C610885
:10082000E8006408E9006008E90203191D2CE81FCC
:10083000422C0308013A8300422C6508E900610854
:10084000E9020319292CE81F422C0308013A83000E
:10085000422C6608E9006208E9020319352CE81FFA
:10086000422C0308013A8300422C6708E900630820
:10087000E9020319412CE81F422C0308013A8300C6
:10088000422C031003130800031764080319372DC3
:1008900083169400831268080319372D8316940277
:1008A000031C592C7F309407031C582C8312372DBE
:1008B000632C8130940203185F2C8312372D031DA3
:1008C000632C8312372D1408F700F801F901FA019F
:1008D00093018312650883169200921783126608AB
:1008E00083169100831267088316900019309400D4
:1008F00083126B08831690020318902C013091022A
:100900000318902C92020318902C93020318902C39
:10091000930A920A910A83126B0883169007CE2CD1
:1009200083126A08831691020318B12C01309202D7
:100930000318B12C93020318B12C930A920A831264
:100940006A088316910783126B0883169007031CAD
:10095000CE2C910A031DCE2C920A031DCE2C930A95
:10096000CE2C831269088038831692020318CD2C8E
:10097000013093020318CD2C930A83126908803842
:100980008316920783126A0883169107031CA32C0F
:10099000920A031DA32C930AA32C7A14940BD12C36
:1009A000DC2C0310900D910D920D930D0310FA0D98
:1009B000F90DF80D950D782C151CE42C0310F80C8E
:1009C000F90CFA0C950CE82CF70BE82C8312372D58
:1009D000951B172D0310900D910D920D930D831201
:1009E0006B08831690020318FF2C01309102031844
:1009F000FF2C92020318FF2C9302031C282D831254
:100A00006A088316910203180C2D01309202031814
:100A10000C2D9302031C282D83126908803883163D
:100A200092020318172D01309302031C282DFA0A95
:100A3000031D282DF90A031D282DF80A031D282D52
:100A4000F70A031D252D8312372DF80CF90CFA0C2B
:100A5000831265088316940083126908831694062E
:100A6000941F342DF8173C2DF8133C2D8312F701F9
:100A7000F801F901FA018316831203130800031722
:100A800064080319D42D8316900083126808031993
:100A9000D42D831690070318582D7F309002031829
:100AA000532D8312D42D031D572D8312D42D5E2D6B
:100AB00081309007031C5E2D8312D42D1008F7009F
:100AC000F801F901FA01831265088316940094175E
:100AD00083126608831693008312670883169200B8
:100AE000183090009101121C982D83126B08FA07A0
:100AF000031C832DF90A031D832DF80A031D832D82
:100B00008316911783126A08F907031C8D2DF80AC2
:100B1000031D8D2D8316911783126908E600E617D1
:100B20006608F807031C972D831691178312831606
:100B3000910DF80CF90CFA0C940C930C920C031018
:100B4000900B722D0130F707031CA82D8312D42DB2
:100B5000F81BB22D940DFA0DF90DF80DF70BB22D0F
:100B60008312D42D941FC52DFA0A031DC52DF90A31
:100B7000031DC52DF80A031DC52DF80CF90CFA0C40
:100B8000F70A031DC52D8312D42D83126508831621
:100B900091008312690883169106911FD12DF817D1
:100BA000D92DF813D92D8312F701F801F901FA01B3
:100BB000831683120313080003174D10CE01440857
:100BC000E3004308E2004208E1004108E000E701D9
:100BD000E601E501E401031303240318F12D031DCD
:100BE000082E03174808E3004708E2004608E10022
:100BF0004508E000E701E601E501E40103130324F1
:100C00000318042E031D062E0330072E04301C2E5D
:100C100003174808E3004708E2004608E1004508DA
:100C2000E000E701E601E501E40103130324031CEE
:100C30001B2E02301C2E01300317CE004408E300A7
:100C40004308E2004208E1004108E000E701E60154
:100C5000E501E40103130324031C342E03174D1490
:100C60004208803AC200031303174808E30047080C
:100C7000E2004608E1004508E000E701E601E50181
:100C8000E40103130324031C4A2E03174608803A89
:100C9000C600031303174808E3004708E2004608AC
:100CA000E1004508E000E701E601E501E401031386
:100CB0000324031D842E03174408E3004308E200C5
:100CC0004208E1004108E000E701E601E501E40136
:100CD000031303240319832E03174D1C792E7F3031
:100CE000F700C930F8000F30F900DB30FA004F2F61
:100CF000822E7F30F7004930F8000F30F900DB30EA
:100D0000FA004F2F03134E2F03174408E700430840
:100D1000E6004208E5004108E4004808EB00470807
:100D2000EA004608E9004508E800031344247A086D
:100D30000317CC007908CB007808CA007708C900EF
:100D400001304E02FC3E03184F2F043E0313512F77
:100D500003174C08D2004B08D1004A08D0004908BC
:100D6000CF008A15031300208A1103174F2F4F2F2E
:100D7000031303174C08D2004B08D1004A08D000D7
:100D80004908CF008A15031300208A110317D001E8
:100D90000408CF005010831B501483140313A701C1
:100DA0008B1BA7178B13DB30831603179F000F30A5
:100DB0009E0049309D0080309C007A08A30079088D
:100DC000A2007808A1007708A0008312031338203E
:100DD000A71B8B1703174F08840083135018831722
:100DE0004F2F4F2F031303174C08D2004B08D1008D
:100DF0004A08D0004908CF008A15031300208A1141
:100E00007A080317D2007908D1007808D000770853
:100E1000CF00D4010408D3005410831B541483144E
:100E20000313A7018B1BA7178B13031752088316F5
:100E30009F008312510883169E0083125008831668
:100E40009D0083124F0883169C00DB30A3000F30F7
:100E5000A2004930A1008030A00083120313382083
:100E6000A71B8B1703175308840083135418831789
:100E70004F2F4F2F031303174C08D2004B08D100FC
:100E80004A08D0004908CF008A15031300208A11B0
:100E90008030F80603174F2F4F2F03130317031348
:100EA00008000A148A140A158207A82EB92EF32EF8
:100EB0003B2F3A3084008317000803196D2F073049
:100EC000F800F701F70B622FF80B612F2A30F700BB
:100ED000F70B682F6B2F800B5F2F8A150A16DC2902
:100EE0008318752F4E3084008317F701F801F9013C
:100EF000FA010317CE01CF01D001D1014D084C04F6
:100F00004B044A040319B42F2030D2000310C60D3D
:100F1000C70DC80DC90DCE0DCF0DD00DD10D4D088B
:100F20005102031D9D2F4C085002031D9D2F4B089D
:100F30004F02031D9D2F4A084E02031CAE2F4A0884
:100F4000CE024B08031C4B0FCF024C08031C4C0F66
:100F5000D0024D08031C4D0FD1020314F70DF80DFC
:100F6000F90DFA0DD20B862F4E088000840A4F0827
:100F70008000840A50088000840A5108800003130E
:100F8000080010300317C100F701FA01BE0CBD0CB8
:100F9000031CD02F3F08F7070318FA0A4008FA0786
:100FA000FA0CF70CF90CF80CC10BC62F0313080050
:100FB0008E30F70003174E08F8004D08F900FA01CB
:100FC000F808031DED2F7908F800F9010830F70241
:100FD000F808031DED2FF701F52F0310F81BF42F70
:0E0FE000F90DF80DF703ED2FF81303130800B9
:1010000003175F10DF105208D6005108D5005008B2
:10101000D4004F08D3005208E3005108E200500802
:10102000E1004F08E000E701E601E501E4018A1173
:10103000031303248A15031C232803175F14540881
:10104000803AD40003130317E301E201E1017F308A
:10105000E0005608E7005508E6005408E50053088C
:10106000E4008A11031303248A15031C5428031770
:10107000E701E601E5017F30E4005608EB00550882
:10108000EA005408E9005308E8008A1103134424D5
:101090008A157A080317D6007908D5007808D40095
:1010A0007708D300DF1403130A300317E7008930F1
:1010B000E6003430E5007C30E4005608EB005508CB
:1010C000EA005408E9005308E8008A1103133F2599
:1010D0008A157A080317E3007908E2007808E1002E
:1010E0007708E0006308E7006208E6006108E500B1
:1010F0006008E4005608EB005508EA005408E900CF
:101100005308E8008A1103133F258A157A0803174C
:10111000E3007908E2007808E1007708E000831036
:101120000313A7018B1BA7178B13031763088316E1
:101130009F008312620883169E0083126108831643
:101140009D008312600883169C007C30A3007930D8
:10115000A2003530A1008130A0008A118312031350
:1011600038208A15A71B8B177A080317DA0079082D
:10117000D9007808D8007708D7005A08E70059083E
:10118000E6005808E5005708E4005608EB0055084B
:10119000EA005408E9005308E8008A1103133F25C8
:1011A0008A157A080317E3007908E2007808E1005D
:1011B0007708E0006308E7006208E6006108E500E0
:1011C0006008E4005608EB005508EA005408E900FE
:1011D0005308E8008A1103133F258A157A0803177C
:1011E000E3007908E2007808E1007708E000831066
:1011F0000313A7018B1BA7178B1303176308831611
:101200009F008312620883169E0083126108831672
:101210009D008312600883169C003F30A3000230BB
:10122000A2003330A1008330A0008A11831203137F
:1012300038208A15A71B8B177A080317DA0079085C
:10124000D9007808D8007708D7005A08E70059086D
:10125000E6005808E5005708E4005608EB0055087A
:10126000EA005408E9005308E8008A1103133F25F7
:101270008A157A080317E3007908E2007808E1008C
:101280007708E0006308E7006208E6006108E5000F
:101290006008E4005608EB005508EA005408E9002D
:1012A0005308E8008A1103133F258A157A080317AB
:1012B000E3007908E2007808E1007708E000831095
:1012C0000313A7018B1BA7178B1303176308831640
:1012D0009F008312620883169E00831261088316A2
:1012E0009D008312600883169C003330A3008C306D
:1012F000A2001E30A1008330A0008A1183120313C4
:1013000038208A15A71B8B177A080317DA0079088B
:10131000D9007808D8007708D700E701E601E50191
:101320007F30E4005608EB005508EA005408E90055
:101330005308E8008A1103133F258A157A0803171A
:10134000E3007908E2007808E1007708E00063082C
:10135000E7006208E6006108E5006008E40056085E
:10136000EB005508EA005408E9005308E8008A1128
:1013700003133F258A157A080317E3007908E20072
:101380007808E1007708E00083100313A7018B1BA6
:10139000A7178B130317630883169F008312620835
:1013A00083169E008312610883169D0083126008D5
:1013B00083169C001B30A300E430A2003530A1004E
:1013C0008230A0008A118312031338208A15A71BCC
:1013D0008B177A080317DE007908DD007808DC0037
:1013E0007708DB005E08E7005D08E6005C08E500C2
:1013F0005B08E4005608EB005508EA005408E900D1
:101400005308E8008A1103133F258A157A08031749
:10141000E3007908E2007808E1007708E00063085B
:10142000E7006208E6006108E5006008E40056088D
:10143000EB005508EA005408E9005308E8008A1157
:1014400003133F258A157A080317E3007908E200A1
:101450007808E1007708E00083100313A7018B1BD5
:10146000A7178B130317630883169F008312620864
:1014700083169E008312610883169D008312600804
:1014800083169C00A430A300DB30A2006730A100CB
:101490008330A0008A118312031338208A15A71BFA
:1014A0008B177A080317DE007908DD007808DC0066
:1014B0007708DB005E08E7005D08E6005C08E500F1
:1014C0005B08E4005608EB005508EA005408E90000
:1014D0005308E8008A1103133F258A157A08031779
:1014E000E3007908E2007808E1007708E00063088B
:1014F000E7006208E6006108E5006008E4005608BD
:10150000EB005508EA005408E9005308E8008A1186
:1015100003133F258A157A080317E3007908E200D0
:101520007808E1007708E00083100313A7018B1B04
:10153000A7178B130317630883169F008312620893
:1015400083169E008312610883169D008312600833
:1015500083169C003330A3008C30A2001E30A10003
:101560008330A0008A118312031338208A15A71B29
:101570008B177A080317DE007908DD007808DC0095
:101580007708DB005608E7005508E6005408E50038
:101590005308E4005A08EB005908EA005808E9002B
:1015A0005708E8008A1103133F258A157A080317A4
:1015B000E3007908E2007808E1007708E0006308BA
:1015C000E7006208E6006108E5006008E4005E08E4
:1015D000EB005D08EA005C08E9005B08E8008A119E
:1015E000031344248A157A080317DA007908D9000E
:1015F0007808D8007708D700DF1C2E2B831403133C
:10160000A7018B1BA7178B13DB30831603179F00D3
:101610000F309E0049309D007F309C0083125A0895
:101620008316A300831259088316A2008312580858
:101630008316A100831257088316A0008A11831213
:10164000031338208A15A71B8B177A080317DA00B3
:101650007908D9007808D8007708D7005F1C332BA9
:101660005808803AD8005708F7005808F800590879
:10167000F9005A08FA000313080004080317BE0013
:101680003D08C0000319612B3C08E7003B08E60059
:101690003A08E5003908E400EB01EA012030E900EE
:1016A0008230E8008A1103133F258A157A08031750
:1016B000BC007908BB007808BA007708B900C00BF5
:1016C000442B3C08C9003B08C8003A08C700390849
:1016D000C6004608B63CC600FA014708CA00C7174C
:1016E0000310C70CC80CC90CFA0CF90CF80CF70C59
:1016F000C60B702BCA1F872BF709F809F909FA09DD
:10170000F70A0319F80A0319F90A0319FA0A7A08F9
:10171000BC007908BB007808BA007708B900BC1F84
:101720009E2BBE03BE16B909BA09BB09BC09B90A8A
:101730000319BA0A0319BB0A0319BC0A3B30C500D6
:101740009A30C400CA30C300C2010A30C0003D084C
:101750000319BE0A83143930840083173C08C9007A
:101760003B08C8003A08C7003908C6004508CD0044
:101770004408CC004308CB004208CA008A11031376
:1017800070278A157808F708031DDD2B03173D0A1B
:101790004002031DCD2B0313DD2B3E080319E02B64
:1017A0000F3940020319D62B03181C2CBE1B1C2C0E
:1017B0003E1BE02B2030152C031320300317BE05F1
:1017C000BE1EF12BBE123D08031DBE037708BE00EE
:1017D0002D3003130C1EEA2B990003173E08F70067
:1017E000BE013D084002031D022C7708BE002E30CA
:1017F00003130C1EF92B990003173E08F700203045
:10180000BE0500303030BE1E152CBE123D08031D33
:10181000BE037708BE002D3003130C1E0D2C99005B
:1018200003173E08F700BE013030F70777080313AF
:101830000C1E182C9900031783104508C900440892
:10184000C8004308C7004208C600CD01CC01CB0147
:101850000A30CA008A11031370278A157A08031701
:10186000C5007908C4007808C3007708C200C00B1F
:10187000AA2B031308000130F50003173C08E3000E
:101880003B08E2003A08E1003908E000E701E60120
:10189000E501E4018A11031303248A15031C7F2C3C
:1018A0000230F5008314A7018B1BA7178B130317B6
:1018B0003C0883169F0083123B0883169E00831208
:1018C0003A0883169D008312390883169C00A301F1
:1018D000A2017030A1008330A0008A11831203138B
:1018E00038208A15A71B8B177A080317BC007908C4
:1018F000BB007808BA007708B900AA2C031383103C
:10190000A7018B1BA7178B1303173C0883169F0097
:1019100083123B0883169E0083123A0883169D00AB
:101920008312390883169C00A301A2017030A10024
:101930008330A0008A118312031338208A15A71B55
:101940008B177A080317BC007908BB007808BA0027
:101950007708B900E301E2016630E1008630E0007B
:101960007E08E7007D08E6007C08E5007B08E400CF
:101970008A11031303248A150318342D0319342DF7
:101980007E080317E3007D08E2007C08E1007B0885
:10199000E000E701E6010230E5008630E4008A114C
:1019A000031303248A150318342D0319342D8314CB
:1019B000A7018B1BA7178B137E08831603179F00A5
:1019C0007D089E007C089D007B089C007008A30099
:1019D000831203136F0883160317A20083120313E5
:1019E0006E0883160317A100831203136D08831674
:1019F0000317A0008A118312031338208A15A71B2E
:101A00008B177A080317C3007908C2007808C10051
:101A10007708C000F7004108F8004208F9004308C1
:101A2000FA00F8134308C3004208C2007808C10056
:101A30007708C0004308E3004208E2004108E100E3
:101A40004008E000E701E601E5017E30E4008A118C
:101A5000031303248A150318342D0319342D031797
:101A6000BE08031D3B2D03130317BC01BB01BA01C4
:101A7000B9010130F5003908F7003A08F8003B08D1
:101A8000F9003C08FA00F8137A08C3007908C2008C
:101A90007808C1007708C0008E30F7004008F702D0
:101AA0004108F9004208F800F917F7080319632DF7
:101AB0000310F908031D5F2DF8080319632DF90CB5
:101AC000F80CF70B582DC11F6A2DF809F909F80A0F
:101AD0000319F90A7808BF003908F7003A08F80036
:101AE0003B08F9003C08FA00F8137A08C3007908AB
:101AF000C2007808C1007708C000E301E2017A3033
:101B0000E1008630E0004308E7004208E6004108B3
:101B1000E5004008E4008A11031303248A15031C1E
:101B2000962DFA300317BF00C92D03130317390888
:101B3000F7003A08F8003B08F9003C08FA00F813EF
:101B40003C08C3003B08C2007808C1003908C00047
:101B5000CE013D08CD008A110313D8278A1503173B
:101B60004308E3004208E2004108E1004008E000C9
:101B70007A08E7007908E6007808E5007708E400CD
:101B80008A11031303248A15031CCA2D03173D0869
:101B9000BF000313760875020319F22D8316851012
:101BA000831285148316851183128515FA309500EA
:101BB0009B007508F6007508023C031DE82D83168E
:101BC0008510831285148316851183128515F22DD5
:101BD000750BF22D831685108312851083168511DF
:101BE00083128511750BFD2D03173F080313950014
:101BF00003173F0803139B000D2E7508023C031DBD
:101C00000D2E03173F08FA3CC0000313950003177D
:101C10003F08FA3CC00003139B008A150A16DE2C0D
:101C20000B1D152EDD0A0B111A2E01080B1D1B2E84
:101C3000DD0A0B110108F7005D08F800F80CF70C3D
:101C4000F80CF70CF80CF70CF80CF70C8A150A16C0
:021C5000E32C83
:102000008314A7018B1BA7178B1303173C08831698
:102010009F0083123B0883169E0083123A088316A2
:102020009D008312390883169C007008A300831258
:1020300003136F0883160317A200831203136E089D
:1020400083160317A100831203136D088316031769
:10205000A0000A128312031338200A16A71B8B173D
:102060007A080317C0007908BF007808BE00770817
:10207000BD00031362080317CE00031361080317A2
:10208000CD000A120313D8270A167A080317E700AF
:102090007908E6007808E5007708E4004008EB00DE
:1020A0003F08EA003E08E9003D08E8000A12031371
:1020B0003F250A168310A7018B1BA7178B136808EF
:1020C000831603179F0083120313670883160317F1
:1020D0009E00831203136608831603179D00831264
:1020E00003136508831603179C007A08A300790878
:1020F000A2007808A1007708A0000A128312031337
:1021000038200A16A71B8B177A08E8007908E70021
:102110007808E6007708E5000317E301E2017A306A
:10212000E1008630E000031368080317E70003139B
:1021300067080317E600031366080317E500031397
:1021400065080317E4000A12031303240A16031C8C
:10215000B028E801E7017A30E6008630E500CD28B6
:1021600068080317E300031367080317E20003136B
:1021700066080317E100031365080317E000E70191
:10218000E601E501E4010A12031303240A16031C05
:10219000CD28E801E701E601E5018314A7018B1BC7
:1021A000A7178B1303173C0883169F0083123B0865
:1021B00083169E0083123A0883169D008312390805
:1021C00083169C00031327080317A3000313260894
:1021D0000317A200031325080317A1000313240803
:1021E0000317A0000A128312031338200A16A71B34
:1021F0008B177A080317C4007908C3007808C20057
:102200007708C1003C0883160313A7008312031745
:102210003B0883160313A600831203173A0883169C
:102220000313A50083120317390883160313A400B0
:10223000831260080317CE0003135F080317CD0055
:102240000A120313D8270A167A080317E700790839
:10225000E6007808E5007708E4004008EB003F0856
:10226000EA003E08E9003D08E8000A1203133F2592
:102270000A167A080317CC007908CB007808CA0040
:102280007708C9004C08E7004B08E6004A08E5005B
:102290004908E400EB01EA012030E9008230E8005F
:1022A0000A12031344240A167A080317CC0079088B
:1022B000CB007808CA007708C90083100313A70170
:1022C0008B1BA7178B1303174C0883169F008312D1
:1022D0004B0883169E0083124A0883169D008312C2
:1022E000490883169C00A301A201A101A0010A12C2
:1022F0008312031338200A16A71B8B177A080317BB
:10230000CC007908CB007808CA007708C90003130D
:1023100064080317CE00031363080317CD000A12E5
:102320000313D8270A167A080317E7007908E6008E
:102330007808E5007708E4004408EB004308EA0069
:102340004208E9004108E8000A1203133F250A1673
:102350007A080317D0007908CF007808CE007708F4
:10236000CD005008E7004F08E6004E08E5004D0894
:10237000E400EB01EA017A30E9008830E8000A1253
:10238000031344240A168314A7018B1BA7178B136E
:1023900003174C0883169F0083124B0883169E0078
:1023A00083124A0883169D008312490883169C00F5
:1023B0007A08A3007908A2007808A1007708A00095
:1023C0000A128312031338200A16A71B8B177A08E8
:1023D0000317C8007908C7007808C6007708C50049
:1023E000E301E2017A30E1008630E0004808E700CE
:1023F0004708E6004608E5004508E4000A12031312
:1024000003240A16031C0D2A0317C801C7017A30DA
:10241000C6008630C500292A031303174808E300C5
:102420004708E2004608E1004508E000E701E60150
:10243000FA30E5008630E4000A12031303240A167A
:10244000031C2A2A0317C801C701FA30C6008630C8
:10245000C500031303174508F7004608F8004708AE
:0E246000F9004808FA0003138A150A16C42F63
:1030000003081F398300FF30A8001730AC00B73029
:10301000AB005130AA007330A9001730B000B730B0
:10302000AF005130AE007230AD006F30B4001230DE
:10303000B3000330B2007630B100B801B701B60179
:10304000B501C001BF01BE01BD01C401C301C20180
:10305000C101C801C701C601C501CC01CB01CA012C
:10306000C901831603178711023003139900A23098
:103070009800903083129800DD0183160108C03952
:1030800007388100831281010B11DE01E001193044
:10309000DF00E201E101E4013230E300CD30EC0079
:1030A0004C30EB003030EA008630E9006C08F0006C
:1030B0006B08EF006A08EE006908ED009A30F40032
:1030C0009930F3001930F2007D30F1000130F50045
:1030D000F6008316AB01AA017A30A9008830A80057
:1030E000C701C601C801CC01CB01CA01C901013029
:1030F000CD00D201D301D501D401D601D9016F3061
:10310000DA00DB0103170908C039890003131F1215
:103110009F120030031788008312870188018901FC
:1031200083130A128A110313D32A0A168A1501304F
:103130000317AE0035308316031386008612831200
:103140008612013083169500811383120608F7005A
:1031500083165B087706F8007708DB0083120B10F4
:1031600083168C16C03083128B040030F8000438AC
:103170009200FA30831692008312A8102808831652
:103180008700831287100C309D00281128088316B1
:103190008700831207110C30970083169B019C0156
:1031A00001309D003D3083120317B9000A128A11C5
:1031B000031360230A168A1579088316AF0078086E
:1031C000AE003F3083120317B9000A128A110313AD
:1031D00060230A168A1579088316B1007808B000B2
:1031E0002F0883120317BE00831603132E088312C1
:1031F0000317BD000A128A110313DC230A168A156D
:103200007A080317BC007908BB007808BA00770871
:10321000B90083160313310883120317BE00831607
:103220000313300883120317BD000A128A11031317
:10323000DC230A168A157A080317C0007908BF0034
:103240007808BE007708BD003C08C4003B08C300F6
:103250003A08C2003908C1004008C8003F08C7004A
:103260003E08C6003D08C5000A128A110313DC257A
:103270000A168A157A080317BC007908BB0078087B
:10328000BA007708B900BE010408BD003E10831BD8
:103290003E1483100313A7018B1BA7178B1303176F
:1032A0003C0883169F0083123B0883169E008312FE
:1032B0003A0883169D008312390883169C00DB3080
:1032C000A3000F30A2004930A1008030A0000A12F4
:1032D0008A118312031338200A168A15A71B8B172D
:1032E00003173D08840083133E1883177A08BC0037
:1032F0007908BB007808BA007708B9003C08E700F5
:103300003B08E6003A08E5003908E400EB01EA0171
:103310003430E9008630E8000A128A1103133F2591
:103320000A168A157A080317BC007908BB007808CA
:10333000BA007708B9003C08E7003B08E6003A0805
:10334000E5003908E400DB30EB000F30EA004930DB
:10335000E9008030E8000A128A11031344240A1697
:103360008A157A088316BB007908BA007808B90074
:103370007708B8003B088312BC0083163A08831212
:10338000BB00831639088312BA00831638088312EB
:10339000B90083163B08BF003A08BE003908BD00DB
:1033A0003808BC00023083120317B900FA30BA00A3
:1033B0000A128A110313592F0A168A150317B90B1B
:1033C000D6290030831603138500831203172E0BB2
:1033D0009D2A8316031385018312850195019B01A4
:1033E0008316C708031DF8294608633C03189A2A68
:1033F000C701C6014D080C3C0318362A83108312FE
:10340000A7018B1BA7178B1383164C0803179F006C
:1034100003134B0803179E0003134A0803179D006C
:103420000313490803179C0003132B080317A30079
:1034300003132A080317A200031329080317A10086
:10344000031328080317A0000A128A11831203131A
:1034500038200A168A15A71B8B177A088316CC000A
:103460007908CB007808CA007708C900CD0A4D0852
:10347000163C0318962A83120317E701E6018030F1
:10348000E5007F30E400831603134C088312031712
:10349000EB00831603134B0883120317EA0083160D
:1034A00003134A0883120317E9008316031349081C
:1034B00083120317E8000A128A1103133F250A1624
:1034C0008A157A080317BC007908BB007808BA008F
:1034D0007708B9003C08E7003B08E6003A08E50039
:1034E0003908E400EB01EA017A30E9008830E800AD
:1034F0000A128A11031344240A168A157A088316BD
:10350000D1007908D0007808CF007708CE00CC0130
:10351000CB01CA01C90183120317AE01831603133D
:10352000C701C6018612831286168316AB01AA0153
:10353000A901A801E02C8312031783160313520B71
:10354000B62C86122030831286060C1EA52A9900FE
:103550003C300C1EA92A990024300C1EAD2A99007B
:10356000893084007E080317BC007D08BB007C08FE
:10357000BA007B08B9000230BD000A1203133D23D4
:103580000A1624300C1EC22A990024300C1EC62AAA
:1035900099008930840070080317BC0003136F087A
:1035A0000317BB0003136E080317BA0003136D085B
:1035B0000317B9000230BD000A1203133D230A1697
:1035C00024300C1EE12A990024300C1EE52A9900B3
:1035D000893084008316510883120317BC008316B8
:1035E0000313500883120317BB00831603134F08FD
:1035F00083120317BA00831603134E0883120317AE
:10360000B9000230BD000A1203133D230A1624300C
:103610000C1E082B99003E300C1E0C2B99002030FC
:103620000C1E102B99000317BA011608B900303090
:103630003902F7003A08FA000030031C0130FA02A0
:103640007708B9007A08BA00BE016430BD003A08B4
:10365000C0003908BF000A128A110313C1270A16D5
:103660008A1579080317BA007808B900BC01170851
:10367000BB0030303B02F7003C08FA000030031C6E
:103680000130FA027708BB007A08BC00BE010A309C
:10369000BD003C08C0003B08BF000A128A1103139A
:1036A000C1270A168A157908FA0078080317B9079E
:1036B00079080318790FBA07FA011808B9077A08C8
:1036C00003187A0FBA07303039020313DF000317EB
:1036D0003A080313E0000030031C0130E002E2016D
:1036E0006430E1000317BA011C08B9003030390218
:1036F000F7003A08FA000030031C0130FA0277089C
:10370000B9007A08BA00BE016430BD003A08C000B2
:103710003908BF000A128A110313C1270A168A1535
:1037200079080317BA007808B900BC011D08BB006E
:1037300030303B02F7003C08FA000030031C013037
:10374000FA027708BB007A08BC00BE010A30BD004F
:103750003C08C0003B08BF000A128A110313C127AE
:103760000A168A157908FA0078080317B907790844
:103770000318790FBA07FA011E08B9077A08031867
:103780007A0FBA07303039020313E30003173A08FF
:103790000313E4000030031C0130E4020317BA01F4
:1037A0001F08B90030303902F7003A08FA0000303B
:1037B000031C0130FA027708B9007A08BA002730F2
:1037C000BE001030BD003A08C0003908BF000A1220
:1037D0008A110313C1270A168A1579080317BA003C
:1037E0007808B900BC012008BB0030303B02F7006C
:1037F0003C08FA000030031C0130FA027708BB00D5
:103800007A08BC000330BE00E830BD003C08C000B0
:103810003B08BF000A128A110313C1270A168A1532
:1038200078080317B90779080318790FBA07BC019C
:103830002108BB0030303B02F7003C08FA000030A2
:10384000031C0130FA027708BB007A08BC00BE01F5
:103850006430BD003C08C0003B08BF000A128A115A
:103860000313C1270A168A1578080317B9077908C0
:103870000318790FBA07BC012208BB0030303B02A5
:10388000F7003C08FA000030031C0130FA02770808
:10389000BB007A08BC00BE010A30BD003C08C00075
:1038A0003B08BF000A128A110313C1270A168A15A2
:1038B0007908FA0078080317B90779080318790F0F
:1038C000BA07FA012308B9077A0803187A0FBA076A
:1038D00030303902F7003A08FA000030031C01309A
:1038E000FA027708CD007A08CE000A128A11031373
:1038F000D8270A168A157A080317B3007908B20088
:103900007808B1007708B0003308E7003208E60015
:103910003108E5003008E400EB01EA014830E90035
:103920008530E8000A128A11031344240A168A1506
:103930007A08F0007908EF007808EE007708ED00CB
:103940000317110883160313DA0083120317B40157
:1039500034081D3C031CB32C10303407840083173B
:103960008001B40AA82C83160313D2015A08303CF4
:10397000031DC12C85018312850195019B01DF2C5C
:103980008316230883120317BC008316031322082F
:1039900083120317BB008316031321088312031736
:1039A000BA0083160313200883120317B9000A30E4
:1039B000BD000130BE000A1203133B2C0A16831609
:1039C0000A128312102E0A168316540877028312E5
:1039D0000317B900BA01831603135508031C550FCA
:1039E000F22CF72C83120317BA02831603138312E7
:1039F0000317BA08031D002D3908053C0318D02F02
:103A00003B30B9000A128A11031360230A168A1583
:103A100079088316AD007808AC003D308312031797
:103A2000B9000A128A11031360230A168A1579084D
:103A30008316AF007808AE003F3083120317B90039
:103A40000A128A11031360230A168A15790883164D
:103A5000B1007808B000433083120317B9000A128E
:103A60008A11031360230A168A1579088316B30096
:103A70007808B200453083120317B9000A128A1180
:103A8000031360230A168A1579088316B50078088F
:103A9000B400473083120317B9000A128A110313C6
:103AA00060230A168A1579088316B7007808B600CD
:103AB0002F0883120317BE00831603132E088312E8
:103AC0000317BD000A128A110313DC230A168A1594
:103AD0007A080317BC007908BB007808BA00770899
:103AE000B90083160313310883120317BE0083162F
:103AF0000313300883120317BD000A128A1103133F
:103B0000DC230A168A157A080317C0007908BF005B
:103B10007808BE007708BD003C08C4003B08C3001D
:103B20003A08C2003908C1004008C8003F08C70071
:103B30003E08C6003D08C5000A128A110313DC25A1
:103B40000A168A157A080317BC007908BB007808A2
:103B5000BA007708B900BE010408BD003E10831BFF
:103B60003E1483100313A7018B1BA7178B13031796
:103B70003C0883169F0083123B0883169E00831225
:103B80003A0883169D008312390883169C00DB30A7
:103B9000A3000F30A2004930A1008030A0000A121B
:103BA0008A118312031338200A168A15A71B8B1754
:103BB00003173D08840083133E1883177A08BC005E
:103BC0007908BB007808BA007708B9003C08E7001C
:103BD0003B08E6003A08E5003908E400EB01EA0199
:103BE0003430E9008630E8000A128A1103133F25B9
:103BF0000A168A157A080317BC007908BB007808F2
:103C0000BA007708B9003C08E7003B08E6003A082C
:103C1000E5003908E400DB30EB000F30EA00493002
:103C2000E9008030E8000A128A11031344240A16BE
:103C30008A157A088316BB007908BA007808B9009B
:103C40007708B800330883120317BE0083160313E6
:103C5000320883120317BD000A128A110313DC23F2
:103C60000A168A158310A7018B1BA7178B137A08D6
:103C7000831603179F0079089E0078089D00770837
:103C80009C00031351080317A300031350080317E4
:103C9000A20003134F080317A10003134E080317D4
:103CA000A0000A128A118312031338200A168A15FB
:103CB000A71B8B177A080317BC007908BB0078088C
:103CC000BA007708B9003C08E7003B08E6003A086C
:103CD000E5003908E400EB01EA010330E900863031
:103CE000E8000A128A11031344240A168A157A0876
:103CF0000317B8007908B7007808B6007708B50050
:103D000083160313330883120317BE0083160313AD
:103D1000320883120317BD000A128A110313DC2331
:103D20000A168A158310A7018B1BA7178B138316FE
:103D30002B0803179F0003132A0803179E00031381
:103D4000290803179D000313280803179C007A080D
:103D5000A3007908A2007808A1007708A0000A1241
:103D60008A118312031338200A168A15A71B8B1792
:103D70007A088316AB007908AA007808A9007708AA
:103D8000A800C60A0319C70A831203173808E700F8
:103D90003708E6003608E5003508E400EB01EA01E3
:103DA0004030E9008030E8000A128A1103133F25F1
:103DB0000A168A157A080317BC007908BB00780830
:103DC000BA007708B9003C08E7003B08E6003A086B
:103DD000E5003908E400EB01EA017A30E9008830B7
:103DE000E8000A128A11031344240A168A15831064
:103DF000A7018B1BA7178B1383163F0803179F0080
:103E000003133E0803179E0003133D0803179D008C
:103E100003133C0803179C007A08A3007908A2004A
:103E20007808A1007708A0000A128A1183120313F0
:103E300038200A168A15A71B8B177A088316BF002D
:103E40007908BE007808BD007708BC000A308312EC
:103E50000317E700D730E6002330E5007930E400AF
:103E6000831603133B0883120317EB008316031317
:103E70003A0883120317EA008316031339088312E2
:103E80000317E90083160313380883120317E800A9
:103E90000A128A1103133F250A168A157A08031796
:103EA000BC007908BB007808BA007708B900483030
:103EB000E700E130E6007A30E5007E30E40083166A
:103EC00003133F0883120317EB00831603133E0806
:103ED00083120317EA00831603133D0883120317A6
:103EE000E900831603133C0883120317E8000A1243
:103EF0008A1103133F250A168A158310A7018B1B0D
:103F0000A7178B1303173C0883169F0083123B08E7
:103F100083169E0083123A0883169D008312390887
:103F200083169C007A08A3007908A2007808A100F3
:103F30007708A0000A128A118312031338200A1688
:103F40008A15A71B8B177A088316C3007908C2004D
:103F50007808C1007708C0004308FE004208FD0051
:103F60004108FC004008FB00831203172E0BB92FF9
:103F7000D02F7E08BC007D08BB007C08BA007B08FF
:103F8000B9008A11031300288A157A088316A30042
:103F90007908A2007808A1007708A000831203170F
:043FA000E7296300AA
:04400E00E22FFF3F5F
:00000001FF
;PIC16F887
;CRC=CB9C  CREATED="18-Dec-18 14:40"
