:1000000018308A0000280000FF00030E8301A100C1
:100010000A08A0008A010408A2007708A300780853
:10002000A4007908A5007A08A60003170D08031399
:10003000A70003170F080313A80003170C080313E6
:10004000A90003170E080313AA00831383128B1D44
:100050002B280B1856288C308400801E31288C1ACF
:1000600059288B1E35280B195C2822088400230888
:10007000F7002408F8002508F9002608FA002708E8
:1000800003178D000313280803178F000313290893
:1000900003178C0003132A0803178E00031320088C
:1000A0008A00210E8300FF0E7F0E09008A110A12BA
:1000B000DB298A110A12462A8A110A12582A80302C
:1000C000831C65280317E7060313831603179201A1
:1000D00093018312630883169100831267088316C5
:1000E00091068312620803197D2983169000F70098
:1000F0008312660803198C298316900203191529A7
:10010000031CC7288312670883169600961783126C
:10011000680883169500831269088316940093017A
:100120000310960C950C940C930C900B8F28911F38
:100130009C281214A5291210101012166530840084
:100140008317BA291212911BAF28101CBA28960CDB
:10015000950C940C930CF70A0319A029BA28961B46
:10016000BD280310930D940D950D960DF7030319FB
:10017000A029AF2812173D29121383126308831692
:100180009100911FC52896179929961399298312D2
:10019000660883169000F7008312620883169002A7
:1001A00083126308831696009617831264088316D9
:1001B0009500831265088316940093010310960C32
:1001C000950C940C930C900BDD28911FEA28921447
:1001D000A529921010109216693084008317BA294D
:1001E0009212911BFD28101C0829960C950C940C5A
:1001F000930CF70A0319A0290829961B0B29031051
:10020000930D940D950D960DF7030319A029FD2864
:1002100092173D2992138312670883169100911F4C
:10022000132996179929961399298312670883161B
:100230009600961783126808831695008312690842
:1002400083169400911F282996131215A5291211BF
:1002500093011010653084008317BA29911B53292C
:100260008312630883169100101C3D29960C950C8F
:10027000940C930CF70A0319A029931F4E29940A92
:10028000031D4E29950A031D4E29960A031D4E296A
:10029000960C950C940CF70A0319A029121BBC2884
:1002A000921B0A29762980309606961F5D29A5297A
:1002B00083126708831691006C29831263088316E2
:1002C00091009608031D6C299508031D6C2994085C
:1002D000031D6C29F7019929961B76290310930DAC
:1002E000940D950D960DF70B6C29A029911F7A2975
:1002F000961799299613992983126608F7006708BB
:100300008316960083126808831695008312690885
:1003100083169400992983126208F70063088316F4
:10032000960083126408831695008312650883166D
:1003300094001608F8001508F9001408FA00D829E6
:10034000F701F801F901FA01D829930194099509F7
:1003500096099309930A031DB329940A031DB3292F
:10036000950A0319960A12189B289218E92812195F
:100370002729582900089407031CC429950A031D3E
:10038000C429960A03191014840300089507031C56
:10039000CC29960A0319101484030008801F803AA0
:1003A000960703181014121AA228921AF0282E2960
:1003B0008312031308000608F70083166F087706F8
:1003C000F8007708EF0078080F39E9006908023C67
:1003D0000318152A8310270883120317E5008316D4
:1003E0000313260883120317E4008316031325085A
:1003F00083120317E30083160313240883120317E1
:10040000E200CD30E900CC30E8004C30E7007A3033
:10041000E60003135F207A088316A7007908A60078
:100420007808A5007708A400412A690B412A8314A3
:10043000270883120317E500831603132608831287
:100440000317E40083160313250883120317E30040
:1004500083160313240883120317E200CD30E9004A
:10046000CC30E8004C30E7007A30E60003135F2020
:100470007A088316A7007908A6007808A5007708EF
:10048000A40083120B108A110A123528143084003C
:1004900083178403840A8C1E4B2A1A0880000D30AF
:1004A0000002031D4A2A80018C128A110A12352883
:1004B0000130E300273081000B118A110A12352820
:1004C0000A102010201020102533000020102010CA
:1004D0002010A0126600201020102010A01266002C
:1004E0000A102010201020102533000120102010A9
:1004F0002010A01266000830F80000008711AC112F
:100500002C0883168700000083120317AC0D031319
:100510000712031C912A2C162C0883168700952A93
:1005200083122C122C088316870000008312AC154E
:100530002C08831687008312871D9C2AF80B7D2ABE
:1005400000008711AC112C0883168700000083126D
:100550002C162C0883168700000000008312AC15AF
:100560002C08831687008312871DB42AF801000027
:10057000071A78148711AC112C0883168700831290
:1005800007122C122C0883168700831208002C16E1
:100590002C088316870000008312AC152C088316E4
:1005A00087000000831207122C122C088316870084
:1005B000000083128711AC112C0883168700D030FD
:1005C00083120317AC0003137B2203172708AC0028
:1005D00003137B2203172808AC0003137B222C1281
:1005E0002C088316870000008312AC152C08831694
:1005F00087008312871DFA2A0000FE2A00002C16AD
:100600002C0883168700000083120800273084001E
:100610008317000803191A2B0730F800F701F70BAE
:100620000F2BF80B0E2B2A30F700F70B152B182B7E
:10063000800B0C2B08006B300317A7008030A8003C
:100640000313C72205300317A700031306236B30DB
:100650000317A700A8010313C72219300317A70027
:100660000730A8000313C7221A300317A700A801F8
:100670000313C7221B300317A700A8010313C722C7
:100680001C300317A700A8010313C7226A30031701
:10069000A700A8010313C7226B300317A70001307E
:1006A000A8000313C7220A300317A7000313062369
:1006B0008A150A16A12808300317AD007708AE0086
:1006C00003132C162C088316870000008312AC1528
:1006D0002C08831687008312871D6C2B071A0314BE
:1006E000071E0310F80D0000AC112C0883168700BC
:1006F000831287110317AD0B602B03132C162C08E4
:100700008316870000008312071203172E080319AF
:10071000902B03132C122C088316870083120317C7
:1007200000000313AC152C08831687008312871D65
:10073000972B00008711AC112C088316870000004E
:10074000831207122C122C088316870083120800CC
:100750000317A901A801AB01AA0103132C162C0849
:100760008316870000008312AC152C0883168700BF
:100770000000831207122C122C0883168700000039
:1007800083128711AC112C0883168700D030831296
:100790000317AC0003137B2203172708AC000313D5
:1007A0007B222C162C088316870000008312AC15C0
:1007B0002C088316870000008312871DDD2B07128B
:1007C0002C122C0883168700000083128711AC11AD
:1007D0002C0883168700D13083120317AC00031353
:1007E0007B220130F7005B230317A9017808A800DA
:1007F000F70103135B230317AB017808AA00031367
:100800002C122C088316870000008312AC152C08CC
:10081000831687008312871D0B2C00000F2C00000D
:100820002C162C0883168700000083120317AC01D6
:100830002C082A04F70028082B04FA007708F8008F
:100840007A08F900031308008E30F70003172C080C
:10085000F8002B08F900FA01AC1F332CF809F9094C
:10086000F90A0319F80AF808031D402C7908F80062
:10087000F9010830F702F808031D402CF701492C54
:100880000310F81B472CF90DF80DF703402CAC1F93
:10089000F8130313080003174F08D6005308D606B1
:1008A000D61F572C03110310CF1B03148A2C4F089B
:1008B000D6005208D7004E08D7020319652CD61F60
:1008C0008A2C0308013A83008A2C5308D7004F086A
:1008D000D7020319712CD61F8A2C0308013A830012
:1008E0008A2C5408D7005008D70203197D2CD61F34
:1008F0008A2C0308013A83008A2C5508D700510836
:10090000D7020319892CD61F8A2C0308013A8300C9
:100910008A2C031003130800031752080319522DE1
:10092000DE0056080319522DDE02031C9C2C7F307A
:10093000DE070318522DA22C8130DE02031C522D3B
:100940000319522D5E08F700F801F901FA01DD01E3
:100950005308DC00DC175408DB005508DA001930B6
:10096000DE005908DA020318C52C0130DB02031837
:10097000C52CDC020318C52CDD020318C52CDD0ACA
:10098000DC0ADB0A5908DA07F72C5808DB020318DF
:10099000E02C0130DC020318E02CDD020318E02C0F
:1009A000DD0ADC0A5808DB075908DA07031CF72CB4
:1009B000DB0A031DF72CDC0A031DF72CDD0AF72CDC
:1009C00057088038DC020318F62C0130DD020318CA
:1009D000F62CDD0A57088038DC075808DB07031CB3
:1009E000D42CDC0A031DD42CDD0AD42C7A14DE0BA3
:1009F000FA2C052D0310DA0DDB0DDC0DDD0D0310D7
:100A0000FA0DF90DF80DDF0DB12C5F1C0D2D031043
:100A1000F80CF90CFA0CDF0C102DF7030319522D0A
:100A2000DF1B392D0310DA0DDB0DDC0DDD0D590850
:100A3000DA020318252D0130DB020318252DDC0214
:100A40000318252DDD02031C482D5808DB0203186E
:100A5000302D0130DC020318302DDD02031C482D3F
:100A600057088038DC020318392D0130DD02031CE1
:100A7000482DFA0A031D482DF90A031D482DF80ACE
:100A8000031D482DF70A0319522DF80CF90CFA0C26
:100A90005308DE005708DE06DE1F502DF817562DCE
:100AA000F813562DF701F801F901FA0103130800B4
:100AB000031752080319C92DDA0056080319C92D66
:100AC000DA0703186A2D7F30DA02031CC92D0319D7
:100AD000C92D6E2D8130DA070318C92D5A08F70089
:100AE000F801F901FA015308DE00DE175408DD00B1
:100AF0005508DC001830DA00DB015C1C972D590822
:100B0000FA07031C892DF90A031D892DF80A031918
:100B1000DB175808F907031C902DF80A0319DB1797
:100B20005708D400D4175408F8070318DB17DB0D57
:100B3000F80CF90CFA0CDE0CDD0CDC0C0310DA0BF3
:100B40007C2D0130F7070318C92DF81BAE2DDE0DE3
:100B5000FA0DF90DF80DF7030319C92DDE1FBF2D8E
:100B6000FA0A031DBF2DF90A031DBF2DF80A031D44
:100B7000BF2DF80CF90CFA0CF70A0319C92D53080C
:100B8000DB005708DB06DB1FC72DF817CD2DF81348
:100B9000CD2DF701F801F901FA010313080003173D
:100BA0003B10BC013208D1003108D0003008CF0022
:100BB0002F08CE00D501D401D301D20103134B2459
:100BC0000318E42D031DFB2D03173608D10035084B
:100BD000D0003408CF003308CE00D501D401D301B2
:100BE000D20103134B240318F72D031DF92D0330F5
:100BF000FA2D04300F2E03173608D1003508D00027
:100C00003408CF003308CE00D501D401D301D2017E
:100C100003134B24031C0E2E02300F2E013003173A
:100C2000BC003208D1003108D0003008CF002F08B6
:100C3000CE00D501D401D301D20103134B24031CF0
:100C4000272E03173B143008803AB0000313031714
:100C50003608D1003508D0003408CF003308CE0064
:100C6000D501D401D301D20103134B24031C3D2E23
:100C700003173408803AB400031303173608D10071
:100C80003508D0003408CF003308CE00D501D40198
:100C9000D301D20103134B24031D772E031732080F
:100CA000D1003108D0003008CF002F08CE00D50188
:100CB000D401D301D20103134B240319762E031759
:100CC0003B1C6C2E7F30F700C930F8000F30F90064
:100CD000DB30FA00382F752E7F30F7004930F800EE
:100CE0000F30F900DB30FA00382F0313372F0317CA
:100CF0003208D5003108D4003008D3002F08D200C4
:100D00003608D9003508D8003408D7003308D60093
:100D100003138C247A080317BA007908B9007808FD
:100D2000B8007708B70001303C02FC3E0318382FAA
:100D3000043E03133A2F03173A08C0003908BF00D6
:100D40003808BE003708BD008A15031300208A1139
:100D50000317382F382F031303173A08C000390838
:100D6000BF003808BE003708BD008A1503130020F5
:100D70008A110317BE010408BD003E10831B3E14F8
:100D800083140313AB018B1BAB178B13DB300317DF
:100D9000E5000F30E4004930E3008030E2007A08DB
:100DA000E9007908E8007808E7007708E60003130F
:100DB0005F20AB1B8B1703173D08840083133E187D
:100DC0008317382F382F031303173A08C000390848
:100DD000BF003808BE003708BD008A150313002085
:100DE0008A117A080317C0007908BF007808BE008E
:100DF0007708BD00C2010408C1004210831B4214E1
:100E000083140313AB018B1BAB178B130317400821
:100E1000E5003F08E4003E08E3003D08E200DB3067
:100E2000E9000F30E8004930E7008030E6000313A6
:100E30005F20AB1B8B1703174108840083134218F4
:100E40008317382F382F031303173A08C0003908C7
:100E5000BF003808BE003708BD008A150313002004
:100E60008A118030F8060317382F382F0313031721
:100E7000031308000A148A140A1582079B2EAC2E4D
:100E8000E42E242F28308400831700080319562FDE
:100E90000730F800F701F70B4B2FF80B4A2F2A30D9
:100EA000F700F70B512F542F800B482F8A150A1685
:100EB000EC290B080317AC0003138B1383160317DD
:100EC0008C170C14000000008312AC1F6A2F031350
:100ED0008B1703170318922F0C087F39AC000D08ED
:100EE000AD000F08AE002C0803130C1E752F9900DF
:100EF00003172D088D002E088F0003130B0803170E
:100F0000AF0003138B13831603178C170C14000008
:100F100000008312AF1F8F2F03138B170317AB0B28
:100F2000922FAD2F0C0D0E0D7F39AC000D08AD00CA
:100F30000F08AE002C0803130C1E9C2F99000317FA
:100F40002D088D002E088F008D0A03198F0A0310BB
:100F5000AB0BAB2FAD2F0313592F031308008318CE
:100F6000B42F403084008317F701F801F901FA012A
:100F70000317C001C101C201C3013F083E043D0483
:100F80003C040319F32F2030C4000310B80DB90D31
:100F9000BA0DBB0DC00DC10DC20DC30D3F084302FC
:100FA000031DDC2F3E084202031DDC2F3D084102D9
:100FB000031DDC2F3C084002031CED2F3C08C0023F
:100FC0003D08031C3D0FC1023E08031C3E0FC20238
:100FD0003F08031C3F0FC3020314F70DF80DF90D72
:100FE000FA0DC40BC52F40088000840A4108800018
:100FF000840A42088000840A430880000313080022
:1010000003174D10CD104008C4003F08C3003E0830
:10101000C2003D08C1004008D1003F08D0003E0892
:10102000CF003D08CE00D501D401D301D2018A11F1
:1010300003134B248A15031C232803174D1442085D
:10104000803AC20003130317D101D001CF017F30D2
:10105000CE004408D5004308D4004208D30041081C
:10106000D2008A1103134B248A15031C542803173A
:10107000D501D401D3017F30D2004408D900430800
:10108000D8004208D7004108D6008A1103138C24E7
:101090008A157A080317C4007908C3007808C200CB
:1010A0007708C100CD1403130A300317D500893027
:1010B000D4003430D3007C30D2004408D900430837
:1010C000D8004208D7004108D6008A1103135825DA
:1010D0008A157A080317D1007908D0007808CF0064
:1010E0007708CE005108D5005008D4004F08D3002F
:1010F0004E08D2004408D9004308D8004208D7005F
:101100004108D6008A11031358258A157A08031757
:10111000D1007908D0007808CF007708CE0083107E
:101120000313AB018B1BAB178B1303175108E5009F
:101130005008E4004F08E3004E08E2007C30E9006C
:101140007930E8003530E7008130E6008A1103137A
:101150005F208A15AB1B8B177A080317C800790824
:10116000C7007808C6007708C5004808D5004708BA
:10117000D4004608D3004508D2004408D9004308EB
:10118000D8004208D7004108D6008A110313582519
:101190008A157A080317D1007908D0007808CF00A3
:1011A0007708CE005108D5005008D4004F08D3006E
:1011B0004E08D2004408D9004308D8004208D7009E
:1011C0004108D6008A11031358258A157A08031797
:1011D000D1007908D0007808CF007708CE008310BE
:1011E0000313AB018B1BAB178B1303175108E500DF
:1011F0005008E4004F08E3004E08E2003F30E900E9
:101200000230E8003330E7008330E6008A11031330
:101210005F208A15AB1B8B177A080317C800790863
:10122000C7007808C6007708C5004808D5004708F9
:10123000D4004608D3004508D2004408D90043082A
:10124000D8004208D7004108D6008A110313582558
:101250008A157A080317D1007908D0007808CF00E2
:101260007708CE005108D5005008D4004F08D300AD
:101270004E08D2004408D9004308D8004208D700DD
:101280004108D6008A11031358258A157A080317D6
:10129000D1007908D0007808CF007708CE008310FD
:1012A0000313AB018B1BAB178B1303175108E5001E
:1012B0005008E4004F08E3004E08E2003330E90034
:1012C0008C30E8001E30E7008330E6008A110313FB
:1012D0005F208A15AB1B8B177A080317C8007908A3
:1012E000C7007808C6007708C500D501D401D3012E
:1012F0007F30D2004408D9004308D8004208D70004
:101300004108D6008A11031358258A157A08031755
:10131000D1007908D0007808CF007708CE005108B6
:10132000D5005008D4004F08D3004E08D20044081E
:10133000D9004308D8004208D7004108D6008A11D6
:10134000031358258A157A080317D1007908D000AD
:101350007808CF007708CE0083100313AB018B1BF6
:10136000AB178B1303175108E5005008E4004F0832
:10137000E3004E08E2001B30E900E430E8003530BD
:10138000E7008230E6008A1103135F208A15AB1B49
:101390008B177A080317CC007908CB007808CA00AD
:1013A0007708C9004C08D5004B08D4004A08D30080
:1013B0004908D2004408D9004308D8004208D700A1
:1013C0004108D6008A11031358258A157A08031795
:1013D000D1007908D0007808CF007708CE005108F6
:1013E000D5005008D4004F08D3004E08D20044085E
:1013F000D9004308D8004208D7004108D6008A1116
:10140000031358258A157A080317D1007908D000EC
:101410007808CF007708CE0083100313AB018B1B35
:10142000AB178B1303175108E5005008E4004F0871
:10143000E3004E08E200A430E900DB30E80067304A
:10144000E7008330E6008A1103135F208A15AB1B87
:101450008B177A080317CC007908CB007808CA00EC
:101460007708C9004C08D5004B08D4004A08D300BF
:101470004908D2004408D9004308D8004208D700E0
:101480004108D6008A11031358258A157A080317D4
:10149000D1007908D0007808CF007708CE00510835
:1014A000D5005008D4004F08D3004E08D20044089D
:1014B000D9004308D8004208D7004108D6008A1155
:1014C000031358258A157A080317D1007908D0002C
:1014D0007808CF007708CE0083100313AB018B1B75
:1014E000AB178B1303175108E5005008E4004F08B1
:1014F000E3004E08E2003330E9008C30E8001E3093
:10150000E7008330E6008A1103135F208A15AB1BC6
:101510008B177A080317CC007908CB007808CA002B
:101520007708C9004408D5004308D4004208D30016
:101530004108D2004808D9004708D8004608D7001B
:101540004508D6008A11031358258A157A0803170F
:10155000D1007908D0007808CF007708CE00510874
:10156000D5005008D4004F08D3004E08D2004C08D4
:10157000D9004B08D8004A08D7004908D6008A117C
:1015800003138C248A157A080317C8007908C7004A
:101590007808C6007708C500CD1CF42A831403130D
:1015A000AB018B1BAB178B13DB300317E5000F3040
:1015B000E4004930E3007F30E2004808E9004708D2
:1015C000E8004608E7004508E6008A1103135F209B
:1015D0008A15AB1B8B177A080317C8007908C70058
:1015E0007808C6007708C5004D1CF92A4608803ADD
:1015F000C6004508F7004608F8004708F900480803
:10160000FA000313080004080317B0002F08B20003
:101610000319272B2E08D5002D08D4002C08D30041
:101620002B08D200D901D8012030D7008230D60053
:101630008A11031358258A157A080317AE00790812
:10164000AD007808AC007708AB00B20B0A2B2E086F
:10165000BB002D08BA002C08B9002B08B8003808C8
:10166000B63CB800FA013908BC00B9170310B90C30
:10167000BA0CBB0CFA0CF90CF80CF70CB80B362BA7
:10168000BC1F4D2BF709F809F909FA09F70A0319E4
:10169000F80A0319F90A0319FA0A7A08AE00790858
:1016A000AD007808AC007708AB00AE1F642BB00328
:1016B000B016AB09AC09AD09AE09AB0A0319AC0A07
:1016C0000319AD0A0319AE0A3B30B7009A30B600D1
:1016D000CA30B500B4010A30B2002F080319B00AAD
:1016E00083142B30840083172E08BB002D08BA000A
:1016F0002C08B9002B08B8003708BF003608BE0018
:101700003508BD003408BC008A110313AF278A15C1
:101710007808F708031DA32B03172F0A3202031DB5
:10172000932B0313A32B30080319A62B0F39320276
:1017300003199C2B0318E22BB01BE22B301BA62BAA
:101740002030DB2B031320300317B005B01EB72B5E
:10175000B0122F08031DB0037708B0002D3003131B
:101760000C1EB02B990003173008F700B0012F08AA
:101770003202031DC82B7708B0002E3003130C1E55
:10178000BF2B990003173008F7002030B005003058
:101790003030B01EDB2BB0122F08031DB0037708CA
:1017A000B0002D3003130C1ED32B99000317300803
:1017B000F700B0013030F707770803130C1EDE2B5B
:1017C0009900031783103708BB003608BA003508A4
:1017D000B9003408B800BF01BE01BD010A30BC0029
:1017E0008A110313AF278A157A080317B7007908FF
:1017F000B6007808B5007708B400B20B702B03135D
:1018000008008E30F70003173C08F8003B08F90089
:10181000FA01F808031D162C7908F800F9010830C0
:10182000F702F808031D162CF7011E2C0310F81BF5
:101830001D2CF90DF80DF703162CF81303130800EF
:1018400001308316B800831203172A08D100290833
:10185000D0002808CF002708CE00D501D401D3013D
:10186000D2018A1103134B248A15031C602C023009
:101870008316B80083148312AB018B1BAB178B1339
:1018800003172A08E5002908E4002808E3002708D0
:10189000E200E901E8017030E7008330E6008A11D8
:1018A00003135F208A15AB1B8B177A080317AA0056
:1018B0007908A9007808A8007708A700832C0313EB
:1018C0008310AB018B1BAB178B1303172A08E500A2
:1018D0002908E4002808E3002708E200E901E801FC
:1018E0007030E7008330E6008A1103135F208A1509
:1018F000AB1B8B177A080317AA007908A900780890
:10190000A8007708A700D101D0016630CF0086304B
:10191000CE00831603132F0883120317D5008316F6
:1019200003132E0883120317D400831603132D0804
:1019300083120317D300831603132C088312031793
:10194000D2008A1103134B248A150318362D03196C
:10195000362D83162F0883120317D1008316031325
:101960002E0883120317D000831603132D08831249
:101970000317CF00831603132C0883120317CE001E
:10198000D501D4010230D3008630D2008A1103136E
:101990004B248A150318362D0319362D8314AB01F9
:1019A0008B1BAB178B1383162F0883120317E500CD
:1019B000831603132E0883120317E4008316031300
:1019C0002D0883120317E300831603132C088312D8
:1019D0000317E20083160313270883120317E90095
:1019E00083160313260883120317E80083160313D4
:1019F000250883120317E7008316031324088312B4
:101A00000317E6008A1103135F208A15AB1B8B179F
:101A10007A080317B0007908AF007808AE0077089D
:101A2000AD00F7002E08F8002F08F9003008FA0082
:101A3000F8137A08B0007908AF007808AE0077088C
:101A4000AD003008D1002F08D0002E08CF002D089F
:101A5000CE00D501D401D3017E30D2008A11031308
:101A60004B248A150318362D031D402D0317AA0198
:101A7000A901A801A701013083160313B80083123E
:101A800003172708F7002808F8002908F9002A0892
:101A9000FA00F8137A08B0007908AF007808AE00B1
:101AA0007708AD008E30F7002D08F7022E08F900F8
:101AB0002F08F800F917F7080319692D0310F90822
:101AC000031D652DF8080319692DF90CF80CF70BA7
:101AD0005E2DAE1F702DF809F909F80A0319F90AED
:101AE0007808AC002708F7002808F8002908F90052
:101AF0002A08FA00F8137A08B0007908AF007808CD
:101B0000AE007708AD00D101D0017A30CF00863029
:101B1000CE003008D5002F08D4002E08D3002D08A1
:101B2000D2008A1103134B248A15031C9C2DFA3012
:101B30000317AC00CD2D031303172708F70028085F
:101B4000F8002908F9002A08FA00F8132A08B0005A
:101B50002908AF007808AE002708AD00BC012B08AB
:101B6000BB000313012403173008D1002F08D00055
:101B70002E08CF002D08CE007A08D5007908D400B1
:101B80007808D3007708D2008A1103134B248A15F2
:101B9000031CCE2D03172B08AC0003138316390842
:101BA00038020319F72D85108312851483168511C9
:101BB00083128515FA3095009B0083163808B9000A
:101BC0003808023C031DED2D851083128514831601
:101BD000851183128515F62D8316380BF72D851088
:101BE0008312851083168511831285118316380B95
:101BF000042E831203172C080313950003172C08D7
:101C000003139B00152E83163808023C031D162E65
:101C1000831203172C08FA3CAD0003139500031739
:101C20002C08FA3CAD0003139B00831683120317A4
:101C30002C08F80003138A150A16952B1030031789
:101C4000AF00F701FA01AC0CAB0C031C2D2E2D08D4
:101C5000F7070318FA0A2E08FA07FA0CF70CF90C22
:0A1C6000F80CAF0B232E031308004D
:102000008314AB018B1BAB178B1303172A08E50056
:102010002908E4002808E3002708E20083160313D8
:10202000270883120317E900831603132608831277
:102030000317E80083160313250883120317E7002C
:1020400083160313240883120317E6000A120313EE
:102050005F200A16AB1B8B177A080317AE007908AE
:10206000AD007808AC007708AB00031368080317CD
:10207000BC00031367080317BB000A128A15031379
:1020800001240A168A117A080317D5007908D400AA
:102090007808D3007708D2002E08D9002D08D80080
:1020A0002C08D7002B08D6000A12031358250A164D
:1020B0008310AB018B1BAB178B137E080317E50056
:1020C0007D08E4007C08E3007B08E2007A08E90070
:1020D0007908E8007808E7007708E6000A12031399
:1020E0005F200A16AB1B8B177A08FE007908FD00EB
:1020F0007808FC007708FB000317D101D0017A3083
:10210000CF008630CE007E08D5007D08D4007C0844
:10211000D3007B08D2000A1203134B240A16031CB7
:102120009828FE01FD017A30FC008630FB00AF28C4
:102130007E080317D1007D08D0007C08CF007B0803
:10214000CE00D501D401D301D2010A1203134B24CE
:102150000A16031CAF28FE01FD01FC01FB018314DC
:10216000AB018B1BAB178B1303172A08E50029085B
:10217000E4002808E3002708E20083160313370869
:1021800083120317E900831603133608831203171B
:10219000E80083160313350883120317E70083163C
:1021A0000313340883120317E6000A1203135F2097
:1021B0000A16AB1B8B177A080317B2007908B10017
:1021C0007808B0007708AF002A0883160313B70019
:1021D00083120317290883160313B600831203170B
:1021E000280883160313B5008312031727088316E4
:1021F0000313B400831266080317BC0003136508B9
:102200000317BB000A128A15031301240A168A1148
:102210007A080317D5007908D4007808D300770826
:10222000D2002E08D9002D08D8002C08D7002B0882
:10223000D6000A12031358250A167A080317BA00A3
:102240007908B9007808B8007708B700831003133D
:10225000AB018B1BAB178B1303173A08E50039084A
:10226000E4003808E3003708E200E901E801E7018B
:10227000E6010A1203135F200A16AB1B8B177A08BC
:102280000317BA007908B9007808B8007708B700D2
:1022900003136A080317BC00031369080317BB0084
:1022A0000A128A15031301240A168A117A080317E1
:1022B000D5007908D4007808D3007708D200320816
:1022C000D9003108D8003008D7002F08D6000A12EC
:1022D000031358250A167A080317BE007908BD00B3
:1022E0007808BC007708BB003E08D5003D08D40044
:1022F0003C08D3003B08D200D901D8014830D700B0
:102300008530D6000A1203138C240A168314AB01FD
:102310008B1BAB178B1303173A08E5003908E40051
:102320003808E3003708E2007A08E9007908E80095
:102330007808E7007708E6000A1203135F200A1600
:10234000AB1B8B177A080317B6007908B50078081D
:10235000B4007708B300D101D0017A30CF008630C5
:10236000CE003608D5003508D4003408D300330831
:10237000D2000A1203134B240A16031CC8290317A0
:10238000B601B5017A30B4008630B300E4290313F6
:1023900003173608D1003508D0003408CF003308C1
:1023A000CE00D501D401FA30D3008630D2000A1213
:1023B00003134B240A16031CE5290317B601B501C4
:1023C000FA30B4008630B300031303173308F70064
:1023D0003408F8003508F9003608FA0003138A15A6
:0423E0000A16C02FEA
:1030000003081F398300FF30AC001730B000B73021
:10301000AF005130AE007330AD001730B400B730A0
:10302000B3005130B2007230B1006F30B8001230CE
:10303000B7000330B6007630B500BC01BB01BA0161
:10304000B901C401C301C201C101C801C701C60160
:10305000C501CC01CB01CA01C901D001CF01CE010C
:10306000CD01831603178711023003139900A23094
:103070009800903083129800E201E101B530900091
:103080008E018F018E010C10E301E401E60119307D
:10309000E500E801E701EA013230E900CD308316AE
:1030A000A3004C30A2003030A1008630A0002308DD
:1030B000A7002208A6002108A5002008A4009A3035
:1030C000AB009930AA001930A9007D30A80001306A
:1030D000B800B900C101C0017A30BF008830BE001D
:1030E000C201C801C701E801E701E901ED01EC01F6
:1030F000EB01EA010130EE00EF0103170908C039C6
:10310000890003131F129F120030031788008312D7
:10311000870188018901831330309400363095008F
:1031200030309600970037309800303099009A0080
:1031300038309B0030309C009D010A128A11031325
:103140001B2B0A168A1501300317A0003530831691
:1031500003138600861283128612013083169500AF
:10316000811383120608F70083166F087706F800AC
:103170007708EF0083120B108B15FF30831696042F
:1031800083128B1683168C16C03083128B0400308A
:10319000F80004389200FA30831692008312AC10C3
:1031A0002C0883168700831287100C309D002C1189
:1031B0002C0883168700831207110C3097008316A2
:1031C0009B019C0101309D000108C0390638810037
:1031D0002730831281003D300317A7000A128A119D
:1031E0000313A8230A168A1579088316CC007808D9
:1031F000CB003F3083120317A7000A128A11031372
:10320000A8230A168A1579088316CE007808CD00FF
:103210004C0883120317AC00831603134B08831268
:103220000317AB000A128A11031324240A168A1505
:103230007A080317AA007908A9007808A800770877
:10324000A700831603134E0883120317AC008316DE
:1032500003134D0883120317AB000A128A110313DC
:1032600024240A168A157A080317AE007908AD00DF
:103270007808AC007708AB002A08B2002908B10032
:103280002808B0002708AF002E08B6002D08B500AA
:103290002C08B4002B08B3000A128A110313CF259F
:1032A0000A168A157A080317AA007908A90078086F
:1032B000A8007708A700AC010408AB002C10831B02
:1032C0002C1483100313AB018B1BAB178B13031749
:1032D0002A08E5002908E4002808E3002708E2009E
:1032E000DB30E9000F30E8004930E7008030E600CD
:1032F0000A128A1103135F200A168A15AB1B8B175B
:1033000003172B08840083132C1883177A08AA004C
:103310007908A9007808A8007708A7002A08D5002E
:103320002908D4002808D3002708D200D901D801E1
:103330003430D7008630D6000A128A11031358257C
:103340000A168A157A080317AA007908A9007808CE
:10335000A8007708A7002A08D5002908D400280863
:10336000D3002708D200DB30D9000F30D800493015
:10337000D7008030D6000A128A1103138C240A1653
:103380008A157A088316D8007908D7007808D600FD
:103390007708D50058088312C00083165708831297
:1033A000BF00831656088312BE0083165508831289
:1033B000BD0083165808DC005708DB005608DA0009
:1033C0005508D900023083120317A700FA30A8006D
:1033D0000A128A110313422F0A168A150317A70B24
:1033E000E6290030831603138500E601E501831208
:1033F0000317200B782B83160313E808031D042AF8
:103400006708633C0318752BE801E7014108831244
:103410000317D50083160313400883120317D40043
:10342000831603133F0883120317D3008316031375
:103430003E0883120317D200D901D8014830D700C3
:103440008530D6000A128A1103138C240A168A15B5
:103450007A080317AA007908A9007808A800770855
:10346000A70060308D0002308F0003100830AB00E1
:103470000A128A11031359270A168A158930840003
:1034800003172A08AE002908AD002808AC00270859
:10349000AB000230AF000A12031303230A16663092
:1034A00003178D0002308F0003100730AB000A12A3
:1034B0008A11031359270A168A1589308400831646
:1034C0002F0883120317AE00831603132E088312EE
:1034D0000317AD00831603132D0883120317AC00E6
:1034E000831603132C0883120317AB000230AF00BE
:1034F0000A12031303230A1683166E080C3C0318E2
:10350000C72A83108312AB018B1BAB178B13831657
:103510006D0883120317E500831603136C088312EA
:103520000317E400831603136B0883120317E300E9
:10353000831603136A0883120317E200831603132A
:10354000410883120317E90083160313400883120E
:103550000317E800831603133F0883120317E700DD
:10356000831603133E0883120317E6000A128A111A
:1035700003135F200A168A15AB1B8B177A08831674
:10358000ED007908EC007808EB007708EA00EE0A15
:103590006E08163C0318712B6D0883120317D500B3
:1035A000831603136C0883120317D40083160313C6
:1035B0006B0883120317D300831603136A08831260
:1035C0000317D200D901D8017A30D7008830D6004D
:1035D0000A128A1103138C240A168A157A08031713
:1035E000AA007908A9007808A8007708A7006B301E
:1035F0008D0002308F0003100730AB000A128A11D1
:10360000031359270A168A158930840003172A08DC
:10361000AE002908AD002808AC002708AB00023036
:10362000AF000A12031303230A160317D501D401AE
:103630008030D3007F30D200831603136D088312CD
:103640000317D900831603136C0883120317D800DD
:10365000831603136B0883120317D7008316031313
:103660006A0883120317D6000A128A110313582519
:103670000A168A157A080317AA007908A90078089B
:10368000A8007708A7002A08D5002908D400280830
:10369000D3002708D200D901D8017A30D70088306A
:1036A000D6000A128A1103138C240A168A157A0886
:1036B000031793007908920078089100770890002A
:1036C00083160313ED01EC01EB01EA0183120317EA
:1036D000A00183160313E801E70186128312861600
:1036E0008316C101C001BF01BE01F32B8312031772
:1036F00083160313330883120317AA0083160313D8
:10370000320883120317A9008316031331088312AA
:103710000317A80083160313300883120317A700AA
:103720000A30AB000A120313202C0A16780803177C
:10373000A20070308D0002308F0003100830AB0003
:103740000A128A11031359270A168A158930840030
:1037500083162F0883120317AE00831603132E0857
:1037600083120317AD00831603132D08831203176A
:10377000AC00831603132C0883120317AB0002302E
:10378000AF000A12031303230A16763003178D00C5
:1037900002308F0003100730AB000A128A110313A6
:1037A00059270A168A158930840083163308831234
:1037B0000317AE0083160313320883120317AD00FC
:1037C00083160313310883120317AC008316031307
:1037D000300883120317AB000230AF000A12031344
:1037E00003230A16831683120317A8011408A700DF
:1037F00030302702F7002808FA000030031C01309F
:10380000FA027708A7007A08A800AC016430AB0080
:103810002808AE002708AD000A1203131E260A1658
:1038200079080317A8007808A700AA011508A900BD
:1038300030302902F7002A08FA000030031C01305A
:10384000FA027708A9007A08AA00AC010A30AB0096
:103850002A08AE002908AD000A1203131E260A1614
:103860007908FA0078080317A70779080318790F71
:10387000A807FA011608A7077A0803187A0FA807FD
:10388000303027020313E500031728080313E6006E
:103890000030031C0130E6020317A8011708A70037
:1038A00030302702F7002808FA000030031C0130EE
:1038B000FA027708A7007A08A800AC016430AB00D0
:1038C0002808AE002708AD000A1203131E260A16A8
:1038D00079080317A8007808A700AA011808A9000A
:1038E00030302902F7002A08FA000030031C0130AA
:1038F000FA027708A9007A08AA00AC010A30AB00E6
:103900002A08AE002908AD000A1203131E260A1663
:103910007908FA0078080317A70779080318790FC0
:10392000A807FA011908A7077A0803187A0FA80749
:10393000303027020313E700031728080313E800B9
:103940000030031C0130E8020317A8011A08A70081
:1039500030302702F7002808FA000030031C01303D
:10396000FA027708A7007A08A800AC016430AB001F
:103970002808AE002708AD000A1203131E260A16F7
:1039800079080317A8007808A700AA011B08A90056
:1039900030302902F7002A08FA000030031C0130F9
:1039A000FA027708A9007A08AA00AC010A30AB0035
:1039B0002A08AE002908AD000A1203131E260A16B3
:1039C0007908FA0078080317A70779080318790F10
:1039D000A807FA011C08A7077A0803187A0FA80796
:1039E000303027020313E900031728080313EA0005
:1039F0000030031C0130EA02630B592D3B300317E2
:103A0000A7000A128A110313A8230A168A15790837
:103A10008316CA007808C9003D3083120317A70037
:103A20000A128A110313A8230A168A157908831625
:103A3000CC007808CB003F3083120317A7000A128E
:103A40008A110313A8230A168A1579088316CE0053
:103A50007808CD00433083120317A7000A128A1199
:103A60000313A8230A168A1579088316D00078084C
:103A7000CF00453083120317A7000A128A110313DF
:103A8000A8230A168A1579088316D2007808D1006F
:103A9000473083120317A7000A128A110313A823C1
:103AA0000A168A1579088316D4007808D300831281
:103AB000E30183164C0883120317AC00831603132B
:103AC0004B0883120317AB000A128A110313242434
:103AD0000A168A157A080317AA007908A900780837
:103AE000A8007708A700831603134E088312031754
:103AF000AC00831603134D0883120317AB000A12A0
:103B00008A11031324240A168A157A080317AE00B3
:103B10007908AD007808AC007708AB002A08B2003D
:103B20002908B1002808B0002708AF002E08B60009
:103B30002D08B5002C08B4002B08B3000A128A1116
:103B40000313CF250A168A157A080317AA007908E5
:103B5000A9007808A8007708A700AC010408AB000A
:103B60002C10831B2C1483100313AB018B1BAB177E
:103B70008B1303172A08E5002908E4002808E3004E
:103B80002708E200DB30E9000F30E8004930E700A9
:103B90008030E6000A128A1103135F200A168A1584
:103BA000AB1B8B1703172B08840083132C18831768
:103BB0007A08AA007908A9007808A8007708A70061
:103BC0002A08D5002908D4002808D3002708D200E5
:103BD000D901D8013430D7008630D6000A128A11B4
:103BE000031358250A168A157A080317AA007908BC
:103BF000A9007808A8007708A7002A08D500290896
:103C0000D4002808D3002708D200DB30D9000F30B9
:103C1000D8004930D7008030D6000A128A11031329
:103C20008C240A168A157A088316D8007908D700DA
:103C30007808D6007708D500500883120317AC0027
:103C4000831603134F0883120317AB000A128A115D
:103C5000031324240A168A158310AB018B1BAB17A0
:103C60008B137A080317E5007908E4007808E3006D
:103C70007708E2001308E9001208E8001108E700DD
:103C80001008E6000A128A1103135F200A168A152B
:103C9000AB1B8B177A080317AA007908A9007808CC
:103CA000A8007708A7002A08D5002908D40028080A
:103CB000D3002708D200D901D8010330D7008630BD
:103CC000D6000A128A1103138C240A168A157A0860
:103CD0000317A6007908A5007808A4007708A300B8
:103CE00083160313500883120317AC0083160313C3
:103CF0004F0883120317AB000A128A1103132424FE
:103D00000A168A158310AB018B1BAB178B13831616
:103D1000410883120317E50083160313400883123A
:103D20000317E400831603133F0883120317E3000D
:103D3000831603133E0883120317E2007A08E90092
:103D40007908E8007808E7007708E6000A128A1187
:103D500003135F200A168A15AB1B8B177A0883168C
:103D6000C1007908C0007808BF007708BE00E70AE4
:103D70000319E80A831203172608D5002508D40082
:103D80002408D3002308D200D901D801D7018330F9
:103D9000D6000A128A11031358250A168A157A08C2
:103DA0000317AA007908A9007808A8007708A700D7
:103DB0002A08D5002908D4002808D3002708D200F3
:103DC000D901D8017A30D7008830D6000A128A117A
:103DD00003138C240A168A158310AB018B1BAB17B7
:103DE0008B1383165C0883120317E50083160313F5
:103DF0005B0883120317E400831603135A08831227
:103E00000317E30083160313590883120317E20014
:103E10007A08E9007908E8007808E7007708E60002
:103E20000A128A1103135F200A168A15AB1B8B171F
:103E30007A088316DC007908DB007808DA00770856
:103E4000D9000A3083120317D500D730D4002330AD
:103E5000D3007930D2008316031358088312031756
:103E6000D90083160313570883120317D80083164B
:103E70000313560883120317D7008316031355083C
:103E800083120317D6000A128A11031358250A1643
:103E90008A157A080317AA007908A9007808A800EB
:103EA0007708A7004830D500E130D4007A30D3003D
:103EB0007E30D200831603135C0883120317D900E7
:103EC000831603135B0883120317D80083160313AA
:103ED0005A0883120317D700831603135908831255
:103EE0000317D6000A128A11031358250A168A15D9
:103EF0008310AB018B1BAB178B1303172A08E5004C
:103F00002908E4002808E3002708E2007A08E9000D
:103F10007908E8007808E7007708E6000A128A11B5
:103F200003135F200A168A15AB1B8B177A088316BA
:103F3000E4007908E3007808E2007708E10064080B
:103F4000AF006308AE006208AD006108AC002F0846
:103F500083120317AA00831603132E088312031774
:103F6000A900831603132D0883120317A8008316D4
:103F700003132C0883120317A7008A1103130028C8
:103F80008A157A088316B3007908B2007808B10060
:083F90007708B000F729630077
:04400E00E22FFF3F5F
:00000001FF
;PIC16F887
;CRC=15B2  CREATED="07-Dec-18 01:50"
